{
	"contracts/Money.sol": {
		"Money": {
			"abi": [
				{
					"inputs": [],
					"name": "deposit",
					"outputs": [],
					"stateMutability": "payable",
					"type": "function"
				},
				{
					"inputs": [
						{
							"internalType": "address payable",
							"name": "ad",
							"type": "address"
						}
					],
					"name": "drain",
					"outputs": [],
					"stateMutability": "nonpayable",
					"type": "function"
				},
				{
					"inputs": [],
					"name": "totalMoney",
					"outputs": [
						{
							"internalType": "uint256",
							"name": "",
							"type": "uint256"
						}
					],
					"stateMutability": "view",
					"type": "function"
				}
			],
			"devdoc": {
				"kind": "dev",
				"methods": {},
				"version": 1
			},
			"evm": {
				"assembly": "    /* \"contracts/Money.sol\":56:297  contract Money{... */\n  mstore(0x40, 0x80)\n  callvalue\n  dup1\n  iszero\n  tag_1\n  jumpi\n  0x00\n  dup1\n  revert\ntag_1:\n  pop\n  dataSize(sub_0)\n  dup1\n  dataOffset(sub_0)\n  0x00\n  codecopy\n  0x00\n  return\nstop\n\nsub_0: assembly {\n        /* \"contracts/Money.sol\":56:297  contract Money{... */\n      mstore(0x40, 0x80)\n      jumpi(tag_1, lt(calldatasize, 0x04))\n      shr(0xe0, calldataload(0x00))\n      dup1\n      0x87da21e3\n      eq\n      tag_2\n      jumpi\n      dup1\n      0xd0e30db0\n      eq\n      tag_3\n      jumpi\n      dup1\n      0xece53132\n      eq\n      tag_4\n      jumpi\n    tag_1:\n      0x00\n      dup1\n      revert\n        /* \"contracts/Money.sol\":76:98  uint public totalMoney */\n    tag_2:\n      callvalue\n      dup1\n      iszero\n      tag_5\n      jumpi\n      0x00\n      dup1\n      revert\n    tag_5:\n      pop\n      tag_6\n      tag_7\n      jump\t// in\n    tag_6:\n      mload(0x40)\n      tag_8\n      swap2\n      swap1\n      tag_9\n      jump\t// in\n    tag_8:\n      mload(0x40)\n      dup1\n      swap2\n      sub\n      swap1\n      return\n        /* \"contracts/Money.sol\":104:176  function deposit() public payable {... */\n    tag_3:\n      tag_10\n      tag_11\n      jump\t// in\n    tag_10:\n      stop\n        /* \"contracts/Money.sol\":181:295  function drain(address payable ad)public {... */\n    tag_4:\n      callvalue\n      dup1\n      iszero\n      tag_12\n      jumpi\n      0x00\n      dup1\n      revert\n    tag_12:\n      pop\n      tag_13\n      0x04\n      dup1\n      calldatasize\n      sub\n      dup2\n      add\n      swap1\n      tag_14\n      swap2\n      swap1\n      tag_15\n      jump\t// in\n    tag_14:\n      tag_16\n      jump\t// in\n    tag_13:\n      stop\n        /* \"contracts/Money.sol\":76:98  uint public totalMoney */\n    tag_7:\n      sload(0x00)\n      dup2\n      jump\t// out\n        /* \"contracts/Money.sol\":104:176  function deposit() public payable {... */\n    tag_11:\n        /* \"contracts/Money.sol\":160:169  msg.value */\n      callvalue\n        /* \"contracts/Money.sol\":148:158  totalMoney */\n      0x00\n      dup1\n        /* \"contracts/Money.sol\":148:169  totalMoney+=msg.value */\n      dup3\n      dup3\n      sload\n      tag_18\n      swap2\n      swap1\n      tag_19\n      jump\t// in\n    tag_18:\n      swap3\n      pop\n      pop\n      dup2\n      swap1\n      sstore\n      pop\n        /* \"contracts/Money.sol\":104:176  function deposit() public payable {... */\n      jump\t// out\n        /* \"contracts/Money.sol\":181:295  function drain(address payable ad)public {... */\n    tag_16:\n        /* \"contracts/Money.sol\":240:242  ad */\n      dup1\n        /* \"contracts/Money.sol\":232:252  payable(ad).transfer */\n      0xffffffffffffffffffffffffffffffffffffffff\n      and\n        /* \"contracts/Money.sol\":232:264  payable(ad).transfer(totalMoney) */\n      0x08fc\n        /* \"contracts/Money.sol\":253:263  totalMoney */\n      sload(0x00)\n        /* \"contracts/Money.sol\":232:264  payable(ad).transfer(totalMoney) */\n      swap1\n      dup2\n      iszero\n      mul\n      swap1\n      mload(0x40)\n      0x00\n      mload(0x40)\n      dup1\n      dup4\n      sub\n      dup2\n      dup6\n      dup9\n      dup9\n      call\n      swap4\n      pop\n      pop\n      pop\n      pop\n      iszero\n      dup1\n      iszero\n      tag_22\n      jumpi\n      returndatasize\n      0x00\n      dup1\n      returndatacopy\n      revert(0x00, returndatasize)\n    tag_22:\n      pop\n        /* \"contracts/Money.sol\":287:288  0 */\n      0x00\n        /* \"contracts/Money.sol\":274:284  totalMoney */\n      dup1\n        /* \"contracts/Money.sol\":274:288  totalMoney = 0 */\n      dup2\n      swap1\n      sstore\n      pop\n        /* \"contracts/Money.sol\":181:295  function drain(address payable ad)public {... */\n      pop\n      jump\t// out\n        /* \"#utility.yul\":7:84   */\n    tag_23:\n        /* \"#utility.yul\":44:51   */\n      0x00\n        /* \"#utility.yul\":73:78   */\n      dup2\n        /* \"#utility.yul\":62:78   */\n      swap1\n      pop\n        /* \"#utility.yul\":7:84   */\n      swap2\n      swap1\n      pop\n      jump\t// out\n        /* \"#utility.yul\":90:208   */\n    tag_24:\n        /* \"#utility.yul\":177:201   */\n      tag_36\n        /* \"#utility.yul\":195:200   */\n      dup2\n        /* \"#utility.yul\":177:201   */\n      tag_23\n      jump\t// in\n    tag_36:\n        /* \"#utility.yul\":172:175   */\n      dup3\n        /* \"#utility.yul\":165:202   */\n      mstore\n        /* \"#utility.yul\":90:208   */\n      pop\n      pop\n      jump\t// out\n        /* \"#utility.yul\":214:436   */\n    tag_9:\n        /* \"#utility.yul\":307:311   */\n      0x00\n        /* \"#utility.yul\":345:347   */\n      0x20\n        /* \"#utility.yul\":334:343   */\n      dup3\n        /* \"#utility.yul\":330:348   */\n      add\n        /* \"#utility.yul\":322:348   */\n      swap1\n      pop\n        /* \"#utility.yul\":358:429   */\n      tag_38\n        /* \"#utility.yul\":426:427   */\n      0x00\n        /* \"#utility.yul\":415:424   */\n      dup4\n        /* \"#utility.yul\":411:428   */\n      add\n        /* \"#utility.yul\":402:408   */\n      dup5\n        /* \"#utility.yul\":358:429   */\n      tag_24\n      jump\t// in\n    tag_38:\n        /* \"#utility.yul\":214:436   */\n      swap3\n      swap2\n      pop\n      pop\n      jump\t// out\n        /* \"#utility.yul\":523:640   */\n    tag_26:\n        /* \"#utility.yul\":632:633   */\n      0x00\n        /* \"#utility.yul\":629:630   */\n      dup1\n        /* \"#utility.yul\":622:634   */\n      revert\n        /* \"#utility.yul\":769:895   */\n    tag_28:\n        /* \"#utility.yul\":806:813   */\n      0x00\n        /* \"#utility.yul\":846:888   */\n      0xffffffffffffffffffffffffffffffffffffffff\n        /* \"#utility.yul\":839:844   */\n      dup3\n        /* \"#utility.yul\":835:889   */\n      and\n        /* \"#utility.yul\":824:889   */\n      swap1\n      pop\n        /* \"#utility.yul\":769:895   */\n      swap2\n      swap1\n      pop\n      jump\t// out\n        /* \"#utility.yul\":901:1005   */\n    tag_29:\n        /* \"#utility.yul\":946:953   */\n      0x00\n        /* \"#utility.yul\":975:999   */\n      tag_44\n        /* \"#utility.yul\":993:998   */\n      dup3\n        /* \"#utility.yul\":975:999   */\n      tag_28\n      jump\t// in\n    tag_44:\n        /* \"#utility.yul\":964:999   */\n      swap1\n      pop\n        /* \"#utility.yul\":901:1005   */\n      swap2\n      swap1\n      pop\n      jump\t// out\n        /* \"#utility.yul\":1011:1149   */\n    tag_30:\n        /* \"#utility.yul\":1092:1124   */\n      tag_46\n        /* \"#utility.yul\":1118:1123   */\n      dup2\n        /* \"#utility.yul\":1092:1124   */\n      tag_29\n      jump\t// in\n    tag_46:\n        /* \"#utility.yul\":1085:1090   */\n      dup2\n        /* \"#utility.yul\":1082:1125   */\n      eq\n        /* \"#utility.yul\":1072:1143   */\n      tag_47\n      jumpi\n        /* \"#utility.yul\":1139:1140   */\n      0x00\n        /* \"#utility.yul\":1136:1137   */\n      dup1\n        /* \"#utility.yul\":1129:1141   */\n      revert\n        /* \"#utility.yul\":1072:1143   */\n    tag_47:\n        /* \"#utility.yul\":1011:1149   */\n      pop\n      jump\t// out\n        /* \"#utility.yul\":1155:1310   */\n    tag_31:\n        /* \"#utility.yul\":1209:1214   */\n      0x00\n        /* \"#utility.yul\":1247:1253   */\n      dup2\n        /* \"#utility.yul\":1234:1254   */\n      calldataload\n        /* \"#utility.yul\":1225:1254   */\n      swap1\n      pop\n        /* \"#utility.yul\":1263:1304   */\n      tag_49\n        /* \"#utility.yul\":1298:1303   */\n      dup2\n        /* \"#utility.yul\":1263:1304   */\n      tag_30\n      jump\t// in\n    tag_49:\n        /* \"#utility.yul\":1155:1310   */\n      swap3\n      swap2\n      pop\n      pop\n      jump\t// out\n        /* \"#utility.yul\":1316:1661   */\n    tag_15:\n        /* \"#utility.yul\":1383:1389   */\n      0x00\n        /* \"#utility.yul\":1432:1434   */\n      0x20\n        /* \"#utility.yul\":1420:1429   */\n      dup3\n        /* \"#utility.yul\":1411:1418   */\n      dup5\n        /* \"#utility.yul\":1407:1430   */\n      sub\n        /* \"#utility.yul\":1403:1435   */\n      slt\n        /* \"#utility.yul\":1400:1519   */\n      iszero\n      tag_51\n      jumpi\n        /* \"#utility.yul\":1438:1517   */\n      tag_52\n      tag_26\n      jump\t// in\n    tag_52:\n        /* \"#utility.yul\":1400:1519   */\n    tag_51:\n        /* \"#utility.yul\":1558:1559   */\n      0x00\n        /* \"#utility.yul\":1583:1644   */\n      tag_53\n        /* \"#utility.yul\":1636:1643   */\n      dup5\n        /* \"#utility.yul\":1627:1633   */\n      dup3\n        /* \"#utility.yul\":1616:1625   */\n      dup6\n        /* \"#utility.yul\":1612:1634   */\n      add\n        /* \"#utility.yul\":1583:1644   */\n      tag_31\n      jump\t// in\n    tag_53:\n        /* \"#utility.yul\":1573:1644   */\n      swap2\n      pop\n        /* \"#utility.yul\":1529:1654   */\n      pop\n        /* \"#utility.yul\":1316:1661   */\n      swap3\n      swap2\n      pop\n      pop\n      jump\t// out\n        /* \"#utility.yul\":1667:1847   */\n    tag_32:\n        /* \"#utility.yul\":1715:1792   */\n      0x4e487b7100000000000000000000000000000000000000000000000000000000\n        /* \"#utility.yul\":1712:1713   */\n      0x00\n        /* \"#utility.yul\":1705:1793   */\n      mstore\n        /* \"#utility.yul\":1812:1816   */\n      0x11\n        /* \"#utility.yul\":1809:1810   */\n      0x04\n        /* \"#utility.yul\":1802:1817   */\n      mstore\n        /* \"#utility.yul\":1836:1840   */\n      0x24\n        /* \"#utility.yul\":1833:1834   */\n      0x00\n        /* \"#utility.yul\":1826:1841   */\n      revert\n        /* \"#utility.yul\":1853:2044   */\n    tag_19:\n        /* \"#utility.yul\":1893:1896   */\n      0x00\n        /* \"#utility.yul\":1912:1932   */\n      tag_56\n        /* \"#utility.yul\":1930:1931   */\n      dup3\n        /* \"#utility.yul\":1912:1932   */\n      tag_23\n      jump\t// in\n    tag_56:\n        /* \"#utility.yul\":1907:1932   */\n      swap2\n      pop\n        /* \"#utility.yul\":1946:1966   */\n      tag_57\n        /* \"#utility.yul\":1964:1965   */\n      dup4\n        /* \"#utility.yul\":1946:1966   */\n      tag_23\n      jump\t// in\n    tag_57:\n        /* \"#utility.yul\":1941:1966   */\n      swap3\n      pop\n        /* \"#utility.yul\":1989:1990   */\n      dup3\n        /* \"#utility.yul\":1986:1987   */\n      dup3\n        /* \"#utility.yul\":1982:1991   */\n      add\n        /* \"#utility.yul\":1975:1991   */\n      swap1\n      pop\n        /* \"#utility.yul\":2010:2013   */\n      dup1\n        /* \"#utility.yul\":2007:2008   */\n      dup3\n        /* \"#utility.yul\":2004:2014   */\n      gt\n        /* \"#utility.yul\":2001:2037   */\n      iszero\n      tag_58\n      jumpi\n        /* \"#utility.yul\":2017:2035   */\n      tag_59\n      tag_32\n      jump\t// in\n    tag_59:\n        /* \"#utility.yul\":2001:2037   */\n    tag_58:\n        /* \"#utility.yul\":1853:2044   */\n      swap3\n      swap2\n      pop\n      pop\n      jump\t// out\n\n    auxdata: 0xa2646970667358221220e338b1dcdd78fa2a01eb1bbbf8ac616da7b5284188ae0b93db24981de291cc9b64736f6c634300081a0033\n}\n",
				"bytecode": {
					"linkReferences": {},
					"object": "6080604052348015600e575f80fd5b5061024f8061001c5f395ff3fe608060405260043610610033575f3560e01c806387da21e314610037578063d0e30db014610061578063ece531321461006b575b5f80fd5b348015610042575f80fd5b5061004b610093565b6040516100589190610117565b60405180910390f35b610069610098565b005b348015610076575f80fd5b50610091600480360381019061008c919061018e565b6100b1565b005b5f5481565b345f808282546100a891906101e6565b92505081905550565b8073ffffffffffffffffffffffffffffffffffffffff166108fc5f5490811502906040515f60405180830381858888f193505050501580156100f5573d5f803e3d5ffd5b505f808190555050565b5f819050919050565b610111816100ff565b82525050565b5f60208201905061012a5f830184610108565b92915050565b5f80fd5b5f73ffffffffffffffffffffffffffffffffffffffff82169050919050565b5f61015d82610134565b9050919050565b61016d81610153565b8114610177575f80fd5b50565b5f8135905061018881610164565b92915050565b5f602082840312156101a3576101a2610130565b5b5f6101b08482850161017a565b91505092915050565b7f4e487b71000000000000000000000000000000000000000000000000000000005f52601160045260245ffd5b5f6101f0826100ff565b91506101fb836100ff565b9250828201905080821115610213576102126101b9565b5b9291505056fea2646970667358221220e338b1dcdd78fa2a01eb1bbbf8ac616da7b5284188ae0b93db24981de291cc9b64736f6c634300081a0033",
					"opcodes": "PUSH1 0x80 PUSH1 0x40 MSTORE CALLVALUE DUP1 ISZERO PUSH1 0xE JUMPI PUSH0 DUP1 REVERT JUMPDEST POP PUSH2 0x24F DUP1 PUSH2 0x1C PUSH0 CODECOPY PUSH0 RETURN INVALID PUSH1 0x80 PUSH1 0x40 MSTORE PUSH1 0x4 CALLDATASIZE LT PUSH2 0x33 JUMPI PUSH0 CALLDATALOAD PUSH1 0xE0 SHR DUP1 PUSH4 0x87DA21E3 EQ PUSH2 0x37 JUMPI DUP1 PUSH4 0xD0E30DB0 EQ PUSH2 0x61 JUMPI DUP1 PUSH4 0xECE53132 EQ PUSH2 0x6B JUMPI JUMPDEST PUSH0 DUP1 REVERT JUMPDEST CALLVALUE DUP1 ISZERO PUSH2 0x42 JUMPI PUSH0 DUP1 REVERT JUMPDEST POP PUSH2 0x4B PUSH2 0x93 JUMP JUMPDEST PUSH1 0x40 MLOAD PUSH2 0x58 SWAP2 SWAP1 PUSH2 0x117 JUMP JUMPDEST PUSH1 0x40 MLOAD DUP1 SWAP2 SUB SWAP1 RETURN JUMPDEST PUSH2 0x69 PUSH2 0x98 JUMP JUMPDEST STOP JUMPDEST CALLVALUE DUP1 ISZERO PUSH2 0x76 JUMPI PUSH0 DUP1 REVERT JUMPDEST POP PUSH2 0x91 PUSH1 0x4 DUP1 CALLDATASIZE SUB DUP2 ADD SWAP1 PUSH2 0x8C SWAP2 SWAP1 PUSH2 0x18E JUMP JUMPDEST PUSH2 0xB1 JUMP JUMPDEST STOP JUMPDEST PUSH0 SLOAD DUP2 JUMP JUMPDEST CALLVALUE PUSH0 DUP1 DUP3 DUP3 SLOAD PUSH2 0xA8 SWAP2 SWAP1 PUSH2 0x1E6 JUMP JUMPDEST SWAP3 POP POP DUP2 SWAP1 SSTORE POP JUMP JUMPDEST DUP1 PUSH20 0xFFFFFFFFFFFFFFFFFFFFFFFFFFFFFFFFFFFFFFFF AND PUSH2 0x8FC PUSH0 SLOAD SWAP1 DUP2 ISZERO MUL SWAP1 PUSH1 0x40 MLOAD PUSH0 PUSH1 0x40 MLOAD DUP1 DUP4 SUB DUP2 DUP6 DUP9 DUP9 CALL SWAP4 POP POP POP POP ISZERO DUP1 ISZERO PUSH2 0xF5 JUMPI RETURNDATASIZE PUSH0 DUP1 RETURNDATACOPY RETURNDATASIZE PUSH0 REVERT JUMPDEST POP PUSH0 DUP1 DUP2 SWAP1 SSTORE POP POP JUMP JUMPDEST PUSH0 DUP2 SWAP1 POP SWAP2 SWAP1 POP JUMP JUMPDEST PUSH2 0x111 DUP2 PUSH2 0xFF JUMP JUMPDEST DUP3 MSTORE POP POP JUMP JUMPDEST PUSH0 PUSH1 0x20 DUP3 ADD SWAP1 POP PUSH2 0x12A PUSH0 DUP4 ADD DUP5 PUSH2 0x108 JUMP JUMPDEST SWAP3 SWAP2 POP POP JUMP JUMPDEST PUSH0 DUP1 REVERT JUMPDEST PUSH0 PUSH20 0xFFFFFFFFFFFFFFFFFFFFFFFFFFFFFFFFFFFFFFFF DUP3 AND SWAP1 POP SWAP2 SWAP1 POP JUMP JUMPDEST PUSH0 PUSH2 0x15D DUP3 PUSH2 0x134 JUMP JUMPDEST SWAP1 POP SWAP2 SWAP1 POP JUMP JUMPDEST PUSH2 0x16D DUP2 PUSH2 0x153 JUMP JUMPDEST DUP2 EQ PUSH2 0x177 JUMPI PUSH0 DUP1 REVERT JUMPDEST POP JUMP JUMPDEST PUSH0 DUP2 CALLDATALOAD SWAP1 POP PUSH2 0x188 DUP2 PUSH2 0x164 JUMP JUMPDEST SWAP3 SWAP2 POP POP JUMP JUMPDEST PUSH0 PUSH1 0x20 DUP3 DUP5 SUB SLT ISZERO PUSH2 0x1A3 JUMPI PUSH2 0x1A2 PUSH2 0x130 JUMP JUMPDEST JUMPDEST PUSH0 PUSH2 0x1B0 DUP5 DUP3 DUP6 ADD PUSH2 0x17A JUMP JUMPDEST SWAP2 POP POP SWAP3 SWAP2 POP POP JUMP JUMPDEST PUSH32 0x4E487B7100000000000000000000000000000000000000000000000000000000 PUSH0 MSTORE PUSH1 0x11 PUSH1 0x4 MSTORE PUSH1 0x24 PUSH0 REVERT JUMPDEST PUSH0 PUSH2 0x1F0 DUP3 PUSH2 0xFF JUMP JUMPDEST SWAP2 POP PUSH2 0x1FB DUP4 PUSH2 0xFF JUMP JUMPDEST SWAP3 POP DUP3 DUP3 ADD SWAP1 POP DUP1 DUP3 GT ISZERO PUSH2 0x213 JUMPI PUSH2 0x212 PUSH2 0x1B9 JUMP JUMPDEST JUMPDEST SWAP3 SWAP2 POP POP JUMP INVALID LOG2 PUSH5 0x6970667358 0x22 SLT KECCAK256 0xE3 CODESIZE 0xB1 0xDC 0xDD PUSH25 0xFA2A01EB1BBBF8AC616DA7B5284188AE0B93DB24981DE291CC SWAP12 PUSH5 0x736F6C6343 STOP ADDMOD BYTE STOP CALLER "
				},
				"gasEstimates": {
					"creation": {
						"codeDepositCost": "118200",
						"executionCost": "163",
						"totalCost": "118363"
					},
					"external": {
						"deposit()": "infinite",
						"drain(address)": "infinite",
						"totalMoney()": "2402"
					}
				},
				"methodIdentifiers": {
					"deposit()": "d0e30db0",
					"drain(address)": "ece53132",
					"totalMoney()": "87da21e3"
				}
			},
			"storageLayout": {
				"storage": [
					{
						"astId": 3,
						"contract": "contracts/Money.sol:Money",
						"label": "totalMoney",
						"offset": 0,
						"slot": "0",
						"type": "t_uint256"
					}
				],
				"types": {
					"t_uint256": {
						"encoding": "inplace",
						"label": "uint256",
						"numberOfBytes": "32"
					}
				}
			},
			"userdoc": {
				"kind": "user",
				"methods": {},
				"version": 1
			}
		}
	}
}