{
	"contracts/Contract2.sol": {
		"Contract2": {
			"abi": [
				{
					"inputs": [],
					"stateMutability": "nonpayable",
					"type": "constructor"
				},
				{
					"inputs": [],
					"name": "proxyAdd",
					"outputs": [],
					"stateMutability": "nonpayable",
					"type": "function"
				},
				{
					"inputs": [],
					"name": "proxyGet",
					"outputs": [
						{
							"internalType": "uint256",
							"name": "",
							"type": "uint256"
						}
					],
					"stateMutability": "view",
					"type": "function"
				}
			],
			"devdoc": {
				"kind": "dev",
				"methods": {},
				"version": 1
			},
			"evm": {
				"assembly": "    /* \"contracts/Contract2.sol\":163:481  contract Contract2{... */\n  mstore(0x40, 0x80)\n    /* \"contracts/Contract2.sol\":187:208  constructor(){... */\n  callvalue\n  dup1\n  iszero\n  tag_1\n  jumpi\n  0x00\n  dup1\n  revert\ntag_1:\n  pop\n    /* \"contracts/Contract2.sol\":163:481  contract Contract2{... */\n  dataSize(sub_0)\n  dup1\n  dataOffset(sub_0)\n  0x00\n  codecopy\n  0x00\n  return\nstop\n\nsub_0: assembly {\n        /* \"contracts/Contract2.sol\":163:481  contract Contract2{... */\n      mstore(0x40, 0x80)\n      callvalue\n      dup1\n      iszero\n      tag_1\n      jumpi\n      0x00\n      dup1\n      revert\n    tag_1:\n      pop\n      jumpi(tag_2, lt(calldatasize, 0x04))\n      shr(0xe0, calldataload(0x00))\n      dup1\n      0xa707bd54\n      eq\n      tag_3\n      jumpi\n      dup1\n      0xe73cdd75\n      eq\n      tag_4\n      jumpi\n    tag_2:\n      0x00\n      dup1\n      revert\n        /* \"contracts/Contract2.sol\":320:479  function proxyGet() public  view returns(uint){... */\n    tag_3:\n      tag_5\n      tag_6\n      jump\t// in\n    tag_5:\n      mload(0x40)\n      tag_7\n      swap2\n      swap1\n      tag_8\n      jump\t// in\n    tag_7:\n      mload(0x40)\n      dup1\n      swap2\n      sub\n      swap1\n      return\n        /* \"contracts/Contract2.sol\":213:315  function proxyAdd() public {... */\n    tag_4:\n      tag_9\n      tag_10\n      jump\t// in\n    tag_9:\n      stop\n        /* \"contracts/Contract2.sol\":320:479  function proxyGet() public  view returns(uint){... */\n    tag_6:\n        /* \"contracts/Contract2.sol\":361:365  uint */\n      0x00\n        /* \"contracts/Contract2.sol\":376:386  uint value */\n      dup1\n        /* \"contracts/Contract2.sol\":398:440  0xD4Fc541236927E2EAf8F27606bD7309C1Fc2cbee */\n      0xd4fc541236927e2eaf8f27606bd7309c1fc2cbee\n        /* \"contracts/Contract2.sol\":389:448  IStorage(0xD4Fc541236927E2EAf8F27606bD7309C1Fc2cbee).getNum */\n      0xffffffffffffffffffffffffffffffffffffffff\n      and\n      0x67e0badb\n        /* \"contracts/Contract2.sol\":389:450  IStorage(0xD4Fc541236927E2EAf8F27606bD7309C1Fc2cbee).getNum() */\n      mload(0x40)\n      dup2\n      0xffffffff\n      and\n      0xe0\n      shl\n      dup2\n      mstore\n      0x04\n      add\n      0x20\n      mload(0x40)\n      dup1\n      dup4\n      sub\n      dup2\n      dup7\n      gas\n      staticcall\n      iszero\n      dup1\n      iszero\n      tag_13\n      jumpi\n      returndatasize\n      0x00\n      dup1\n      returndatacopy\n      revert(0x00, returndatasize)\n    tag_13:\n      pop\n      pop\n      pop\n      pop\n      mload(0x40)\n      returndatasize\n      not(0x1f)\n      0x1f\n      dup3\n      add\n      and\n      dup3\n      add\n      dup1\n      0x40\n      mstore\n      pop\n      dup2\n      add\n      swap1\n      tag_14\n      swap2\n      swap1\n      tag_15\n      jump\t// in\n    tag_14:\n        /* \"contracts/Contract2.sol\":376:450  uint value = IStorage(0xD4Fc541236927E2EAf8F27606bD7309C1Fc2cbee).getNum() */\n      swap1\n      pop\n        /* \"contracts/Contract2.sol\":467:472  value */\n      dup1\n        /* \"contracts/Contract2.sol\":460:472  return value */\n      swap2\n      pop\n      pop\n        /* \"contracts/Contract2.sol\":320:479  function proxyGet() public  view returns(uint){... */\n      swap1\n      jump\t// out\n        /* \"contracts/Contract2.sol\":213:315  function proxyAdd() public {... */\n    tag_10:\n        /* \"contracts/Contract2.sol\":259:301  0xD4Fc541236927E2EAf8F27606bD7309C1Fc2cbee */\n      0xd4fc541236927e2eaf8f27606bd7309c1fc2cbee\n        /* \"contracts/Contract2.sol\":250:306  IStorage(0xD4Fc541236927E2EAf8F27606bD7309C1Fc2cbee).add */\n      0xffffffffffffffffffffffffffffffffffffffff\n      and\n      0x4f2be91f\n        /* \"contracts/Contract2.sol\":250:308  IStorage(0xD4Fc541236927E2EAf8F27606bD7309C1Fc2cbee).add() */\n      mload(0x40)\n      dup2\n      0xffffffff\n      and\n      0xe0\n      shl\n      dup2\n      mstore\n      0x04\n      add\n      0x00\n      mload(0x40)\n      dup1\n      dup4\n      sub\n      dup2\n      0x00\n      dup8\n      dup1\n      extcodesize\n      iszero\n      dup1\n      iszero\n      tag_17\n      jumpi\n      0x00\n      dup1\n      revert\n    tag_17:\n      pop\n      gas\n      call\n      iszero\n      dup1\n      iszero\n      tag_19\n      jumpi\n      returndatasize\n      0x00\n      dup1\n      returndatacopy\n      revert(0x00, returndatasize)\n    tag_19:\n      pop\n      pop\n      pop\n      pop\n        /* \"contracts/Contract2.sol\":213:315  function proxyAdd() public {... */\n      jump\t// out\n        /* \"#utility.yul\":7:84   */\n    tag_20:\n        /* \"#utility.yul\":44:51   */\n      0x00\n        /* \"#utility.yul\":73:78   */\n      dup2\n        /* \"#utility.yul\":62:78   */\n      swap1\n      pop\n        /* \"#utility.yul\":7:84   */\n      swap2\n      swap1\n      pop\n      jump\t// out\n        /* \"#utility.yul\":90:208   */\n    tag_21:\n        /* \"#utility.yul\":177:201   */\n      tag_30\n        /* \"#utility.yul\":195:200   */\n      dup2\n        /* \"#utility.yul\":177:201   */\n      tag_20\n      jump\t// in\n    tag_30:\n        /* \"#utility.yul\":172:175   */\n      dup3\n        /* \"#utility.yul\":165:202   */\n      mstore\n        /* \"#utility.yul\":90:208   */\n      pop\n      pop\n      jump\t// out\n        /* \"#utility.yul\":214:436   */\n    tag_8:\n        /* \"#utility.yul\":307:311   */\n      0x00\n        /* \"#utility.yul\":345:347   */\n      0x20\n        /* \"#utility.yul\":334:343   */\n      dup3\n        /* \"#utility.yul\":330:348   */\n      add\n        /* \"#utility.yul\":322:348   */\n      swap1\n      pop\n        /* \"#utility.yul\":358:429   */\n      tag_32\n        /* \"#utility.yul\":426:427   */\n      0x00\n        /* \"#utility.yul\":415:424   */\n      dup4\n        /* \"#utility.yul\":411:428   */\n      add\n        /* \"#utility.yul\":402:408   */\n      dup5\n        /* \"#utility.yul\":358:429   */\n      tag_21\n      jump\t// in\n    tag_32:\n        /* \"#utility.yul\":214:436   */\n      swap3\n      swap2\n      pop\n      pop\n      jump\t// out\n        /* \"#utility.yul\":523:640   */\n    tag_23:\n        /* \"#utility.yul\":632:633   */\n      0x00\n        /* \"#utility.yul\":629:630   */\n      dup1\n        /* \"#utility.yul\":622:634   */\n      revert\n        /* \"#utility.yul\":769:891   */\n    tag_25:\n        /* \"#utility.yul\":842:866   */\n      tag_37\n        /* \"#utility.yul\":860:865   */\n      dup2\n        /* \"#utility.yul\":842:866   */\n      tag_20\n      jump\t// in\n    tag_37:\n        /* \"#utility.yul\":835:840   */\n      dup2\n        /* \"#utility.yul\":832:867   */\n      eq\n        /* \"#utility.yul\":822:885   */\n      tag_38\n      jumpi\n        /* \"#utility.yul\":881:882   */\n      0x00\n        /* \"#utility.yul\":878:879   */\n      dup1\n        /* \"#utility.yul\":871:883   */\n      revert\n        /* \"#utility.yul\":822:885   */\n    tag_38:\n        /* \"#utility.yul\":769:891   */\n      pop\n      jump\t// out\n        /* \"#utility.yul\":897:1040   */\n    tag_26:\n        /* \"#utility.yul\":954:959   */\n      0x00\n        /* \"#utility.yul\":985:991   */\n      dup2\n        /* \"#utility.yul\":979:992   */\n      mload\n        /* \"#utility.yul\":970:992   */\n      swap1\n      pop\n        /* \"#utility.yul\":1001:1034   */\n      tag_40\n        /* \"#utility.yul\":1028:1033   */\n      dup2\n        /* \"#utility.yul\":1001:1034   */\n      tag_25\n      jump\t// in\n    tag_40:\n        /* \"#utility.yul\":897:1040   */\n      swap3\n      swap2\n      pop\n      pop\n      jump\t// out\n        /* \"#utility.yul\":1046:1397   */\n    tag_15:\n        /* \"#utility.yul\":1116:1122   */\n      0x00\n        /* \"#utility.yul\":1165:1167   */\n      0x20\n        /* \"#utility.yul\":1153:1162   */\n      dup3\n        /* \"#utility.yul\":1144:1151   */\n      dup5\n        /* \"#utility.yul\":1140:1163   */\n      sub\n        /* \"#utility.yul\":1136:1168   */\n      slt\n        /* \"#utility.yul\":1133:1252   */\n      iszero\n      tag_42\n      jumpi\n        /* \"#utility.yul\":1171:1250   */\n      tag_43\n      tag_23\n      jump\t// in\n    tag_43:\n        /* \"#utility.yul\":1133:1252   */\n    tag_42:\n        /* \"#utility.yul\":1291:1292   */\n      0x00\n        /* \"#utility.yul\":1316:1380   */\n      tag_44\n        /* \"#utility.yul\":1372:1379   */\n      dup5\n        /* \"#utility.yul\":1363:1369   */\n      dup3\n        /* \"#utility.yul\":1352:1361   */\n      dup6\n        /* \"#utility.yul\":1348:1370   */\n      add\n        /* \"#utility.yul\":1316:1380   */\n      tag_26\n      jump\t// in\n    tag_44:\n        /* \"#utility.yul\":1306:1380   */\n      swap2\n      pop\n        /* \"#utility.yul\":1262:1390   */\n      pop\n        /* \"#utility.yul\":1046:1397   */\n      swap3\n      swap2\n      pop\n      pop\n      jump\t// out\n\n    auxdata: 0xa264697066735822122061eb42f3d132cbcb710e99aa21763cea43c8e44deaa2b6b40a8c9d4b901d19e264736f6c634300081a0033\n}\n",
				"bytecode": {
					"linkReferences": {},
					"object": "6080604052348015600e575f80fd5b5061021d8061001c5f395ff3fe608060405234801561000f575f80fd5b5060043610610034575f3560e01c8063a707bd5414610038578063e73cdd7514610056575b5f80fd5b610040610060565b60405161004d9190610175565b60405180910390f35b61005e6100ec565b005b5f8073d4fc541236927e2eaf8f27606bd7309c1fc2cbee73ffffffffffffffffffffffffffffffffffffffff166367e0badb6040518163ffffffff1660e01b8152600401602060405180830381865afa1580156100bf573d5f803e3d5ffd5b505050506040513d601f19601f820116820180604052508101906100e391906101bc565b90508091505090565b73d4fc541236927e2eaf8f27606bd7309c1fc2cbee73ffffffffffffffffffffffffffffffffffffffff16634f2be91f6040518163ffffffff1660e01b81526004015f604051808303815f87803b158015610145575f80fd5b505af1158015610157573d5f803e3d5ffd5b50505050565b5f819050919050565b61016f8161015d565b82525050565b5f6020820190506101885f830184610166565b92915050565b5f80fd5b61019b8161015d565b81146101a5575f80fd5b50565b5f815190506101b681610192565b92915050565b5f602082840312156101d1576101d061018e565b5b5f6101de848285016101a8565b9150509291505056fea264697066735822122061eb42f3d132cbcb710e99aa21763cea43c8e44deaa2b6b40a8c9d4b901d19e264736f6c634300081a0033",
					"opcodes": "PUSH1 0x80 PUSH1 0x40 MSTORE CALLVALUE DUP1 ISZERO PUSH1 0xE JUMPI PUSH0 DUP1 REVERT JUMPDEST POP PUSH2 0x21D DUP1 PUSH2 0x1C PUSH0 CODECOPY PUSH0 RETURN INVALID PUSH1 0x80 PUSH1 0x40 MSTORE CALLVALUE DUP1 ISZERO PUSH2 0xF JUMPI PUSH0 DUP1 REVERT JUMPDEST POP PUSH1 0x4 CALLDATASIZE LT PUSH2 0x34 JUMPI PUSH0 CALLDATALOAD PUSH1 0xE0 SHR DUP1 PUSH4 0xA707BD54 EQ PUSH2 0x38 JUMPI DUP1 PUSH4 0xE73CDD75 EQ PUSH2 0x56 JUMPI JUMPDEST PUSH0 DUP1 REVERT JUMPDEST PUSH2 0x40 PUSH2 0x60 JUMP JUMPDEST PUSH1 0x40 MLOAD PUSH2 0x4D SWAP2 SWAP1 PUSH2 0x175 JUMP JUMPDEST PUSH1 0x40 MLOAD DUP1 SWAP2 SUB SWAP1 RETURN JUMPDEST PUSH2 0x5E PUSH2 0xEC JUMP JUMPDEST STOP JUMPDEST PUSH0 DUP1 PUSH20 0xD4FC541236927E2EAF8F27606BD7309C1FC2CBEE PUSH20 0xFFFFFFFFFFFFFFFFFFFFFFFFFFFFFFFFFFFFFFFF AND PUSH4 0x67E0BADB PUSH1 0x40 MLOAD DUP2 PUSH4 0xFFFFFFFF AND PUSH1 0xE0 SHL DUP2 MSTORE PUSH1 0x4 ADD PUSH1 0x20 PUSH1 0x40 MLOAD DUP1 DUP4 SUB DUP2 DUP7 GAS STATICCALL ISZERO DUP1 ISZERO PUSH2 0xBF JUMPI RETURNDATASIZE PUSH0 DUP1 RETURNDATACOPY RETURNDATASIZE PUSH0 REVERT JUMPDEST POP POP POP POP PUSH1 0x40 MLOAD RETURNDATASIZE PUSH1 0x1F NOT PUSH1 0x1F DUP3 ADD AND DUP3 ADD DUP1 PUSH1 0x40 MSTORE POP DUP2 ADD SWAP1 PUSH2 0xE3 SWAP2 SWAP1 PUSH2 0x1BC JUMP JUMPDEST SWAP1 POP DUP1 SWAP2 POP POP SWAP1 JUMP JUMPDEST PUSH20 0xD4FC541236927E2EAF8F27606BD7309C1FC2CBEE PUSH20 0xFFFFFFFFFFFFFFFFFFFFFFFFFFFFFFFFFFFFFFFF AND PUSH4 0x4F2BE91F PUSH1 0x40 MLOAD DUP2 PUSH4 0xFFFFFFFF AND PUSH1 0xE0 SHL DUP2 MSTORE PUSH1 0x4 ADD PUSH0 PUSH1 0x40 MLOAD DUP1 DUP4 SUB DUP2 PUSH0 DUP8 DUP1 EXTCODESIZE ISZERO DUP1 ISZERO PUSH2 0x145 JUMPI PUSH0 DUP1 REVERT JUMPDEST POP GAS CALL ISZERO DUP1 ISZERO PUSH2 0x157 JUMPI RETURNDATASIZE PUSH0 DUP1 RETURNDATACOPY RETURNDATASIZE PUSH0 REVERT JUMPDEST POP POP POP POP JUMP JUMPDEST PUSH0 DUP2 SWAP1 POP SWAP2 SWAP1 POP JUMP JUMPDEST PUSH2 0x16F DUP2 PUSH2 0x15D JUMP JUMPDEST DUP3 MSTORE POP POP JUMP JUMPDEST PUSH0 PUSH1 0x20 DUP3 ADD SWAP1 POP PUSH2 0x188 PUSH0 DUP4 ADD DUP5 PUSH2 0x166 JUMP JUMPDEST SWAP3 SWAP2 POP POP JUMP JUMPDEST PUSH0 DUP1 REVERT JUMPDEST PUSH2 0x19B DUP2 PUSH2 0x15D JUMP JUMPDEST DUP2 EQ PUSH2 0x1A5 JUMPI PUSH0 DUP1 REVERT JUMPDEST POP JUMP JUMPDEST PUSH0 DUP2 MLOAD SWAP1 POP PUSH2 0x1B6 DUP2 PUSH2 0x192 JUMP JUMPDEST SWAP3 SWAP2 POP POP JUMP JUMPDEST PUSH0 PUSH1 0x20 DUP3 DUP5 SUB SLT ISZERO PUSH2 0x1D1 JUMPI PUSH2 0x1D0 PUSH2 0x18E JUMP JUMPDEST JUMPDEST PUSH0 PUSH2 0x1DE DUP5 DUP3 DUP6 ADD PUSH2 0x1A8 JUMP JUMPDEST SWAP2 POP POP SWAP3 SWAP2 POP POP JUMP INVALID LOG2 PUSH5 0x6970667358 0x22 SLT KECCAK256 PUSH2 0xEB42 RETURN 0xD1 ORIGIN 0xCB 0xCB PUSH18 0xE99AA21763CEA43C8E44DEAA2B6B40A8C9D 0x4B SWAP1 SAR NOT 0xE2 PUSH5 0x736F6C6343 STOP ADDMOD BYTE STOP CALLER "
				},
				"gasEstimates": {
					"creation": {
						"codeDepositCost": "108200",
						"executionCost": "151",
						"totalCost": "108351"
					},
					"external": {
						"proxyAdd()": "infinite",
						"proxyGet()": "infinite"
					}
				},
				"methodIdentifiers": {
					"proxyAdd()": "e73cdd75",
					"proxyGet()": "a707bd54"
				}
			},
			"storageLayout": {
				"storage": [],
				"types": null
			},
			"userdoc": {
				"kind": "user",
				"methods": {},
				"version": 1
			}
		}
	}
}