{
	"contracts/Persons.sol": {
		"Persons": {
			"abi": [
				{
					"inputs": [],
					"name": "getPerson",
					"outputs": [
						{
							"internalType": "string",
							"name": "",
							"type": "string"
						},
						{
							"internalType": "uint256",
							"name": "",
							"type": "uint256"
						},
						{
							"internalType": "address",
							"name": "",
							"type": "address"
						}
					],
					"stateMutability": "view",
					"type": "function"
				},
				{
					"inputs": [
						{
							"internalType": "address",
							"name": "",
							"type": "address"
						}
					],
					"name": "persons",
					"outputs": [
						{
							"internalType": "string",
							"name": "name",
							"type": "string"
						},
						{
							"internalType": "uint256",
							"name": "age",
							"type": "uint256"
						},
						{
							"internalType": "address",
							"name": "add",
							"type": "address"
						}
					],
					"stateMutability": "view",
					"type": "function"
				},
				{
					"inputs": [
						{
							"internalType": "uint256",
							"name": "_age",
							"type": "uint256"
						},
						{
							"internalType": "string",
							"name": "_name",
							"type": "string"
						}
					],
					"name": "setPerson",
					"outputs": [],
					"stateMutability": "nonpayable",
					"type": "function"
				}
			],
			"devdoc": {
				"kind": "dev",
				"methods": {},
				"version": 1
			},
			"evm": {
				"assembly": "    /* \"contracts/Persons.sol\":56:567  contract Persons{... */\n  mstore(0x40, 0x80)\n  callvalue\n  dup1\n  iszero\n  tag_1\n  jumpi\n  0x00\n  dup1\n  revert\ntag_1:\n  pop\n  dataSize(sub_0)\n  dup1\n  dataOffset(sub_0)\n  0x00\n  codecopy\n  0x00\n  return\nstop\n\nsub_0: assembly {\n        /* \"contracts/Persons.sol\":56:567  contract Persons{... */\n      mstore(0x40, 0x80)\n      callvalue\n      dup1\n      iszero\n      tag_1\n      jumpi\n      0x00\n      dup1\n      revert\n    tag_1:\n      pop\n      jumpi(tag_2, lt(calldatasize, 0x04))\n      shr(0xe0, calldataload(0x00))\n      dup1\n      0x798ebec4\n      eq\n      tag_3\n      jumpi\n      dup1\n      0x8ada2cf6\n      eq\n      tag_4\n      jumpi\n      dup1\n      0x8ec4dc95\n      eq\n      tag_5\n      jumpi\n    tag_2:\n      0x00\n      dup1\n      revert\n        /* \"contracts/Persons.sol\":206:383  function setPerson(uint256 _age, string memory _name) public {... */\n    tag_3:\n      tag_6\n      0x04\n      dup1\n      calldatasize\n      sub\n      dup2\n      add\n      swap1\n      tag_7\n      swap2\n      swap1\n      tag_8\n      jump\t// in\n    tag_7:\n      tag_9\n      jump\t// in\n    tag_6:\n      stop\n        /* \"contracts/Persons.sol\":160:200  mapping (address=>Person) public persons */\n    tag_4:\n      tag_10\n      0x04\n      dup1\n      calldatasize\n      sub\n      dup2\n      add\n      swap1\n      tag_11\n      swap2\n      swap1\n      tag_12\n      jump\t// in\n    tag_11:\n      tag_13\n      jump\t// in\n    tag_10:\n      mload(0x40)\n      tag_14\n      swap4\n      swap3\n      swap2\n      swap1\n      tag_15\n      jump\t// in\n    tag_14:\n      mload(0x40)\n      dup1\n      swap2\n      sub\n      swap1\n      return\n        /* \"contracts/Persons.sol\":388:565  function getPerson() public view returns (string memory,uint256,address){... */\n    tag_5:\n      tag_16\n      tag_17\n      jump\t// in\n    tag_16:\n      mload(0x40)\n      tag_18\n      swap4\n      swap3\n      swap2\n      swap1\n      tag_15\n      jump\t// in\n    tag_18:\n      mload(0x40)\n      dup1\n      swap2\n      sub\n      swap1\n      return\n        /* \"contracts/Persons.sol\":206:383  function setPerson(uint256 _age, string memory _name) public {... */\n    tag_9:\n        /* \"contracts/Persons.sol\":295:376  Person({... */\n      mload(0x40)\n      dup1\n      0x60\n      add\n      0x40\n      mstore\n      dup1\n        /* \"contracts/Persons.sol\":318:323  _name */\n      dup3\n        /* \"contracts/Persons.sol\":295:376  Person({... */\n      dup2\n      mstore\n      0x20\n      add\n        /* \"contracts/Persons.sol\":338:342  _age */\n      dup4\n        /* \"contracts/Persons.sol\":295:376  Person({... */\n      dup2\n      mstore\n      0x20\n      add\n        /* \"contracts/Persons.sol\":357:367  msg.sender */\n      caller\n        /* \"contracts/Persons.sol\":295:376  Person({... */\n      0xffffffffffffffffffffffffffffffffffffffff\n      and\n      dup2\n      mstore\n      pop\n        /* \"contracts/Persons.sol\":275:282  persons */\n      0x00\n        /* \"contracts/Persons.sol\":275:294  persons[msg.sender] */\n      dup1\n        /* \"contracts/Persons.sol\":283:293  msg.sender */\n      caller\n        /* \"contracts/Persons.sol\":275:294  persons[msg.sender] */\n      0xffffffffffffffffffffffffffffffffffffffff\n      and\n      0xffffffffffffffffffffffffffffffffffffffff\n      and\n      dup2\n      mstore\n      0x20\n      add\n      swap1\n      dup2\n      mstore\n      0x20\n      add\n      0x00\n      keccak256\n        /* \"contracts/Persons.sol\":275:376  persons[msg.sender]=Person({... */\n      0x00\n      dup3\n      add\n      mload\n      dup2\n      0x00\n      add\n      swap1\n      dup2\n      tag_20\n      swap2\n      swap1\n      tag_21\n      jump\t// in\n    tag_20:\n      pop\n      0x20\n      dup3\n      add\n      mload\n      dup2\n      0x01\n      add\n      sstore\n      0x40\n      dup3\n      add\n      mload\n      dup2\n      0x02\n      add\n      exp(0x0100, 0x00)\n      dup2\n      sload\n      dup2\n      0xffffffffffffffffffffffffffffffffffffffff\n      mul\n      not\n      and\n      swap1\n      dup4\n      0xffffffffffffffffffffffffffffffffffffffff\n      and\n      mul\n      or\n      swap1\n      sstore\n      pop\n      swap1\n      pop\n      pop\n        /* \"contracts/Persons.sol\":206:383  function setPerson(uint256 _age, string memory _name) public {... */\n      pop\n      pop\n      jump\t// out\n        /* \"contracts/Persons.sol\":160:200  mapping (address=>Person) public persons */\n    tag_13:\n      mstore(0x20, 0x00)\n      dup1\n      0x00\n      mstore\n      keccak256(0x00, 0x40)\n      0x00\n      swap2\n      pop\n      swap1\n      pop\n      dup1\n      0x00\n      add\n      dup1\n      sload\n      tag_22\n      swap1\n      tag_23\n      jump\t// in\n    tag_22:\n      dup1\n      0x1f\n      add\n      0x20\n      dup1\n      swap2\n      div\n      mul\n      0x20\n      add\n      mload(0x40)\n      swap1\n      dup2\n      add\n      0x40\n      mstore\n      dup1\n      swap3\n      swap2\n      swap1\n      dup2\n      dup2\n      mstore\n      0x20\n      add\n      dup3\n      dup1\n      sload\n      tag_24\n      swap1\n      tag_23\n      jump\t// in\n    tag_24:\n      dup1\n      iszero\n      tag_25\n      jumpi\n      dup1\n      0x1f\n      lt\n      tag_26\n      jumpi\n      0x0100\n      dup1\n      dup4\n      sload\n      div\n      mul\n      dup4\n      mstore\n      swap2\n      0x20\n      add\n      swap2\n      jump(tag_25)\n    tag_26:\n      dup3\n      add\n      swap2\n      swap1\n      0x00\n      mstore\n      keccak256(0x00, 0x20)\n      swap1\n    tag_27:\n      dup2\n      sload\n      dup2\n      mstore\n      swap1\n      0x01\n      add\n      swap1\n      0x20\n      add\n      dup1\n      dup4\n      gt\n      tag_27\n      jumpi\n      dup3\n      swap1\n      sub\n      0x1f\n      and\n      dup3\n      add\n      swap2\n    tag_25:\n      pop\n      pop\n      pop\n      pop\n      pop\n      swap1\n      dup1\n      0x01\n      add\n      sload\n      swap1\n      dup1\n      0x02\n      add\n      0x00\n      swap1\n      sload\n      swap1\n      0x0100\n      exp\n      swap1\n      div\n      0xffffffffffffffffffffffffffffffffffffffff\n      and\n      swap1\n      pop\n      dup4\n      jump\t// out\n        /* \"contracts/Persons.sol\":388:565  function getPerson() public view returns (string memory,uint256,address){... */\n    tag_17:\n        /* \"contracts/Persons.sol\":430:443  string memory */\n      0x60\n        /* \"contracts/Persons.sol\":444:451  uint256 */\n      0x00\n        /* \"contracts/Persons.sol\":452:459  address */\n      dup1\n        /* \"contracts/Persons.sol\":468:488  Person memory person */\n      0x00\n        /* \"contracts/Persons.sol\":489:496  persons */\n      dup1\n        /* \"contracts/Persons.sol\":489:508  persons[msg.sender] */\n      0x00\n        /* \"contracts/Persons.sol\":497:507  msg.sender */\n      caller\n        /* \"contracts/Persons.sol\":489:508  persons[msg.sender] */\n      0xffffffffffffffffffffffffffffffffffffffff\n      and\n      0xffffffffffffffffffffffffffffffffffffffff\n      and\n      dup2\n      mstore\n      0x20\n      add\n      swap1\n      dup2\n      mstore\n      0x20\n      add\n      0x00\n      keccak256\n        /* \"contracts/Persons.sol\":468:508  Person memory person=persons[msg.sender] */\n      mload(0x40)\n      dup1\n      0x60\n      add\n      0x40\n      mstore\n      swap1\n      dup2\n      0x00\n      dup3\n      add\n      dup1\n      sload\n      tag_29\n      swap1\n      tag_23\n      jump\t// in\n    tag_29:\n      dup1\n      0x1f\n      add\n      0x20\n      dup1\n      swap2\n      div\n      mul\n      0x20\n      add\n      mload(0x40)\n      swap1\n      dup2\n      add\n      0x40\n      mstore\n      dup1\n      swap3\n      swap2\n      swap1\n      dup2\n      dup2\n      mstore\n      0x20\n      add\n      dup3\n      dup1\n      sload\n      tag_30\n      swap1\n      tag_23\n      jump\t// in\n    tag_30:\n      dup1\n      iszero\n      tag_31\n      jumpi\n      dup1\n      0x1f\n      lt\n      tag_32\n      jumpi\n      0x0100\n      dup1\n      dup4\n      sload\n      div\n      mul\n      dup4\n      mstore\n      swap2\n      0x20\n      add\n      swap2\n      jump(tag_31)\n    tag_32:\n      dup3\n      add\n      swap2\n      swap1\n      0x00\n      mstore\n      keccak256(0x00, 0x20)\n      swap1\n    tag_33:\n      dup2\n      sload\n      dup2\n      mstore\n      swap1\n      0x01\n      add\n      swap1\n      0x20\n      add\n      dup1\n      dup4\n      gt\n      tag_33\n      jumpi\n      dup3\n      swap1\n      sub\n      0x1f\n      and\n      dup3\n      add\n      swap2\n    tag_31:\n      pop\n      pop\n      pop\n      pop\n      pop\n      dup2\n      mstore\n      0x20\n      add\n      0x01\n      dup3\n      add\n      sload\n      dup2\n      mstore\n      0x20\n      add\n      0x02\n      dup3\n      add\n      0x00\n      swap1\n      sload\n      swap1\n      0x0100\n      exp\n      swap1\n      div\n      0xffffffffffffffffffffffffffffffffffffffff\n      and\n      0xffffffffffffffffffffffffffffffffffffffff\n      and\n      0xffffffffffffffffffffffffffffffffffffffff\n      and\n      dup2\n      mstore\n      pop\n      pop\n      swap1\n      pop\n        /* \"contracts/Persons.sol\":524:530  person */\n      dup1\n        /* \"contracts/Persons.sol\":524:535  person.name */\n      0x00\n      add\n      mload\n        /* \"contracts/Persons.sol\":536:542  person */\n      dup2\n        /* \"contracts/Persons.sol\":536:546  person.age */\n      0x20\n      add\n      mload\n        /* \"contracts/Persons.sol\":547:553  person */\n      dup3\n        /* \"contracts/Persons.sol\":547:557  person.add */\n      0x40\n      add\n      mload\n        /* \"contracts/Persons.sol\":516:558  return (person.name,person.age,person.add) */\n      swap4\n      pop\n      swap4\n      pop\n      swap4\n      pop\n      pop\n        /* \"contracts/Persons.sol\":388:565  function getPerson() public view returns (string memory,uint256,address){... */\n      swap1\n      swap2\n      swap3\n      jump\t// out\n        /* \"#utility.yul\":7:82   */\n    tag_34:\n        /* \"#utility.yul\":40:46   */\n      0x00\n        /* \"#utility.yul\":73:75   */\n      0x40\n        /* \"#utility.yul\":67:76   */\n      mload\n        /* \"#utility.yul\":57:76   */\n      swap1\n      pop\n        /* \"#utility.yul\":7:82   */\n      swap1\n      jump\t// out\n        /* \"#utility.yul\":88:205   */\n    tag_35:\n        /* \"#utility.yul\":197:198   */\n      0x00\n        /* \"#utility.yul\":194:195   */\n      dup1\n        /* \"#utility.yul\":187:199   */\n      revert\n        /* \"#utility.yul\":211:328   */\n    tag_36:\n        /* \"#utility.yul\":320:321   */\n      0x00\n        /* \"#utility.yul\":317:318   */\n      dup1\n        /* \"#utility.yul\":310:322   */\n      revert\n        /* \"#utility.yul\":334:411   */\n    tag_37:\n        /* \"#utility.yul\":371:378   */\n      0x00\n        /* \"#utility.yul\":400:405   */\n      dup2\n        /* \"#utility.yul\":389:405   */\n      swap1\n      pop\n        /* \"#utility.yul\":334:411   */\n      swap2\n      swap1\n      pop\n      jump\t// out\n        /* \"#utility.yul\":417:539   */\n    tag_38:\n        /* \"#utility.yul\":490:514   */\n      tag_82\n        /* \"#utility.yul\":508:513   */\n      dup2\n        /* \"#utility.yul\":490:514   */\n      tag_37\n      jump\t// in\n    tag_82:\n        /* \"#utility.yul\":483:488   */\n      dup2\n        /* \"#utility.yul\":480:515   */\n      eq\n        /* \"#utility.yul\":470:533   */\n      tag_83\n      jumpi\n        /* \"#utility.yul\":529:530   */\n      0x00\n        /* \"#utility.yul\":526:527   */\n      dup1\n        /* \"#utility.yul\":519:531   */\n      revert\n        /* \"#utility.yul\":470:533   */\n    tag_83:\n        /* \"#utility.yul\":417:539   */\n      pop\n      jump\t// out\n        /* \"#utility.yul\":545:684   */\n    tag_39:\n        /* \"#utility.yul\":591:596   */\n      0x00\n        /* \"#utility.yul\":629:635   */\n      dup2\n        /* \"#utility.yul\":616:636   */\n      calldataload\n        /* \"#utility.yul\":607:636   */\n      swap1\n      pop\n        /* \"#utility.yul\":645:678   */\n      tag_85\n        /* \"#utility.yul\":672:677   */\n      dup2\n        /* \"#utility.yul\":645:678   */\n      tag_38\n      jump\t// in\n    tag_85:\n        /* \"#utility.yul\":545:684   */\n      swap3\n      swap2\n      pop\n      pop\n      jump\t// out\n        /* \"#utility.yul\":690:807   */\n    tag_40:\n        /* \"#utility.yul\":799:800   */\n      0x00\n        /* \"#utility.yul\":796:797   */\n      dup1\n        /* \"#utility.yul\":789:801   */\n      revert\n        /* \"#utility.yul\":813:930   */\n    tag_41:\n        /* \"#utility.yul\":922:923   */\n      0x00\n        /* \"#utility.yul\":919:920   */\n      dup1\n        /* \"#utility.yul\":912:924   */\n      revert\n        /* \"#utility.yul\":936:1038   */\n    tag_42:\n        /* \"#utility.yul\":977:983   */\n      0x00\n        /* \"#utility.yul\":1028:1030   */\n      0x1f\n        /* \"#utility.yul\":1024:1031   */\n      not\n        /* \"#utility.yul\":1019:1021   */\n      0x1f\n        /* \"#utility.yul\":1012:1017   */\n      dup4\n        /* \"#utility.yul\":1008:1022   */\n      add\n        /* \"#utility.yul\":1004:1032   */\n      and\n        /* \"#utility.yul\":994:1032   */\n      swap1\n      pop\n        /* \"#utility.yul\":936:1038   */\n      swap2\n      swap1\n      pop\n      jump\t// out\n        /* \"#utility.yul\":1044:1224   */\n    tag_43:\n        /* \"#utility.yul\":1092:1169   */\n      0x4e487b7100000000000000000000000000000000000000000000000000000000\n        /* \"#utility.yul\":1089:1090   */\n      0x00\n        /* \"#utility.yul\":1082:1170   */\n      mstore\n        /* \"#utility.yul\":1189:1193   */\n      0x41\n        /* \"#utility.yul\":1186:1187   */\n      0x04\n        /* \"#utility.yul\":1179:1194   */\n      mstore\n        /* \"#utility.yul\":1213:1217   */\n      0x24\n        /* \"#utility.yul\":1210:1211   */\n      0x00\n        /* \"#utility.yul\":1203:1218   */\n      revert\n        /* \"#utility.yul\":1230:1511   */\n    tag_44:\n        /* \"#utility.yul\":1313:1340   */\n      tag_91\n        /* \"#utility.yul\":1335:1339   */\n      dup3\n        /* \"#utility.yul\":1313:1340   */\n      tag_42\n      jump\t// in\n    tag_91:\n        /* \"#utility.yul\":1305:1311   */\n      dup2\n        /* \"#utility.yul\":1301:1341   */\n      add\n        /* \"#utility.yul\":1443:1449   */\n      dup2\n        /* \"#utility.yul\":1431:1441   */\n      dup2\n        /* \"#utility.yul\":1428:1450   */\n      lt\n        /* \"#utility.yul\":1407:1425   */\n      0xffffffffffffffff\n        /* \"#utility.yul\":1395:1405   */\n      dup3\n        /* \"#utility.yul\":1392:1426   */\n      gt\n        /* \"#utility.yul\":1389:1451   */\n      or\n        /* \"#utility.yul\":1386:1474   */\n      iszero\n      tag_92\n      jumpi\n        /* \"#utility.yul\":1454:1472   */\n      tag_93\n      tag_43\n      jump\t// in\n    tag_93:\n        /* \"#utility.yul\":1386:1474   */\n    tag_92:\n        /* \"#utility.yul\":1494:1504   */\n      dup1\n        /* \"#utility.yul\":1490:1492   */\n      0x40\n        /* \"#utility.yul\":1483:1505   */\n      mstore\n        /* \"#utility.yul\":1273:1511   */\n      pop\n        /* \"#utility.yul\":1230:1511   */\n      pop\n      pop\n      jump\t// out\n        /* \"#utility.yul\":1517:1646   */\n    tag_45:\n        /* \"#utility.yul\":1551:1557   */\n      0x00\n        /* \"#utility.yul\":1578:1598   */\n      tag_95\n      tag_34\n      jump\t// in\n    tag_95:\n        /* \"#utility.yul\":1568:1598   */\n      swap1\n      pop\n        /* \"#utility.yul\":1607:1640   */\n      tag_96\n        /* \"#utility.yul\":1635:1639   */\n      dup3\n        /* \"#utility.yul\":1627:1633   */\n      dup3\n        /* \"#utility.yul\":1607:1640   */\n      tag_44\n      jump\t// in\n    tag_96:\n        /* \"#utility.yul\":1517:1646   */\n      swap2\n      swap1\n      pop\n      jump\t// out\n        /* \"#utility.yul\":1652:1960   */\n    tag_46:\n        /* \"#utility.yul\":1714:1718   */\n      0x00\n        /* \"#utility.yul\":1804:1822   */\n      0xffffffffffffffff\n        /* \"#utility.yul\":1796:1802   */\n      dup3\n        /* \"#utility.yul\":1793:1823   */\n      gt\n        /* \"#utility.yul\":1790:1846   */\n      iszero\n      tag_98\n      jumpi\n        /* \"#utility.yul\":1826:1844   */\n      tag_99\n      tag_43\n      jump\t// in\n    tag_99:\n        /* \"#utility.yul\":1790:1846   */\n    tag_98:\n        /* \"#utility.yul\":1864:1893   */\n      tag_100\n        /* \"#utility.yul\":1886:1892   */\n      dup3\n        /* \"#utility.yul\":1864:1893   */\n      tag_42\n      jump\t// in\n    tag_100:\n        /* \"#utility.yul\":1856:1893   */\n      swap1\n      pop\n        /* \"#utility.yul\":1948:1952   */\n      0x20\n        /* \"#utility.yul\":1942:1946   */\n      dup2\n        /* \"#utility.yul\":1938:1953   */\n      add\n        /* \"#utility.yul\":1930:1953   */\n      swap1\n      pop\n        /* \"#utility.yul\":1652:1960   */\n      swap2\n      swap1\n      pop\n      jump\t// out\n        /* \"#utility.yul\":1966:2114   */\n    tag_47:\n        /* \"#utility.yul\":2064:2070   */\n      dup3\n        /* \"#utility.yul\":2059:2062   */\n      dup2\n        /* \"#utility.yul\":2054:2057   */\n      dup4\n        /* \"#utility.yul\":2041:2071   */\n      calldatacopy\n        /* \"#utility.yul\":2105:2106   */\n      0x00\n        /* \"#utility.yul\":2096:2102   */\n      dup4\n        /* \"#utility.yul\":2091:2094   */\n      dup4\n        /* \"#utility.yul\":2087:2103   */\n      add\n        /* \"#utility.yul\":2080:2107   */\n      mstore\n        /* \"#utility.yul\":1966:2114   */\n      pop\n      pop\n      pop\n      jump\t// out\n        /* \"#utility.yul\":2120:2545   */\n    tag_48:\n        /* \"#utility.yul\":2198:2203   */\n      0x00\n        /* \"#utility.yul\":2223:2289   */\n      tag_103\n        /* \"#utility.yul\":2239:2288   */\n      tag_104\n        /* \"#utility.yul\":2281:2287   */\n      dup5\n        /* \"#utility.yul\":2239:2288   */\n      tag_46\n      jump\t// in\n    tag_104:\n        /* \"#utility.yul\":2223:2289   */\n      tag_45\n      jump\t// in\n    tag_103:\n        /* \"#utility.yul\":2214:2289   */\n      swap1\n      pop\n        /* \"#utility.yul\":2312:2318   */\n      dup3\n        /* \"#utility.yul\":2305:2310   */\n      dup2\n        /* \"#utility.yul\":2298:2319   */\n      mstore\n        /* \"#utility.yul\":2350:2354   */\n      0x20\n        /* \"#utility.yul\":2343:2348   */\n      dup2\n        /* \"#utility.yul\":2339:2355   */\n      add\n        /* \"#utility.yul\":2388:2391   */\n      dup5\n        /* \"#utility.yul\":2379:2385   */\n      dup5\n        /* \"#utility.yul\":2374:2377   */\n      dup5\n        /* \"#utility.yul\":2370:2386   */\n      add\n        /* \"#utility.yul\":2367:2392   */\n      gt\n        /* \"#utility.yul\":2364:2476   */\n      iszero\n      tag_105\n      jumpi\n        /* \"#utility.yul\":2395:2474   */\n      tag_106\n      tag_41\n      jump\t// in\n    tag_106:\n        /* \"#utility.yul\":2364:2476   */\n    tag_105:\n        /* \"#utility.yul\":2485:2539   */\n      tag_107\n        /* \"#utility.yul\":2532:2538   */\n      dup5\n        /* \"#utility.yul\":2527:2530   */\n      dup3\n        /* \"#utility.yul\":2522:2525   */\n      dup6\n        /* \"#utility.yul\":2485:2539   */\n      tag_47\n      jump\t// in\n    tag_107:\n        /* \"#utility.yul\":2204:2545   */\n      pop\n        /* \"#utility.yul\":2120:2545   */\n      swap4\n      swap3\n      pop\n      pop\n      pop\n      jump\t// out\n        /* \"#utility.yul\":2565:2905   */\n    tag_49:\n        /* \"#utility.yul\":2621:2626   */\n      0x00\n        /* \"#utility.yul\":2670:2673   */\n      dup3\n        /* \"#utility.yul\":2663:2667   */\n      0x1f\n        /* \"#utility.yul\":2655:2661   */\n      dup4\n        /* \"#utility.yul\":2651:2668   */\n      add\n        /* \"#utility.yul\":2647:2674   */\n      slt\n        /* \"#utility.yul\":2637:2759   */\n      tag_109\n      jumpi\n        /* \"#utility.yul\":2678:2757   */\n      tag_110\n      tag_40\n      jump\t// in\n    tag_110:\n        /* \"#utility.yul\":2637:2759   */\n    tag_109:\n        /* \"#utility.yul\":2795:2801   */\n      dup2\n        /* \"#utility.yul\":2782:2802   */\n      calldataload\n        /* \"#utility.yul\":2820:2899   */\n      tag_111\n        /* \"#utility.yul\":2895:2898   */\n      dup5\n        /* \"#utility.yul\":2887:2893   */\n      dup3\n        /* \"#utility.yul\":2880:2884   */\n      0x20\n        /* \"#utility.yul\":2872:2878   */\n      dup7\n        /* \"#utility.yul\":2868:2885   */\n      add\n        /* \"#utility.yul\":2820:2899   */\n      tag_48\n      jump\t// in\n    tag_111:\n        /* \"#utility.yul\":2811:2899   */\n      swap2\n      pop\n        /* \"#utility.yul\":2627:2905   */\n      pop\n        /* \"#utility.yul\":2565:2905   */\n      swap3\n      swap2\n      pop\n      pop\n      jump\t// out\n        /* \"#utility.yul\":2911:3565   */\n    tag_8:\n        /* \"#utility.yul\":2989:2995   */\n      0x00\n        /* \"#utility.yul\":2997:3003   */\n      dup1\n        /* \"#utility.yul\":3046:3048   */\n      0x40\n        /* \"#utility.yul\":3034:3043   */\n      dup4\n        /* \"#utility.yul\":3025:3032   */\n      dup6\n        /* \"#utility.yul\":3021:3044   */\n      sub\n        /* \"#utility.yul\":3017:3049   */\n      slt\n        /* \"#utility.yul\":3014:3133   */\n      iszero\n      tag_113\n      jumpi\n        /* \"#utility.yul\":3052:3131   */\n      tag_114\n      tag_35\n      jump\t// in\n    tag_114:\n        /* \"#utility.yul\":3014:3133   */\n    tag_113:\n        /* \"#utility.yul\":3172:3173   */\n      0x00\n        /* \"#utility.yul\":3197:3250   */\n      tag_115\n        /* \"#utility.yul\":3242:3249   */\n      dup6\n        /* \"#utility.yul\":3233:3239   */\n      dup3\n        /* \"#utility.yul\":3222:3231   */\n      dup7\n        /* \"#utility.yul\":3218:3240   */\n      add\n        /* \"#utility.yul\":3197:3250   */\n      tag_39\n      jump\t// in\n    tag_115:\n        /* \"#utility.yul\":3187:3250   */\n      swap3\n      pop\n        /* \"#utility.yul\":3143:3260   */\n      pop\n        /* \"#utility.yul\":3327:3329   */\n      0x20\n        /* \"#utility.yul\":3316:3325   */\n      dup4\n        /* \"#utility.yul\":3312:3330   */\n      add\n        /* \"#utility.yul\":3299:3331   */\n      calldataload\n        /* \"#utility.yul\":3358:3376   */\n      0xffffffffffffffff\n        /* \"#utility.yul\":3350:3356   */\n      dup2\n        /* \"#utility.yul\":3347:3377   */\n      gt\n        /* \"#utility.yul\":3344:3461   */\n      iszero\n      tag_116\n      jumpi\n        /* \"#utility.yul\":3380:3459   */\n      tag_117\n      tag_36\n      jump\t// in\n    tag_117:\n        /* \"#utility.yul\":3344:3461   */\n    tag_116:\n        /* \"#utility.yul\":3485:3548   */\n      tag_118\n        /* \"#utility.yul\":3540:3547   */\n      dup6\n        /* \"#utility.yul\":3531:3537   */\n      dup3\n        /* \"#utility.yul\":3520:3529   */\n      dup7\n        /* \"#utility.yul\":3516:3538   */\n      add\n        /* \"#utility.yul\":3485:3548   */\n      tag_49\n      jump\t// in\n    tag_118:\n        /* \"#utility.yul\":3475:3548   */\n      swap2\n      pop\n        /* \"#utility.yul\":3270:3558   */\n      pop\n        /* \"#utility.yul\":2911:3565   */\n      swap3\n      pop\n      swap3\n      swap1\n      pop\n      jump\t// out\n        /* \"#utility.yul\":3571:3697   */\n    tag_50:\n        /* \"#utility.yul\":3608:3615   */\n      0x00\n        /* \"#utility.yul\":3648:3690   */\n      0xffffffffffffffffffffffffffffffffffffffff\n        /* \"#utility.yul\":3641:3646   */\n      dup3\n        /* \"#utility.yul\":3637:3691   */\n      and\n        /* \"#utility.yul\":3626:3691   */\n      swap1\n      pop\n        /* \"#utility.yul\":3571:3697   */\n      swap2\n      swap1\n      pop\n      jump\t// out\n        /* \"#utility.yul\":3703:3799   */\n    tag_51:\n        /* \"#utility.yul\":3740:3747   */\n      0x00\n        /* \"#utility.yul\":3769:3793   */\n      tag_121\n        /* \"#utility.yul\":3787:3792   */\n      dup3\n        /* \"#utility.yul\":3769:3793   */\n      tag_50\n      jump\t// in\n    tag_121:\n        /* \"#utility.yul\":3758:3793   */\n      swap1\n      pop\n        /* \"#utility.yul\":3703:3799   */\n      swap2\n      swap1\n      pop\n      jump\t// out\n        /* \"#utility.yul\":3805:3927   */\n    tag_52:\n        /* \"#utility.yul\":3878:3902   */\n      tag_123\n        /* \"#utility.yul\":3896:3901   */\n      dup2\n        /* \"#utility.yul\":3878:3902   */\n      tag_51\n      jump\t// in\n    tag_123:\n        /* \"#utility.yul\":3871:3876   */\n      dup2\n        /* \"#utility.yul\":3868:3903   */\n      eq\n        /* \"#utility.yul\":3858:3921   */\n      tag_124\n      jumpi\n        /* \"#utility.yul\":3917:3918   */\n      0x00\n        /* \"#utility.yul\":3914:3915   */\n      dup1\n        /* \"#utility.yul\":3907:3919   */\n      revert\n        /* \"#utility.yul\":3858:3921   */\n    tag_124:\n        /* \"#utility.yul\":3805:3927   */\n      pop\n      jump\t// out\n        /* \"#utility.yul\":3933:4072   */\n    tag_53:\n        /* \"#utility.yul\":3979:3984   */\n      0x00\n        /* \"#utility.yul\":4017:4023   */\n      dup2\n        /* \"#utility.yul\":4004:4024   */\n      calldataload\n        /* \"#utility.yul\":3995:4024   */\n      swap1\n      pop\n        /* \"#utility.yul\":4033:4066   */\n      tag_126\n        /* \"#utility.yul\":4060:4065   */\n      dup2\n        /* \"#utility.yul\":4033:4066   */\n      tag_52\n      jump\t// in\n    tag_126:\n        /* \"#utility.yul\":3933:4072   */\n      swap3\n      swap2\n      pop\n      pop\n      jump\t// out\n        /* \"#utility.yul\":4078:4407   */\n    tag_12:\n        /* \"#utility.yul\":4137:4143   */\n      0x00\n        /* \"#utility.yul\":4186:4188   */\n      0x20\n        /* \"#utility.yul\":4174:4183   */\n      dup3\n        /* \"#utility.yul\":4165:4172   */\n      dup5\n        /* \"#utility.yul\":4161:4184   */\n      sub\n        /* \"#utility.yul\":4157:4189   */\n      slt\n        /* \"#utility.yul\":4154:4273   */\n      iszero\n      tag_128\n      jumpi\n        /* \"#utility.yul\":4192:4271   */\n      tag_129\n      tag_35\n      jump\t// in\n    tag_129:\n        /* \"#utility.yul\":4154:4273   */\n    tag_128:\n        /* \"#utility.yul\":4312:4313   */\n      0x00\n        /* \"#utility.yul\":4337:4390   */\n      tag_130\n        /* \"#utility.yul\":4382:4389   */\n      dup5\n        /* \"#utility.yul\":4373:4379   */\n      dup3\n        /* \"#utility.yul\":4362:4371   */\n      dup6\n        /* \"#utility.yul\":4358:4380   */\n      add\n        /* \"#utility.yul\":4337:4390   */\n      tag_53\n      jump\t// in\n    tag_130:\n        /* \"#utility.yul\":4327:4390   */\n      swap2\n      pop\n        /* \"#utility.yul\":4283:4400   */\n      pop\n        /* \"#utility.yul\":4078:4407   */\n      swap3\n      swap2\n      pop\n      pop\n      jump\t// out\n        /* \"#utility.yul\":4413:4512   */\n    tag_54:\n        /* \"#utility.yul\":4465:4471   */\n      0x00\n        /* \"#utility.yul\":4499:4504   */\n      dup2\n        /* \"#utility.yul\":4493:4505   */\n      mload\n        /* \"#utility.yul\":4483:4505   */\n      swap1\n      pop\n        /* \"#utility.yul\":4413:4512   */\n      swap2\n      swap1\n      pop\n      jump\t// out\n        /* \"#utility.yul\":4518:4687   */\n    tag_55:\n        /* \"#utility.yul\":4602:4613   */\n      0x00\n        /* \"#utility.yul\":4636:4642   */\n      dup3\n        /* \"#utility.yul\":4631:4634   */\n      dup3\n        /* \"#utility.yul\":4624:4643   */\n      mstore\n        /* \"#utility.yul\":4676:4680   */\n      0x20\n        /* \"#utility.yul\":4671:4674   */\n      dup3\n        /* \"#utility.yul\":4667:4681   */\n      add\n        /* \"#utility.yul\":4652:4681   */\n      swap1\n      pop\n        /* \"#utility.yul\":4518:4687   */\n      swap3\n      swap2\n      pop\n      pop\n      jump\t// out\n        /* \"#utility.yul\":4693:4832   */\n    tag_56:\n        /* \"#utility.yul\":4782:4788   */\n      dup3\n        /* \"#utility.yul\":4777:4780   */\n      dup2\n        /* \"#utility.yul\":4772:4775   */\n      dup4\n        /* \"#utility.yul\":4766:4789   */\n      mcopy\n        /* \"#utility.yul\":4823:4824   */\n      0x00\n        /* \"#utility.yul\":4814:4820   */\n      dup4\n        /* \"#utility.yul\":4809:4812   */\n      dup4\n        /* \"#utility.yul\":4805:4821   */\n      add\n        /* \"#utility.yul\":4798:4825   */\n      mstore\n        /* \"#utility.yul\":4693:4832   */\n      pop\n      pop\n      pop\n      jump\t// out\n        /* \"#utility.yul\":4838:5215   */\n    tag_57:\n        /* \"#utility.yul\":4926:4929   */\n      0x00\n        /* \"#utility.yul\":4954:4993   */\n      tag_135\n        /* \"#utility.yul\":4987:4992   */\n      dup3\n        /* \"#utility.yul\":4954:4993   */\n      tag_54\n      jump\t// in\n    tag_135:\n        /* \"#utility.yul\":5009:5080   */\n      tag_136\n        /* \"#utility.yul\":5073:5079   */\n      dup2\n        /* \"#utility.yul\":5068:5071   */\n      dup6\n        /* \"#utility.yul\":5009:5080   */\n      tag_55\n      jump\t// in\n    tag_136:\n        /* \"#utility.yul\":5002:5080   */\n      swap4\n      pop\n        /* \"#utility.yul\":5089:5154   */\n      tag_137\n        /* \"#utility.yul\":5147:5153   */\n      dup2\n        /* \"#utility.yul\":5142:5145   */\n      dup6\n        /* \"#utility.yul\":5135:5139   */\n      0x20\n        /* \"#utility.yul\":5128:5133   */\n      dup7\n        /* \"#utility.yul\":5124:5140   */\n      add\n        /* \"#utility.yul\":5089:5154   */\n      tag_56\n      jump\t// in\n    tag_137:\n        /* \"#utility.yul\":5179:5208   */\n      tag_138\n        /* \"#utility.yul\":5201:5207   */\n      dup2\n        /* \"#utility.yul\":5179:5208   */\n      tag_42\n      jump\t// in\n    tag_138:\n        /* \"#utility.yul\":5174:5177   */\n      dup5\n        /* \"#utility.yul\":5170:5209   */\n      add\n        /* \"#utility.yul\":5163:5209   */\n      swap2\n      pop\n        /* \"#utility.yul\":4930:5215   */\n      pop\n        /* \"#utility.yul\":4838:5215   */\n      swap3\n      swap2\n      pop\n      pop\n      jump\t// out\n        /* \"#utility.yul\":5221:5339   */\n    tag_58:\n        /* \"#utility.yul\":5308:5332   */\n      tag_140\n        /* \"#utility.yul\":5326:5331   */\n      dup2\n        /* \"#utility.yul\":5308:5332   */\n      tag_37\n      jump\t// in\n    tag_140:\n        /* \"#utility.yul\":5303:5306   */\n      dup3\n        /* \"#utility.yul\":5296:5333   */\n      mstore\n        /* \"#utility.yul\":5221:5339   */\n      pop\n      pop\n      jump\t// out\n        /* \"#utility.yul\":5345:5463   */\n    tag_59:\n        /* \"#utility.yul\":5432:5456   */\n      tag_142\n        /* \"#utility.yul\":5450:5455   */\n      dup2\n        /* \"#utility.yul\":5432:5456   */\n      tag_51\n      jump\t// in\n    tag_142:\n        /* \"#utility.yul\":5427:5430   */\n      dup3\n        /* \"#utility.yul\":5420:5457   */\n      mstore\n        /* \"#utility.yul\":5345:5463   */\n      pop\n      pop\n      jump\t// out\n        /* \"#utility.yul\":5469:6002   */\n    tag_15:\n        /* \"#utility.yul\":5638:5642   */\n      0x00\n        /* \"#utility.yul\":5676:5678   */\n      0x60\n        /* \"#utility.yul\":5665:5674   */\n      dup3\n        /* \"#utility.yul\":5661:5679   */\n      add\n        /* \"#utility.yul\":5653:5679   */\n      swap1\n      pop\n        /* \"#utility.yul\":5725:5734   */\n      dup2\n        /* \"#utility.yul\":5719:5723   */\n      dup2\n        /* \"#utility.yul\":5715:5735   */\n      sub\n        /* \"#utility.yul\":5711:5712   */\n      0x00\n        /* \"#utility.yul\":5700:5709   */\n      dup4\n        /* \"#utility.yul\":5696:5713   */\n      add\n        /* \"#utility.yul\":5689:5736   */\n      mstore\n        /* \"#utility.yul\":5753:5831   */\n      tag_144\n        /* \"#utility.yul\":5826:5830   */\n      dup2\n        /* \"#utility.yul\":5817:5823   */\n      dup7\n        /* \"#utility.yul\":5753:5831   */\n      tag_57\n      jump\t// in\n    tag_144:\n        /* \"#utility.yul\":5745:5831   */\n      swap1\n      pop\n        /* \"#utility.yul\":5841:5913   */\n      tag_145\n        /* \"#utility.yul\":5909:5911   */\n      0x20\n        /* \"#utility.yul\":5898:5907   */\n      dup4\n        /* \"#utility.yul\":5894:5912   */\n      add\n        /* \"#utility.yul\":5885:5891   */\n      dup6\n        /* \"#utility.yul\":5841:5913   */\n      tag_58\n      jump\t// in\n    tag_145:\n        /* \"#utility.yul\":5923:5995   */\n      tag_146\n        /* \"#utility.yul\":5991:5993   */\n      0x40\n        /* \"#utility.yul\":5980:5989   */\n      dup4\n        /* \"#utility.yul\":5976:5994   */\n      add\n        /* \"#utility.yul\":5967:5973   */\n      dup5\n        /* \"#utility.yul\":5923:5995   */\n      tag_59\n      jump\t// in\n    tag_146:\n        /* \"#utility.yul\":5469:6002   */\n      swap5\n      swap4\n      pop\n      pop\n      pop\n      pop\n      jump\t// out\n        /* \"#utility.yul\":6008:6188   */\n    tag_60:\n        /* \"#utility.yul\":6056:6133   */\n      0x4e487b7100000000000000000000000000000000000000000000000000000000\n        /* \"#utility.yul\":6053:6054   */\n      0x00\n        /* \"#utility.yul\":6046:6134   */\n      mstore\n        /* \"#utility.yul\":6153:6157   */\n      0x22\n        /* \"#utility.yul\":6150:6151   */\n      0x04\n        /* \"#utility.yul\":6143:6158   */\n      mstore\n        /* \"#utility.yul\":6177:6181   */\n      0x24\n        /* \"#utility.yul\":6174:6175   */\n      0x00\n        /* \"#utility.yul\":6167:6182   */\n      revert\n        /* \"#utility.yul\":6194:6514   */\n    tag_23:\n        /* \"#utility.yul\":6238:6244   */\n      0x00\n        /* \"#utility.yul\":6275:6276   */\n      0x02\n        /* \"#utility.yul\":6269:6273   */\n      dup3\n        /* \"#utility.yul\":6265:6277   */\n      div\n        /* \"#utility.yul\":6255:6277   */\n      swap1\n      pop\n        /* \"#utility.yul\":6322:6323   */\n      0x01\n        /* \"#utility.yul\":6316:6320   */\n      dup3\n        /* \"#utility.yul\":6312:6324   */\n      and\n        /* \"#utility.yul\":6343:6361   */\n      dup1\n        /* \"#utility.yul\":6333:6414   */\n      tag_149\n      jumpi\n        /* \"#utility.yul\":6399:6403   */\n      0x7f\n        /* \"#utility.yul\":6391:6397   */\n      dup3\n        /* \"#utility.yul\":6387:6404   */\n      and\n        /* \"#utility.yul\":6377:6404   */\n      swap2\n      pop\n        /* \"#utility.yul\":6333:6414   */\n    tag_149:\n        /* \"#utility.yul\":6461:6463   */\n      0x20\n        /* \"#utility.yul\":6453:6459   */\n      dup3\n        /* \"#utility.yul\":6450:6464   */\n      lt\n        /* \"#utility.yul\":6430:6448   */\n      dup2\n        /* \"#utility.yul\":6427:6465   */\n      sub\n        /* \"#utility.yul\":6424:6508   */\n      tag_150\n      jumpi\n        /* \"#utility.yul\":6480:6498   */\n      tag_151\n      tag_60\n      jump\t// in\n    tag_151:\n        /* \"#utility.yul\":6424:6508   */\n    tag_150:\n        /* \"#utility.yul\":6245:6514   */\n      pop\n        /* \"#utility.yul\":6194:6514   */\n      swap2\n      swap1\n      pop\n      jump\t// out\n        /* \"#utility.yul\":6520:6661   */\n    tag_61:\n        /* \"#utility.yul\":6569:6573   */\n      0x00\n        /* \"#utility.yul\":6592:6595   */\n      dup2\n        /* \"#utility.yul\":6584:6595   */\n      swap1\n      pop\n        /* \"#utility.yul\":6615:6618   */\n      dup2\n        /* \"#utility.yul\":6612:6613   */\n      0x00\n        /* \"#utility.yul\":6605:6619   */\n      mstore\n        /* \"#utility.yul\":6649:6653   */\n      0x20\n        /* \"#utility.yul\":6646:6647   */\n      0x00\n        /* \"#utility.yul\":6636:6654   */\n      keccak256\n        /* \"#utility.yul\":6628:6654   */\n      swap1\n      pop\n        /* \"#utility.yul\":6520:6661   */\n      swap2\n      swap1\n      pop\n      jump\t// out\n        /* \"#utility.yul\":6667:6760   */\n    tag_62:\n        /* \"#utility.yul\":6704:6710   */\n      0x00\n        /* \"#utility.yul\":6751:6753   */\n      0x20\n        /* \"#utility.yul\":6746:6748   */\n      0x1f\n        /* \"#utility.yul\":6739:6744   */\n      dup4\n        /* \"#utility.yul\":6735:6749   */\n      add\n        /* \"#utility.yul\":6731:6754   */\n      div\n        /* \"#utility.yul\":6721:6754   */\n      swap1\n      pop\n        /* \"#utility.yul\":6667:6760   */\n      swap2\n      swap1\n      pop\n      jump\t// out\n        /* \"#utility.yul\":6766:6873   */\n    tag_63:\n        /* \"#utility.yul\":6810:6818   */\n      0x00\n        /* \"#utility.yul\":6860:6865   */\n      dup3\n        /* \"#utility.yul\":6854:6858   */\n      dup3\n        /* \"#utility.yul\":6850:6866   */\n      shl\n        /* \"#utility.yul\":6829:6866   */\n      swap1\n      pop\n        /* \"#utility.yul\":6766:6873   */\n      swap3\n      swap2\n      pop\n      pop\n      jump\t// out\n        /* \"#utility.yul\":6879:7272   */\n    tag_64:\n        /* \"#utility.yul\":6948:6954   */\n      0x00\n        /* \"#utility.yul\":6998:6999   */\n      0x08\n        /* \"#utility.yul\":6986:6996   */\n      dup4\n        /* \"#utility.yul\":6982:7000   */\n      mul\n        /* \"#utility.yul\":7021:7118   */\n      tag_156\n        /* \"#utility.yul\":7051:7117   */\n      0xffffffffffffffffffffffffffffffffffffffffffffffffffffffffffffffff\n        /* \"#utility.yul\":7040:7049   */\n      dup3\n        /* \"#utility.yul\":7021:7118   */\n      tag_63\n      jump\t// in\n    tag_156:\n        /* \"#utility.yul\":7139:7178   */\n      tag_157\n        /* \"#utility.yul\":7169:7177   */\n      dup7\n        /* \"#utility.yul\":7158:7167   */\n      dup4\n        /* \"#utility.yul\":7139:7178   */\n      tag_63\n      jump\t// in\n    tag_157:\n        /* \"#utility.yul\":7127:7178   */\n      swap6\n      pop\n        /* \"#utility.yul\":7211:7215   */\n      dup1\n        /* \"#utility.yul\":7207:7216   */\n      not\n        /* \"#utility.yul\":7200:7205   */\n      dup5\n        /* \"#utility.yul\":7196:7217   */\n      and\n        /* \"#utility.yul\":7187:7217   */\n      swap4\n      pop\n        /* \"#utility.yul\":7260:7264   */\n      dup1\n        /* \"#utility.yul\":7250:7258   */\n      dup7\n        /* \"#utility.yul\":7246:7265   */\n      and\n        /* \"#utility.yul\":7239:7244   */\n      dup5\n        /* \"#utility.yul\":7236:7266   */\n      or\n        /* \"#utility.yul\":7226:7266   */\n      swap3\n      pop\n        /* \"#utility.yul\":6955:7272   */\n      pop\n      pop\n        /* \"#utility.yul\":6879:7272   */\n      swap4\n      swap3\n      pop\n      pop\n      pop\n      jump\t// out\n        /* \"#utility.yul\":7278:7338   */\n    tag_65:\n        /* \"#utility.yul\":7306:7309   */\n      0x00\n        /* \"#utility.yul\":7327:7332   */\n      dup2\n        /* \"#utility.yul\":7320:7332   */\n      swap1\n      pop\n        /* \"#utility.yul\":7278:7338   */\n      swap2\n      swap1\n      pop\n      jump\t// out\n        /* \"#utility.yul\":7344:7486   */\n    tag_66:\n        /* \"#utility.yul\":7394:7403   */\n      0x00\n        /* \"#utility.yul\":7427:7480   */\n      tag_160\n        /* \"#utility.yul\":7445:7479   */\n      tag_161\n        /* \"#utility.yul\":7454:7478   */\n      tag_162\n        /* \"#utility.yul\":7472:7477   */\n      dup5\n        /* \"#utility.yul\":7454:7478   */\n      tag_37\n      jump\t// in\n    tag_162:\n        /* \"#utility.yul\":7445:7479   */\n      tag_65\n      jump\t// in\n    tag_161:\n        /* \"#utility.yul\":7427:7480   */\n      tag_37\n      jump\t// in\n    tag_160:\n        /* \"#utility.yul\":7414:7480   */\n      swap1\n      pop\n        /* \"#utility.yul\":7344:7486   */\n      swap2\n      swap1\n      pop\n      jump\t// out\n        /* \"#utility.yul\":7492:7567   */\n    tag_67:\n        /* \"#utility.yul\":7535:7538   */\n      0x00\n        /* \"#utility.yul\":7556:7561   */\n      dup2\n        /* \"#utility.yul\":7549:7561   */\n      swap1\n      pop\n        /* \"#utility.yul\":7492:7567   */\n      swap2\n      swap1\n      pop\n      jump\t// out\n        /* \"#utility.yul\":7573:7842   */\n    tag_68:\n        /* \"#utility.yul\":7683:7722   */\n      tag_165\n        /* \"#utility.yul\":7714:7721   */\n      dup4\n        /* \"#utility.yul\":7683:7722   */\n      tag_66\n      jump\t// in\n    tag_165:\n        /* \"#utility.yul\":7744:7835   */\n      tag_166\n        /* \"#utility.yul\":7793:7834   */\n      tag_167\n        /* \"#utility.yul\":7817:7833   */\n      dup3\n        /* \"#utility.yul\":7793:7834   */\n      tag_67\n      jump\t// in\n    tag_167:\n        /* \"#utility.yul\":7785:7791   */\n      dup5\n        /* \"#utility.yul\":7778:7782   */\n      dup5\n        /* \"#utility.yul\":7772:7783   */\n      sload\n        /* \"#utility.yul\":7744:7835   */\n      tag_64\n      jump\t// in\n    tag_166:\n        /* \"#utility.yul\":7738:7742   */\n      dup3\n        /* \"#utility.yul\":7731:7836   */\n      sstore\n        /* \"#utility.yul\":7649:7842   */\n      pop\n        /* \"#utility.yul\":7573:7842   */\n      pop\n      pop\n      pop\n      jump\t// out\n        /* \"#utility.yul\":7848:7921   */\n    tag_69:\n        /* \"#utility.yul\":7893:7896   */\n      0x00\n        /* \"#utility.yul\":7848:7921   */\n      swap1\n      jump\t// out\n        /* \"#utility.yul\":7927:8116   */\n    tag_70:\n        /* \"#utility.yul\":8004:8036   */\n      tag_170\n      tag_69\n      jump\t// in\n    tag_170:\n        /* \"#utility.yul\":8045:8110   */\n      tag_171\n        /* \"#utility.yul\":8103:8109   */\n      dup2\n        /* \"#utility.yul\":8095:8101   */\n      dup5\n        /* \"#utility.yul\":8089:8093   */\n      dup5\n        /* \"#utility.yul\":8045:8110   */\n      tag_68\n      jump\t// in\n    tag_171:\n        /* \"#utility.yul\":7980:8116   */\n      pop\n        /* \"#utility.yul\":7927:8116   */\n      pop\n      pop\n      jump\t// out\n        /* \"#utility.yul\":8122:8308   */\n    tag_71:\n        /* \"#utility.yul\":8182:8302   */\n    tag_173:\n        /* \"#utility.yul\":8199:8202   */\n      dup2\n        /* \"#utility.yul\":8192:8197   */\n      dup2\n        /* \"#utility.yul\":8189:8203   */\n      lt\n        /* \"#utility.yul\":8182:8302   */\n      iszero\n      tag_175\n      jumpi\n        /* \"#utility.yul\":8253:8292   */\n      tag_176\n        /* \"#utility.yul\":8290:8291   */\n      0x00\n        /* \"#utility.yul\":8283:8288   */\n      dup3\n        /* \"#utility.yul\":8253:8292   */\n      tag_70\n      jump\t// in\n    tag_176:\n        /* \"#utility.yul\":8226:8227   */\n      0x01\n        /* \"#utility.yul\":8219:8224   */\n      dup2\n        /* \"#utility.yul\":8215:8228   */\n      add\n        /* \"#utility.yul\":8206:8228   */\n      swap1\n      pop\n        /* \"#utility.yul\":8182:8302   */\n      jump(tag_173)\n    tag_175:\n        /* \"#utility.yul\":8122:8308   */\n      pop\n      pop\n      jump\t// out\n        /* \"#utility.yul\":8314:8857   */\n    tag_72:\n        /* \"#utility.yul\":8415:8417   */\n      0x1f\n        /* \"#utility.yul\":8410:8413   */\n      dup3\n        /* \"#utility.yul\":8407:8418   */\n      gt\n        /* \"#utility.yul\":8404:8850   */\n      iszero\n      tag_178\n      jumpi\n        /* \"#utility.yul\":8449:8487   */\n      tag_179\n        /* \"#utility.yul\":8481:8486   */\n      dup2\n        /* \"#utility.yul\":8449:8487   */\n      tag_61\n      jump\t// in\n    tag_179:\n        /* \"#utility.yul\":8533:8562   */\n      tag_180\n        /* \"#utility.yul\":8551:8561   */\n      dup5\n        /* \"#utility.yul\":8533:8562   */\n      tag_62\n      jump\t// in\n    tag_180:\n        /* \"#utility.yul\":8523:8531   */\n      dup2\n        /* \"#utility.yul\":8519:8563   */\n      add\n        /* \"#utility.yul\":8716:8718   */\n      0x20\n        /* \"#utility.yul\":8704:8714   */\n      dup6\n        /* \"#utility.yul\":8701:8719   */\n      lt\n        /* \"#utility.yul\":8698:8747   */\n      iszero\n      tag_181\n      jumpi\n        /* \"#utility.yul\":8737:8745   */\n      dup2\n        /* \"#utility.yul\":8722:8745   */\n      swap1\n      pop\n        /* \"#utility.yul\":8698:8747   */\n    tag_181:\n        /* \"#utility.yul\":8760:8840   */\n      tag_182\n        /* \"#utility.yul\":8816:8838   */\n      tag_183\n        /* \"#utility.yul\":8834:8837   */\n      dup6\n        /* \"#utility.yul\":8816:8838   */\n      tag_62\n      jump\t// in\n    tag_183:\n        /* \"#utility.yul\":8806:8814   */\n      dup4\n        /* \"#utility.yul\":8802:8839   */\n      add\n        /* \"#utility.yul\":8789:8800   */\n      dup3\n        /* \"#utility.yul\":8760:8840   */\n      tag_71\n      jump\t// in\n    tag_182:\n        /* \"#utility.yul\":8419:8850   */\n      pop\n      pop\n        /* \"#utility.yul\":8404:8850   */\n    tag_178:\n        /* \"#utility.yul\":8314:8857   */\n      pop\n      pop\n      pop\n      jump\t// out\n        /* \"#utility.yul\":8863:8980   */\n    tag_73:\n        /* \"#utility.yul\":8917:8925   */\n      0x00\n        /* \"#utility.yul\":8967:8972   */\n      dup3\n        /* \"#utility.yul\":8961:8965   */\n      dup3\n        /* \"#utility.yul\":8957:8973   */\n      shr\n        /* \"#utility.yul\":8936:8973   */\n      swap1\n      pop\n        /* \"#utility.yul\":8863:8980   */\n      swap3\n      swap2\n      pop\n      pop\n      jump\t// out\n        /* \"#utility.yul\":8986:9155   */\n    tag_74:\n        /* \"#utility.yul\":9030:9036   */\n      0x00\n        /* \"#utility.yul\":9063:9114   */\n      tag_186\n        /* \"#utility.yul\":9111:9112   */\n      0x00\n        /* \"#utility.yul\":9107:9113   */\n      not\n        /* \"#utility.yul\":9099:9104   */\n      dup5\n        /* \"#utility.yul\":9096:9097   */\n      0x08\n        /* \"#utility.yul\":9092:9105   */\n      mul\n        /* \"#utility.yul\":9063:9114   */\n      tag_73\n      jump\t// in\n    tag_186:\n        /* \"#utility.yul\":9059:9115   */\n      not\n        /* \"#utility.yul\":9144:9148   */\n      dup1\n        /* \"#utility.yul\":9138:9142   */\n      dup4\n        /* \"#utility.yul\":9134:9149   */\n      and\n        /* \"#utility.yul\":9124:9149   */\n      swap2\n      pop\n        /* \"#utility.yul\":9037:9155   */\n      pop\n        /* \"#utility.yul\":8986:9155   */\n      swap3\n      swap2\n      pop\n      pop\n      jump\t// out\n        /* \"#utility.yul\":9160:9455   */\n    tag_75:\n        /* \"#utility.yul\":9236:9240   */\n      0x00\n        /* \"#utility.yul\":9382:9411   */\n      tag_188\n        /* \"#utility.yul\":9407:9410   */\n      dup4\n        /* \"#utility.yul\":9401:9405   */\n      dup4\n        /* \"#utility.yul\":9382:9411   */\n      tag_74\n      jump\t// in\n    tag_188:\n        /* \"#utility.yul\":9374:9411   */\n      swap2\n      pop\n        /* \"#utility.yul\":9444:9447   */\n      dup3\n        /* \"#utility.yul\":9441:9442   */\n      0x02\n        /* \"#utility.yul\":9437:9448   */\n      mul\n        /* \"#utility.yul\":9431:9435   */\n      dup3\n        /* \"#utility.yul\":9428:9449   */\n      or\n        /* \"#utility.yul\":9420:9449   */\n      swap1\n      pop\n        /* \"#utility.yul\":9160:9455   */\n      swap3\n      swap2\n      pop\n      pop\n      jump\t// out\n        /* \"#utility.yul\":9460:10855   */\n    tag_21:\n        /* \"#utility.yul\":9577:9614   */\n      tag_190\n        /* \"#utility.yul\":9610:9613   */\n      dup3\n        /* \"#utility.yul\":9577:9614   */\n      tag_54\n      jump\t// in\n    tag_190:\n        /* \"#utility.yul\":9679:9697   */\n      0xffffffffffffffff\n        /* \"#utility.yul\":9671:9677   */\n      dup2\n        /* \"#utility.yul\":9668:9698   */\n      gt\n        /* \"#utility.yul\":9665:9721   */\n      iszero\n      tag_191\n      jumpi\n        /* \"#utility.yul\":9701:9719   */\n      tag_192\n      tag_43\n      jump\t// in\n    tag_192:\n        /* \"#utility.yul\":9665:9721   */\n    tag_191:\n        /* \"#utility.yul\":9745:9783   */\n      tag_193\n        /* \"#utility.yul\":9777:9781   */\n      dup3\n        /* \"#utility.yul\":9771:9782   */\n      sload\n        /* \"#utility.yul\":9745:9783   */\n      tag_23\n      jump\t// in\n    tag_193:\n        /* \"#utility.yul\":9830:9897   */\n      tag_194\n        /* \"#utility.yul\":9890:9896   */\n      dup3\n        /* \"#utility.yul\":9882:9888   */\n      dup3\n        /* \"#utility.yul\":9876:9880   */\n      dup6\n        /* \"#utility.yul\":9830:9897   */\n      tag_72\n      jump\t// in\n    tag_194:\n        /* \"#utility.yul\":9924:9925   */\n      0x00\n        /* \"#utility.yul\":9948:9952   */\n      0x20\n        /* \"#utility.yul\":9935:9952   */\n      swap1\n      pop\n        /* \"#utility.yul\":9980:9982   */\n      0x1f\n        /* \"#utility.yul\":9972:9978   */\n      dup4\n        /* \"#utility.yul\":9969:9983   */\n      gt\n        /* \"#utility.yul\":9997:9998   */\n      0x01\n        /* \"#utility.yul\":9992:10610   */\n      dup2\n      eq\n      tag_196\n      jumpi\n        /* \"#utility.yul\":10654:10655   */\n      0x00\n        /* \"#utility.yul\":10671:10677   */\n      dup5\n        /* \"#utility.yul\":10668:10745   */\n      iszero\n      tag_197\n      jumpi\n        /* \"#utility.yul\":10720:10729   */\n      dup3\n        /* \"#utility.yul\":10715:10718   */\n      dup8\n        /* \"#utility.yul\":10711:10730   */\n      add\n        /* \"#utility.yul\":10705:10731   */\n      mload\n        /* \"#utility.yul\":10696:10731   */\n      swap1\n      pop\n        /* \"#utility.yul\":10668:10745   */\n    tag_197:\n        /* \"#utility.yul\":10771:10838   */\n      tag_198\n        /* \"#utility.yul\":10831:10837   */\n      dup6\n        /* \"#utility.yul\":10824:10829   */\n      dup3\n        /* \"#utility.yul\":10771:10838   */\n      tag_75\n      jump\t// in\n    tag_198:\n        /* \"#utility.yul\":10765:10769   */\n      dup7\n        /* \"#utility.yul\":10758:10839   */\n      sstore\n        /* \"#utility.yul\":10627:10849   */\n      pop\n        /* \"#utility.yul\":9962:10849   */\n      jump(tag_195)\n        /* \"#utility.yul\":9992:10610   */\n    tag_196:\n        /* \"#utility.yul\":10044:10048   */\n      0x1f\n        /* \"#utility.yul\":10040:10049   */\n      not\n        /* \"#utility.yul\":10032:10038   */\n      dup5\n        /* \"#utility.yul\":10028:10050   */\n      and\n        /* \"#utility.yul\":10078:10115   */\n      tag_199\n        /* \"#utility.yul\":10110:10114   */\n      dup7\n        /* \"#utility.yul\":10078:10115   */\n      tag_61\n      jump\t// in\n    tag_199:\n        /* \"#utility.yul\":10137:10138   */\n      0x00\n        /* \"#utility.yul\":10151:10359   */\n    tag_200:\n        /* \"#utility.yul\":10165:10172   */\n      dup3\n        /* \"#utility.yul\":10162:10163   */\n      dup2\n        /* \"#utility.yul\":10159:10173   */\n      lt\n        /* \"#utility.yul\":10151:10359   */\n      iszero\n      tag_202\n      jumpi\n        /* \"#utility.yul\":10244:10253   */\n      dup5\n        /* \"#utility.yul\":10239:10242   */\n      dup10\n        /* \"#utility.yul\":10235:10254   */\n      add\n        /* \"#utility.yul\":10229:10255   */\n      mload\n        /* \"#utility.yul\":10221:10227   */\n      dup3\n        /* \"#utility.yul\":10214:10256   */\n      sstore\n        /* \"#utility.yul\":10295:10296   */\n      0x01\n        /* \"#utility.yul\":10287:10293   */\n      dup3\n        /* \"#utility.yul\":10283:10297   */\n      add\n        /* \"#utility.yul\":10273:10297   */\n      swap2\n      pop\n        /* \"#utility.yul\":10342:10344   */\n      0x20\n        /* \"#utility.yul\":10331:10340   */\n      dup6\n        /* \"#utility.yul\":10327:10345   */\n      add\n        /* \"#utility.yul\":10314:10345   */\n      swap5\n      pop\n        /* \"#utility.yul\":10188:10192   */\n      0x20\n        /* \"#utility.yul\":10185:10186   */\n      dup2\n        /* \"#utility.yul\":10181:10193   */\n      add\n        /* \"#utility.yul\":10176:10193   */\n      swap1\n      pop\n        /* \"#utility.yul\":10151:10359   */\n      jump(tag_200)\n    tag_202:\n        /* \"#utility.yul\":10387:10393   */\n      dup7\n        /* \"#utility.yul\":10378:10385   */\n      dup4\n        /* \"#utility.yul\":10375:10394   */\n      lt\n        /* \"#utility.yul\":10372:10551   */\n      iszero\n      tag_203\n      jumpi\n        /* \"#utility.yul\":10445:10454   */\n      dup5\n        /* \"#utility.yul\":10440:10443   */\n      dup10\n        /* \"#utility.yul\":10436:10455   */\n      add\n        /* \"#utility.yul\":10430:10456   */\n      mload\n        /* \"#utility.yul\":10488:10536   */\n      tag_204\n        /* \"#utility.yul\":10530:10534   */\n      0x1f\n        /* \"#utility.yul\":10522:10528   */\n      dup10\n        /* \"#utility.yul\":10518:10535   */\n      and\n        /* \"#utility.yul\":10507:10516   */\n      dup3\n        /* \"#utility.yul\":10488:10536   */\n      tag_74\n      jump\t// in\n    tag_204:\n        /* \"#utility.yul\":10480:10486   */\n      dup4\n        /* \"#utility.yul\":10473:10537   */\n      sstore\n        /* \"#utility.yul\":10395:10551   */\n      pop\n        /* \"#utility.yul\":10372:10551   */\n    tag_203:\n        /* \"#utility.yul\":10597:10598   */\n      0x01\n        /* \"#utility.yul\":10593:10594   */\n      0x02\n        /* \"#utility.yul\":10585:10591   */\n      dup9\n        /* \"#utility.yul\":10581:10595   */\n      mul\n        /* \"#utility.yul\":10577:10599   */\n      add\n        /* \"#utility.yul\":10571:10575   */\n      dup9\n        /* \"#utility.yul\":10564:10600   */\n      sstore\n        /* \"#utility.yul\":9999:10610   */\n      pop\n      pop\n      pop\n        /* \"#utility.yul\":9962:10849   */\n    tag_195:\n      pop\n        /* \"#utility.yul\":9552:10855   */\n      pop\n      pop\n      pop\n        /* \"#utility.yul\":9460:10855   */\n      pop\n      pop\n      jump\t// out\n\n    auxdata: 0xa264697066735822122035ae9551aac16f2336a4b80629d781a659874b17e8887a1a702f7f513722f99264736f6c634300081a0033\n}\n",
				"bytecode": {
					"linkReferences": {},
					"object": "6080604052348015600e575f80fd5b506109c18061001c5f395ff3fe608060405234801561000f575f80fd5b506004361061003f575f3560e01c8063798ebec4146100435780638ada2cf61461005f5780638ec4dc9514610091575b5f80fd5b61005d60048036038101906100589190610529565b6100b1565b005b610079600480360381019061007491906105dd565b610189565b60405161008893929190610686565b60405180910390f35b610099610253565b6040516100a893929190610686565b60405180910390f35b60405180606001604052808281526020018381526020013373ffffffffffffffffffffffffffffffffffffffff168152505f803373ffffffffffffffffffffffffffffffffffffffff1673ffffffffffffffffffffffffffffffffffffffff1681526020019081526020015f205f820151815f01908161013191906108bc565b50602082015181600101556040820151816002015f6101000a81548173ffffffffffffffffffffffffffffffffffffffff021916908373ffffffffffffffffffffffffffffffffffffffff1602179055509050505050565b5f602052805f5260405f205f91509050805f0180546101a7906106ef565b80601f01602080910402602001604051908101604052809291908181526020018280546101d3906106ef565b801561021e5780601f106101f55761010080835404028352916020019161021e565b820191905f5260205f20905b81548152906001019060200180831161020157829003601f168201915b505050505090806001015490806002015f9054906101000a900473ffffffffffffffffffffffffffffffffffffffff16905083565b60605f805f805f3373ffffffffffffffffffffffffffffffffffffffff1673ffffffffffffffffffffffffffffffffffffffff1681526020019081526020015f206040518060600160405290815f820180546102ae906106ef565b80601f01602080910402602001604051908101604052809291908181526020018280546102da906106ef565b80156103255780601f106102fc57610100808354040283529160200191610325565b820191905f5260205f20905b81548152906001019060200180831161030857829003601f168201915b5050505050815260200160018201548152602001600282015f9054906101000a900473ffffffffffffffffffffffffffffffffffffffff1673ffffffffffffffffffffffffffffffffffffffff1673ffffffffffffffffffffffffffffffffffffffff16815250509050805f01518160200151826040015193509350935050909192565b5f604051905090565b5f80fd5b5f80fd5b5f819050919050565b6103cc816103ba565b81146103d6575f80fd5b50565b5f813590506103e7816103c3565b92915050565b5f80fd5b5f80fd5b5f601f19601f8301169050919050565b7f4e487b71000000000000000000000000000000000000000000000000000000005f52604160045260245ffd5b61043b826103f5565b810181811067ffffffffffffffff8211171561045a57610459610405565b5b80604052505050565b5f61046c6103a9565b90506104788282610432565b919050565b5f67ffffffffffffffff82111561049757610496610405565b5b6104a0826103f5565b9050602081019050919050565b828183375f83830152505050565b5f6104cd6104c88461047d565b610463565b9050828152602081018484840111156104e9576104e86103f1565b5b6104f48482856104ad565b509392505050565b5f82601f8301126105105761050f6103ed565b5b81356105208482602086016104bb565b91505092915050565b5f806040838503121561053f5761053e6103b2565b5b5f61054c858286016103d9565b925050602083013567ffffffffffffffff81111561056d5761056c6103b6565b5b610579858286016104fc565b9150509250929050565b5f73ffffffffffffffffffffffffffffffffffffffff82169050919050565b5f6105ac82610583565b9050919050565b6105bc816105a2565b81146105c6575f80fd5b50565b5f813590506105d7816105b3565b92915050565b5f602082840312156105f2576105f16103b2565b5b5f6105ff848285016105c9565b91505092915050565b5f81519050919050565b5f82825260208201905092915050565b8281835e5f83830152505050565b5f61063a82610608565b6106448185610612565b9350610654818560208601610622565b61065d816103f5565b840191505092915050565b610671816103ba565b82525050565b610680816105a2565b82525050565b5f6060820190508181035f83015261069e8186610630565b90506106ad6020830185610668565b6106ba6040830184610677565b949350505050565b7f4e487b71000000000000000000000000000000000000000000000000000000005f52602260045260245ffd5b5f600282049050600182168061070657607f821691505b602082108103610719576107186106c2565b5b50919050565b5f819050815f5260205f209050919050565b5f6020601f8301049050919050565b5f82821b905092915050565b5f6008830261077b7fffffffffffffffffffffffffffffffffffffffffffffffffffffffffffffffff82610740565b6107858683610740565b95508019841693508086168417925050509392505050565b5f819050919050565b5f6107c06107bb6107b6846103ba565b61079d565b6103ba565b9050919050565b5f819050919050565b6107d9836107a6565b6107ed6107e5826107c7565b84845461074c565b825550505050565b5f90565b6108016107f5565b61080c8184846107d0565b505050565b5b8181101561082f576108245f826107f9565b600181019050610812565b5050565b601f821115610874576108458161071f565b61084e84610731565b8101602085101561085d578190505b61087161086985610731565b830182610811565b50505b505050565b5f82821c905092915050565b5f6108945f1984600802610879565b1980831691505092915050565b5f6108ac8383610885565b9150826002028217905092915050565b6108c582610608565b67ffffffffffffffff8111156108de576108dd610405565b5b6108e882546106ef565b6108f3828285610833565b5f60209050601f831160018114610924575f8415610912578287015190505b61091c85826108a1565b865550610983565b601f1984166109328661071f565b5f5b8281101561095957848901518255600182019150602085019450602081019050610934565b868310156109765784890151610972601f891682610885565b8355505b6001600288020188555050505b50505050505056fea264697066735822122035ae9551aac16f2336a4b80629d781a659874b17e8887a1a702f7f513722f99264736f6c634300081a0033",
					"opcodes": "PUSH1 0x80 PUSH1 0x40 MSTORE CALLVALUE DUP1 ISZERO PUSH1 0xE JUMPI PUSH0 DUP1 REVERT JUMPDEST POP PUSH2 0x9C1 DUP1 PUSH2 0x1C PUSH0 CODECOPY PUSH0 RETURN INVALID PUSH1 0x80 PUSH1 0x40 MSTORE CALLVALUE DUP1 ISZERO PUSH2 0xF JUMPI PUSH0 DUP1 REVERT JUMPDEST POP PUSH1 0x4 CALLDATASIZE LT PUSH2 0x3F JUMPI PUSH0 CALLDATALOAD PUSH1 0xE0 SHR DUP1 PUSH4 0x798EBEC4 EQ PUSH2 0x43 JUMPI DUP1 PUSH4 0x8ADA2CF6 EQ PUSH2 0x5F JUMPI DUP1 PUSH4 0x8EC4DC95 EQ PUSH2 0x91 JUMPI JUMPDEST PUSH0 DUP1 REVERT JUMPDEST PUSH2 0x5D PUSH1 0x4 DUP1 CALLDATASIZE SUB DUP2 ADD SWAP1 PUSH2 0x58 SWAP2 SWAP1 PUSH2 0x529 JUMP JUMPDEST PUSH2 0xB1 JUMP JUMPDEST STOP JUMPDEST PUSH2 0x79 PUSH1 0x4 DUP1 CALLDATASIZE SUB DUP2 ADD SWAP1 PUSH2 0x74 SWAP2 SWAP1 PUSH2 0x5DD JUMP JUMPDEST PUSH2 0x189 JUMP JUMPDEST PUSH1 0x40 MLOAD PUSH2 0x88 SWAP4 SWAP3 SWAP2 SWAP1 PUSH2 0x686 JUMP JUMPDEST PUSH1 0x40 MLOAD DUP1 SWAP2 SUB SWAP1 RETURN JUMPDEST PUSH2 0x99 PUSH2 0x253 JUMP JUMPDEST PUSH1 0x40 MLOAD PUSH2 0xA8 SWAP4 SWAP3 SWAP2 SWAP1 PUSH2 0x686 JUMP JUMPDEST PUSH1 0x40 MLOAD DUP1 SWAP2 SUB SWAP1 RETURN JUMPDEST PUSH1 0x40 MLOAD DUP1 PUSH1 0x60 ADD PUSH1 0x40 MSTORE DUP1 DUP3 DUP2 MSTORE PUSH1 0x20 ADD DUP4 DUP2 MSTORE PUSH1 0x20 ADD CALLER PUSH20 0xFFFFFFFFFFFFFFFFFFFFFFFFFFFFFFFFFFFFFFFF AND DUP2 MSTORE POP PUSH0 DUP1 CALLER PUSH20 0xFFFFFFFFFFFFFFFFFFFFFFFFFFFFFFFFFFFFFFFF AND PUSH20 0xFFFFFFFFFFFFFFFFFFFFFFFFFFFFFFFFFFFFFFFF AND DUP2 MSTORE PUSH1 0x20 ADD SWAP1 DUP2 MSTORE PUSH1 0x20 ADD PUSH0 KECCAK256 PUSH0 DUP3 ADD MLOAD DUP2 PUSH0 ADD SWAP1 DUP2 PUSH2 0x131 SWAP2 SWAP1 PUSH2 0x8BC JUMP JUMPDEST POP PUSH1 0x20 DUP3 ADD MLOAD DUP2 PUSH1 0x1 ADD SSTORE PUSH1 0x40 DUP3 ADD MLOAD DUP2 PUSH1 0x2 ADD PUSH0 PUSH2 0x100 EXP DUP2 SLOAD DUP2 PUSH20 0xFFFFFFFFFFFFFFFFFFFFFFFFFFFFFFFFFFFFFFFF MUL NOT AND SWAP1 DUP4 PUSH20 0xFFFFFFFFFFFFFFFFFFFFFFFFFFFFFFFFFFFFFFFF AND MUL OR SWAP1 SSTORE POP SWAP1 POP POP POP POP JUMP JUMPDEST PUSH0 PUSH1 0x20 MSTORE DUP1 PUSH0 MSTORE PUSH1 0x40 PUSH0 KECCAK256 PUSH0 SWAP2 POP SWAP1 POP DUP1 PUSH0 ADD DUP1 SLOAD PUSH2 0x1A7 SWAP1 PUSH2 0x6EF JUMP JUMPDEST DUP1 PUSH1 0x1F ADD PUSH1 0x20 DUP1 SWAP2 DIV MUL PUSH1 0x20 ADD PUSH1 0x40 MLOAD SWAP1 DUP2 ADD PUSH1 0x40 MSTORE DUP1 SWAP3 SWAP2 SWAP1 DUP2 DUP2 MSTORE PUSH1 0x20 ADD DUP3 DUP1 SLOAD PUSH2 0x1D3 SWAP1 PUSH2 0x6EF JUMP JUMPDEST DUP1 ISZERO PUSH2 0x21E JUMPI DUP1 PUSH1 0x1F LT PUSH2 0x1F5 JUMPI PUSH2 0x100 DUP1 DUP4 SLOAD DIV MUL DUP4 MSTORE SWAP2 PUSH1 0x20 ADD SWAP2 PUSH2 0x21E JUMP JUMPDEST DUP3 ADD SWAP2 SWAP1 PUSH0 MSTORE PUSH1 0x20 PUSH0 KECCAK256 SWAP1 JUMPDEST DUP2 SLOAD DUP2 MSTORE SWAP1 PUSH1 0x1 ADD SWAP1 PUSH1 0x20 ADD DUP1 DUP4 GT PUSH2 0x201 JUMPI DUP3 SWAP1 SUB PUSH1 0x1F AND DUP3 ADD SWAP2 JUMPDEST POP POP POP POP POP SWAP1 DUP1 PUSH1 0x1 ADD SLOAD SWAP1 DUP1 PUSH1 0x2 ADD PUSH0 SWAP1 SLOAD SWAP1 PUSH2 0x100 EXP SWAP1 DIV PUSH20 0xFFFFFFFFFFFFFFFFFFFFFFFFFFFFFFFFFFFFFFFF AND SWAP1 POP DUP4 JUMP JUMPDEST PUSH1 0x60 PUSH0 DUP1 PUSH0 DUP1 PUSH0 CALLER PUSH20 0xFFFFFFFFFFFFFFFFFFFFFFFFFFFFFFFFFFFFFFFF AND PUSH20 0xFFFFFFFFFFFFFFFFFFFFFFFFFFFFFFFFFFFFFFFF AND DUP2 MSTORE PUSH1 0x20 ADD SWAP1 DUP2 MSTORE PUSH1 0x20 ADD PUSH0 KECCAK256 PUSH1 0x40 MLOAD DUP1 PUSH1 0x60 ADD PUSH1 0x40 MSTORE SWAP1 DUP2 PUSH0 DUP3 ADD DUP1 SLOAD PUSH2 0x2AE SWAP1 PUSH2 0x6EF JUMP JUMPDEST DUP1 PUSH1 0x1F ADD PUSH1 0x20 DUP1 SWAP2 DIV MUL PUSH1 0x20 ADD PUSH1 0x40 MLOAD SWAP1 DUP2 ADD PUSH1 0x40 MSTORE DUP1 SWAP3 SWAP2 SWAP1 DUP2 DUP2 MSTORE PUSH1 0x20 ADD DUP3 DUP1 SLOAD PUSH2 0x2DA SWAP1 PUSH2 0x6EF JUMP JUMPDEST DUP1 ISZERO PUSH2 0x325 JUMPI DUP1 PUSH1 0x1F LT PUSH2 0x2FC JUMPI PUSH2 0x100 DUP1 DUP4 SLOAD DIV MUL DUP4 MSTORE SWAP2 PUSH1 0x20 ADD SWAP2 PUSH2 0x325 JUMP JUMPDEST DUP3 ADD SWAP2 SWAP1 PUSH0 MSTORE PUSH1 0x20 PUSH0 KECCAK256 SWAP1 JUMPDEST DUP2 SLOAD DUP2 MSTORE SWAP1 PUSH1 0x1 ADD SWAP1 PUSH1 0x20 ADD DUP1 DUP4 GT PUSH2 0x308 JUMPI DUP3 SWAP1 SUB PUSH1 0x1F AND DUP3 ADD SWAP2 JUMPDEST POP POP POP POP POP DUP2 MSTORE PUSH1 0x20 ADD PUSH1 0x1 DUP3 ADD SLOAD DUP2 MSTORE PUSH1 0x20 ADD PUSH1 0x2 DUP3 ADD PUSH0 SWAP1 SLOAD SWAP1 PUSH2 0x100 EXP SWAP1 DIV PUSH20 0xFFFFFFFFFFFFFFFFFFFFFFFFFFFFFFFFFFFFFFFF AND PUSH20 0xFFFFFFFFFFFFFFFFFFFFFFFFFFFFFFFFFFFFFFFF AND PUSH20 0xFFFFFFFFFFFFFFFFFFFFFFFFFFFFFFFFFFFFFFFF AND DUP2 MSTORE POP POP SWAP1 POP DUP1 PUSH0 ADD MLOAD DUP2 PUSH1 0x20 ADD MLOAD DUP3 PUSH1 0x40 ADD MLOAD SWAP4 POP SWAP4 POP SWAP4 POP POP SWAP1 SWAP2 SWAP3 JUMP JUMPDEST PUSH0 PUSH1 0x40 MLOAD SWAP1 POP SWAP1 JUMP JUMPDEST PUSH0 DUP1 REVERT JUMPDEST PUSH0 DUP1 REVERT JUMPDEST PUSH0 DUP2 SWAP1 POP SWAP2 SWAP1 POP JUMP JUMPDEST PUSH2 0x3CC DUP2 PUSH2 0x3BA JUMP JUMPDEST DUP2 EQ PUSH2 0x3D6 JUMPI PUSH0 DUP1 REVERT JUMPDEST POP JUMP JUMPDEST PUSH0 DUP2 CALLDATALOAD SWAP1 POP PUSH2 0x3E7 DUP2 PUSH2 0x3C3 JUMP JUMPDEST SWAP3 SWAP2 POP POP JUMP JUMPDEST PUSH0 DUP1 REVERT JUMPDEST PUSH0 DUP1 REVERT JUMPDEST PUSH0 PUSH1 0x1F NOT PUSH1 0x1F DUP4 ADD AND SWAP1 POP SWAP2 SWAP1 POP JUMP JUMPDEST PUSH32 0x4E487B7100000000000000000000000000000000000000000000000000000000 PUSH0 MSTORE PUSH1 0x41 PUSH1 0x4 MSTORE PUSH1 0x24 PUSH0 REVERT JUMPDEST PUSH2 0x43B DUP3 PUSH2 0x3F5 JUMP JUMPDEST DUP2 ADD DUP2 DUP2 LT PUSH8 0xFFFFFFFFFFFFFFFF DUP3 GT OR ISZERO PUSH2 0x45A JUMPI PUSH2 0x459 PUSH2 0x405 JUMP JUMPDEST JUMPDEST DUP1 PUSH1 0x40 MSTORE POP POP POP JUMP JUMPDEST PUSH0 PUSH2 0x46C PUSH2 0x3A9 JUMP JUMPDEST SWAP1 POP PUSH2 0x478 DUP3 DUP3 PUSH2 0x432 JUMP JUMPDEST SWAP2 SWAP1 POP JUMP JUMPDEST PUSH0 PUSH8 0xFFFFFFFFFFFFFFFF DUP3 GT ISZERO PUSH2 0x497 JUMPI PUSH2 0x496 PUSH2 0x405 JUMP JUMPDEST JUMPDEST PUSH2 0x4A0 DUP3 PUSH2 0x3F5 JUMP JUMPDEST SWAP1 POP PUSH1 0x20 DUP2 ADD SWAP1 POP SWAP2 SWAP1 POP JUMP JUMPDEST DUP3 DUP2 DUP4 CALLDATACOPY PUSH0 DUP4 DUP4 ADD MSTORE POP POP POP JUMP JUMPDEST PUSH0 PUSH2 0x4CD PUSH2 0x4C8 DUP5 PUSH2 0x47D JUMP JUMPDEST PUSH2 0x463 JUMP JUMPDEST SWAP1 POP DUP3 DUP2 MSTORE PUSH1 0x20 DUP2 ADD DUP5 DUP5 DUP5 ADD GT ISZERO PUSH2 0x4E9 JUMPI PUSH2 0x4E8 PUSH2 0x3F1 JUMP JUMPDEST JUMPDEST PUSH2 0x4F4 DUP5 DUP3 DUP6 PUSH2 0x4AD JUMP JUMPDEST POP SWAP4 SWAP3 POP POP POP JUMP JUMPDEST PUSH0 DUP3 PUSH1 0x1F DUP4 ADD SLT PUSH2 0x510 JUMPI PUSH2 0x50F PUSH2 0x3ED JUMP JUMPDEST JUMPDEST DUP2 CALLDATALOAD PUSH2 0x520 DUP5 DUP3 PUSH1 0x20 DUP7 ADD PUSH2 0x4BB JUMP JUMPDEST SWAP2 POP POP SWAP3 SWAP2 POP POP JUMP JUMPDEST PUSH0 DUP1 PUSH1 0x40 DUP4 DUP6 SUB SLT ISZERO PUSH2 0x53F JUMPI PUSH2 0x53E PUSH2 0x3B2 JUMP JUMPDEST JUMPDEST PUSH0 PUSH2 0x54C DUP6 DUP3 DUP7 ADD PUSH2 0x3D9 JUMP JUMPDEST SWAP3 POP POP PUSH1 0x20 DUP4 ADD CALLDATALOAD PUSH8 0xFFFFFFFFFFFFFFFF DUP2 GT ISZERO PUSH2 0x56D JUMPI PUSH2 0x56C PUSH2 0x3B6 JUMP JUMPDEST JUMPDEST PUSH2 0x579 DUP6 DUP3 DUP7 ADD PUSH2 0x4FC JUMP JUMPDEST SWAP2 POP POP SWAP3 POP SWAP3 SWAP1 POP JUMP JUMPDEST PUSH0 PUSH20 0xFFFFFFFFFFFFFFFFFFFFFFFFFFFFFFFFFFFFFFFF DUP3 AND SWAP1 POP SWAP2 SWAP1 POP JUMP JUMPDEST PUSH0 PUSH2 0x5AC DUP3 PUSH2 0x583 JUMP JUMPDEST SWAP1 POP SWAP2 SWAP1 POP JUMP JUMPDEST PUSH2 0x5BC DUP2 PUSH2 0x5A2 JUMP JUMPDEST DUP2 EQ PUSH2 0x5C6 JUMPI PUSH0 DUP1 REVERT JUMPDEST POP JUMP JUMPDEST PUSH0 DUP2 CALLDATALOAD SWAP1 POP PUSH2 0x5D7 DUP2 PUSH2 0x5B3 JUMP JUMPDEST SWAP3 SWAP2 POP POP JUMP JUMPDEST PUSH0 PUSH1 0x20 DUP3 DUP5 SUB SLT ISZERO PUSH2 0x5F2 JUMPI PUSH2 0x5F1 PUSH2 0x3B2 JUMP JUMPDEST JUMPDEST PUSH0 PUSH2 0x5FF DUP5 DUP3 DUP6 ADD PUSH2 0x5C9 JUMP JUMPDEST SWAP2 POP POP SWAP3 SWAP2 POP POP JUMP JUMPDEST PUSH0 DUP2 MLOAD SWAP1 POP SWAP2 SWAP1 POP JUMP JUMPDEST PUSH0 DUP3 DUP3 MSTORE PUSH1 0x20 DUP3 ADD SWAP1 POP SWAP3 SWAP2 POP POP JUMP JUMPDEST DUP3 DUP2 DUP4 MCOPY PUSH0 DUP4 DUP4 ADD MSTORE POP POP POP JUMP JUMPDEST PUSH0 PUSH2 0x63A DUP3 PUSH2 0x608 JUMP JUMPDEST PUSH2 0x644 DUP2 DUP6 PUSH2 0x612 JUMP JUMPDEST SWAP4 POP PUSH2 0x654 DUP2 DUP6 PUSH1 0x20 DUP7 ADD PUSH2 0x622 JUMP JUMPDEST PUSH2 0x65D DUP2 PUSH2 0x3F5 JUMP JUMPDEST DUP5 ADD SWAP2 POP POP SWAP3 SWAP2 POP POP JUMP JUMPDEST PUSH2 0x671 DUP2 PUSH2 0x3BA JUMP JUMPDEST DUP3 MSTORE POP POP JUMP JUMPDEST PUSH2 0x680 DUP2 PUSH2 0x5A2 JUMP JUMPDEST DUP3 MSTORE POP POP JUMP JUMPDEST PUSH0 PUSH1 0x60 DUP3 ADD SWAP1 POP DUP2 DUP2 SUB PUSH0 DUP4 ADD MSTORE PUSH2 0x69E DUP2 DUP7 PUSH2 0x630 JUMP JUMPDEST SWAP1 POP PUSH2 0x6AD PUSH1 0x20 DUP4 ADD DUP6 PUSH2 0x668 JUMP JUMPDEST PUSH2 0x6BA PUSH1 0x40 DUP4 ADD DUP5 PUSH2 0x677 JUMP JUMPDEST SWAP5 SWAP4 POP POP POP POP JUMP JUMPDEST PUSH32 0x4E487B7100000000000000000000000000000000000000000000000000000000 PUSH0 MSTORE PUSH1 0x22 PUSH1 0x4 MSTORE PUSH1 0x24 PUSH0 REVERT JUMPDEST PUSH0 PUSH1 0x2 DUP3 DIV SWAP1 POP PUSH1 0x1 DUP3 AND DUP1 PUSH2 0x706 JUMPI PUSH1 0x7F DUP3 AND SWAP2 POP JUMPDEST PUSH1 0x20 DUP3 LT DUP2 SUB PUSH2 0x719 JUMPI PUSH2 0x718 PUSH2 0x6C2 JUMP JUMPDEST JUMPDEST POP SWAP2 SWAP1 POP JUMP JUMPDEST PUSH0 DUP2 SWAP1 POP DUP2 PUSH0 MSTORE PUSH1 0x20 PUSH0 KECCAK256 SWAP1 POP SWAP2 SWAP1 POP JUMP JUMPDEST PUSH0 PUSH1 0x20 PUSH1 0x1F DUP4 ADD DIV SWAP1 POP SWAP2 SWAP1 POP JUMP JUMPDEST PUSH0 DUP3 DUP3 SHL SWAP1 POP SWAP3 SWAP2 POP POP JUMP JUMPDEST PUSH0 PUSH1 0x8 DUP4 MUL PUSH2 0x77B PUSH32 0xFFFFFFFFFFFFFFFFFFFFFFFFFFFFFFFFFFFFFFFFFFFFFFFFFFFFFFFFFFFFFFFF DUP3 PUSH2 0x740 JUMP JUMPDEST PUSH2 0x785 DUP7 DUP4 PUSH2 0x740 JUMP JUMPDEST SWAP6 POP DUP1 NOT DUP5 AND SWAP4 POP DUP1 DUP7 AND DUP5 OR SWAP3 POP POP POP SWAP4 SWAP3 POP POP POP JUMP JUMPDEST PUSH0 DUP2 SWAP1 POP SWAP2 SWAP1 POP JUMP JUMPDEST PUSH0 PUSH2 0x7C0 PUSH2 0x7BB PUSH2 0x7B6 DUP5 PUSH2 0x3BA JUMP JUMPDEST PUSH2 0x79D JUMP JUMPDEST PUSH2 0x3BA JUMP JUMPDEST SWAP1 POP SWAP2 SWAP1 POP JUMP JUMPDEST PUSH0 DUP2 SWAP1 POP SWAP2 SWAP1 POP JUMP JUMPDEST PUSH2 0x7D9 DUP4 PUSH2 0x7A6 JUMP JUMPDEST PUSH2 0x7ED PUSH2 0x7E5 DUP3 PUSH2 0x7C7 JUMP JUMPDEST DUP5 DUP5 SLOAD PUSH2 0x74C JUMP JUMPDEST DUP3 SSTORE POP POP POP POP JUMP JUMPDEST PUSH0 SWAP1 JUMP JUMPDEST PUSH2 0x801 PUSH2 0x7F5 JUMP JUMPDEST PUSH2 0x80C DUP2 DUP5 DUP5 PUSH2 0x7D0 JUMP JUMPDEST POP POP POP JUMP JUMPDEST JUMPDEST DUP2 DUP2 LT ISZERO PUSH2 0x82F JUMPI PUSH2 0x824 PUSH0 DUP3 PUSH2 0x7F9 JUMP JUMPDEST PUSH1 0x1 DUP2 ADD SWAP1 POP PUSH2 0x812 JUMP JUMPDEST POP POP JUMP JUMPDEST PUSH1 0x1F DUP3 GT ISZERO PUSH2 0x874 JUMPI PUSH2 0x845 DUP2 PUSH2 0x71F JUMP JUMPDEST PUSH2 0x84E DUP5 PUSH2 0x731 JUMP JUMPDEST DUP2 ADD PUSH1 0x20 DUP6 LT ISZERO PUSH2 0x85D JUMPI DUP2 SWAP1 POP JUMPDEST PUSH2 0x871 PUSH2 0x869 DUP6 PUSH2 0x731 JUMP JUMPDEST DUP4 ADD DUP3 PUSH2 0x811 JUMP JUMPDEST POP POP JUMPDEST POP POP POP JUMP JUMPDEST PUSH0 DUP3 DUP3 SHR SWAP1 POP SWAP3 SWAP2 POP POP JUMP JUMPDEST PUSH0 PUSH2 0x894 PUSH0 NOT DUP5 PUSH1 0x8 MUL PUSH2 0x879 JUMP JUMPDEST NOT DUP1 DUP4 AND SWAP2 POP POP SWAP3 SWAP2 POP POP JUMP JUMPDEST PUSH0 PUSH2 0x8AC DUP4 DUP4 PUSH2 0x885 JUMP JUMPDEST SWAP2 POP DUP3 PUSH1 0x2 MUL DUP3 OR SWAP1 POP SWAP3 SWAP2 POP POP JUMP JUMPDEST PUSH2 0x8C5 DUP3 PUSH2 0x608 JUMP JUMPDEST PUSH8 0xFFFFFFFFFFFFFFFF DUP2 GT ISZERO PUSH2 0x8DE JUMPI PUSH2 0x8DD PUSH2 0x405 JUMP JUMPDEST JUMPDEST PUSH2 0x8E8 DUP3 SLOAD PUSH2 0x6EF JUMP JUMPDEST PUSH2 0x8F3 DUP3 DUP3 DUP6 PUSH2 0x833 JUMP JUMPDEST PUSH0 PUSH1 0x20 SWAP1 POP PUSH1 0x1F DUP4 GT PUSH1 0x1 DUP2 EQ PUSH2 0x924 JUMPI PUSH0 DUP5 ISZERO PUSH2 0x912 JUMPI DUP3 DUP8 ADD MLOAD SWAP1 POP JUMPDEST PUSH2 0x91C DUP6 DUP3 PUSH2 0x8A1 JUMP JUMPDEST DUP7 SSTORE POP PUSH2 0x983 JUMP JUMPDEST PUSH1 0x1F NOT DUP5 AND PUSH2 0x932 DUP7 PUSH2 0x71F JUMP JUMPDEST PUSH0 JUMPDEST DUP3 DUP2 LT ISZERO PUSH2 0x959 JUMPI DUP5 DUP10 ADD MLOAD DUP3 SSTORE PUSH1 0x1 DUP3 ADD SWAP2 POP PUSH1 0x20 DUP6 ADD SWAP5 POP PUSH1 0x20 DUP2 ADD SWAP1 POP PUSH2 0x934 JUMP JUMPDEST DUP7 DUP4 LT ISZERO PUSH2 0x976 JUMPI DUP5 DUP10 ADD MLOAD PUSH2 0x972 PUSH1 0x1F DUP10 AND DUP3 PUSH2 0x885 JUMP JUMPDEST DUP4 SSTORE POP JUMPDEST PUSH1 0x1 PUSH1 0x2 DUP9 MUL ADD DUP9 SSTORE POP POP POP JUMPDEST POP POP POP POP POP POP JUMP INVALID LOG2 PUSH5 0x6970667358 0x22 SLT KECCAK256 CALLDATALOAD 0xAE SWAP6 MLOAD 0xAA 0xC1 PUSH16 0x2336A4B80629D781A659874B17E8887A BYTE PUSH17 0x2F7F513722F99264736F6C634300081A00 CALLER "
				},
				"gasEstimates": {
					"creation": {
						"codeDepositCost": "499400",
						"executionCost": "535",
						"totalCost": "499935"
					},
					"external": {
						"getPerson()": "infinite",
						"persons(address)": "infinite",
						"setPerson(uint256,string)": "infinite"
					}
				},
				"methodIdentifiers": {
					"getPerson()": "8ec4dc95",
					"persons(address)": "8ada2cf6",
					"setPerson(uint256,string)": "798ebec4"
				}
			},
			"storageLayout": {
				"storage": [
					{
						"astId": 13,
						"contract": "contracts/Persons.sol:Persons",
						"label": "persons",
						"offset": 0,
						"slot": "0",
						"type": "t_mapping(t_address,t_struct(Person)8_storage)"
					}
				],
				"types": {
					"t_address": {
						"encoding": "inplace",
						"label": "address",
						"numberOfBytes": "20"
					},
					"t_mapping(t_address,t_struct(Person)8_storage)": {
						"encoding": "mapping",
						"key": "t_address",
						"label": "mapping(address => struct Persons.Person)",
						"numberOfBytes": "32",
						"value": "t_struct(Person)8_storage"
					},
					"t_string_storage": {
						"encoding": "bytes",
						"label": "string",
						"numberOfBytes": "32"
					},
					"t_struct(Person)8_storage": {
						"encoding": "inplace",
						"label": "struct Persons.Person",
						"members": [
							{
								"astId": 3,
								"contract": "contracts/Persons.sol:Persons",
								"label": "name",
								"offset": 0,
								"slot": "0",
								"type": "t_string_storage"
							},
							{
								"astId": 5,
								"contract": "contracts/Persons.sol:Persons",
								"label": "age",
								"offset": 0,
								"slot": "1",
								"type": "t_uint256"
							},
							{
								"astId": 7,
								"contract": "contracts/Persons.sol:Persons",
								"label": "add",
								"offset": 0,
								"slot": "2",
								"type": "t_address"
							}
						],
						"numberOfBytes": "96"
					},
					"t_uint256": {
						"encoding": "inplace",
						"label": "uint256",
						"numberOfBytes": "32"
					}
				}
			},
			"userdoc": {
				"kind": "user",
				"methods": {},
				"version": 1
			}
		}
	}
}