{
	"data": {
		"bytecode": {
			"linkReferences": {},
			"object": "6080604052604051611874380380611874833981810160405281019061002591906102c8565b8760015f6101000a81548173ffffffffffffffffffffffffffffffffffffffff021916908373ffffffffffffffffffffffffffffffffffffffff16021790555086600290816100749190610599565b5085600681905550846003819055508360048190555083856100969190610695565b600581905550826007819055508160098190555080600a819055505f600b819055505f600c5f6101000a81548160ff021916908360038111156100dc576100db6106d6565b5b02179055505050505050505050610703565b5f604051905090565b5f80fd5b5f80fd5b5f73ffffffffffffffffffffffffffffffffffffffff82169050919050565b5f610128826100ff565b9050919050565b6101388161011e565b8114610142575f80fd5b50565b5f815190506101538161012f565b92915050565b5f80fd5b5f80fd5b5f601f19601f8301169050919050565b7f4e487b71000000000000000000000000000000000000000000000000000000005f52604160045260245ffd5b6101a782610161565b810181811067ffffffffffffffff821117156101c6576101c5610171565b5b80604052505050565b5f6101d86100ee565b90506101e4828261019e565b919050565b5f67ffffffffffffffff82111561020357610202610171565b5b61020c82610161565b9050602081019050919050565b8281835e5f83830152505050565b5f610239610234846101e9565b6101cf565b9050828152602081018484840111156102555761025461015d565b5b610260848285610219565b509392505050565b5f82601f83011261027c5761027b610159565b5b815161028c848260208601610227565b91505092915050565b5f819050919050565b6102a781610295565b81146102b1575f80fd5b50565b5f815190506102c28161029e565b92915050565b5f805f805f805f80610100898b0312156102e5576102e46100f7565b5b5f6102f28b828c01610145565b985050602089015167ffffffffffffffff811115610313576103126100fb565b5b61031f8b828c01610268565b97505060406103308b828c016102b4565b96505060606103418b828c016102b4565b95505060806103528b828c016102b4565b94505060a06103638b828c016102b4565b93505060c06103748b828c016102b4565b92505060e06103858b828c016102b4565b9150509295985092959890939650565b5f81519050919050565b7f4e487b71000000000000000000000000000000000000000000000000000000005f52602260045260245ffd5b5f60028204905060018216806103e357607f821691505b6020821081036103f6576103f561039f565b5b50919050565b5f819050815f5260205f209050919050565b5f6020601f8301049050919050565b5f82821b905092915050565b5f600883026104587fffffffffffffffffffffffffffffffffffffffffffffffffffffffffffffffff8261041d565b610462868361041d565b95508019841693508086168417925050509392505050565b5f819050919050565b5f61049d61049861049384610295565b61047a565b610295565b9050919050565b5f819050919050565b6104b683610483565b6104ca6104c2826104a4565b848454610429565b825550505050565b5f90565b6104de6104d2565b6104e98184846104ad565b505050565b5b8181101561050c576105015f826104d6565b6001810190506104ef565b5050565b601f82111561055157610522816103fc565b61052b8461040e565b8101602085101561053a578190505b61054e6105468561040e565b8301826104ee565b50505b505050565b5f82821c905092915050565b5f6105715f1984600802610556565b1980831691505092915050565b5f6105898383610562565b9150826002028217905092915050565b6105a282610395565b67ffffffffffffffff8111156105bb576105ba610171565b5b6105c582546103cc565b6105d0828285610510565b5f60209050601f831160018114610601575f84156105ef578287015190505b6105f9858261057e565b865550610660565b601f19841661060f866103fc565b5f5b8281101561063657848901518255600182019150602085019450602081019050610611565b86831015610653578489015161064f601f891682610562565b8355505b6001600288020188555050505b505050505050565b7f4e487b71000000000000000000000000000000000000000000000000000000005f52601160045260245ffd5b5f61069f82610295565b91506106aa83610295565b92508282026106b881610295565b915082820484148315176106cf576106ce610668565b5b5092915050565b7f4e487b71000000000000000000000000000000000000000000000000000000005f52602160045260245ffd5b611164806107105f395ff3fe6080604052600436106100fd575f3560e01c80636b749c4711610094578063a145c2ee11610063578063a145c2ee146102f3578063bbf64b2b1461031d578063c63735b314610347578063d116c8c414610371578063d811fcf014610387576100fd565b80636b749c471461024f5780637150d8ae1461026b57806391f30bd4146102955780639dfc9117146102bf576100fd565b806341e8a188116100d057806341e8a188146101a957806357549eb0146101d157806358eeabbc146101fb57806362b1f2ed14610225576100fd565b806317fc45e214610101578063200d2ed21461012b5780632199a57d14610155578063263f68ae1461017f575b5f80fd5b34801561010c575f80fd5b506101156103b1565b6040516101229190610adc565b60405180910390f35b348015610136575f80fd5b5061013f6103b7565b60405161014c9190610b68565b60405180910390f35b348015610160575f80fd5b506101696103c9565b6040516101769190610adc565b60405180910390f35b34801561018a575f80fd5b506101936103cf565b6040516101a09190610adc565b60405180910390f35b3480156101b4575f80fd5b506101cf60048036038101906101ca9190610baf565b6103d5565b005b3480156101dc575f80fd5b506101e56105a5565b6040516101f29190610adc565b60405180910390f35b348015610206575f80fd5b5061020f6105ab565b60405161021c9190610adc565b60405180910390f35b348015610230575f80fd5b506102396105b1565b6040516102469190610c4a565b60405180910390f35b61026960048036038101906102649190610baf565b61063d565b005b348015610276575f80fd5b5061027f610722565b60405161028c9190610ca9565b60405180910390f35b3480156102a0575f80fd5b506102a9610747565b6040516102b69190610adc565b60405180910390f35b3480156102ca575f80fd5b506102d361074d565b6040516102ea9b9a99989796959493929190610cc2565b60405180910390f35b3480156102fe575f80fd5b5061030761086e565b6040516103149190610adc565b60405180910390f35b348015610328575f80fd5b50610331610874565b60405161033e9190610adc565b60405180910390f35b348015610352575f80fd5b5061035b61087a565b6040516103689190610adc565b60405180910390f35b34801561037c575f80fd5b50610385610880565b005b348015610392575f80fd5b5061039b610aa1565b6040516103a89190610ca9565b60405180910390f35b60035481565b600c5f9054906101000a900460ff1681565b600a5481565b60075481565b5f73ffffffffffffffffffffffffffffffffffffffff165f8054906101000a900473ffffffffffffffffffffffffffffffffffffffff1673ffffffffffffffffffffffffffffffffffffffff1614610462576040517f08c379a000000000000000000000000000000000000000000000000000000000815260040161045990610dbc565b60405180910390fd5b5f600381111561047557610474610af5565b5b600c5f9054906101000a900460ff16600381111561049657610495610af5565b5b146104d6576040517f08c379a00000000000000000000000000000000000000000000000000000000081526004016104cd90610dbc565b60405180910390fd5b335f806101000a81548173ffffffffffffffffffffffffffffffffffffffff021916908373ffffffffffffffffffffffffffffffffffffffff160217905550806008819055506001600c5f6101000a81548160ff0219169083600381111561054157610540610af5565b5b02179055507f68eb58567c132aaae8ed4559ab8909693f63fc76f4254842116c2bf8d6b973c05f8054906101000a900473ffffffffffffffffffffffffffffffffffffffff166009543060405161059a93929190610dda565b60405180910390a150565b60065481565b60055481565b600280546105be90610e3c565b80601f01602080910402602001604051908101604052809291908181526020018280546105ea90610e3c565b80156106355780601f1061060c57610100808354040283529160200191610635565b820191905f5260205f20905b81548152906001019060200180831161061857829003601f168201915b505050505081565b6001600381111561065157610650610af5565b5b600c5f9054906101000a900460ff16600381111561067257610671610af5565b5b146106b2576040517f08c379a00000000000000000000000000000000000000000000000000000000081526004016106a990610eb6565b60405180910390fd5b80600481905550806003546106c79190610f01565b600581905550600554600a54346106de9190610f42565b101561071f576040517f08c379a000000000000000000000000000000000000000000000000000000000815260040161071690610fbf565b60405180910390fd5b50565b60015f9054906101000a900473ffffffffffffffffffffffffffffffffffffffff1681565b60095481565b5f805f8060605f805f805f805f8054906101000a900473ffffffffffffffffffffffffffffffffffffffff1660085460015f9054906101000a900473ffffffffffffffffffffffffffffffffffffffff166007546002600654600354600454600554600954600c5f9054906101000a900460ff168680546107cd90610e3c565b80601f01602080910402602001604051908101604052809291908181526020018280546107f990610e3c565b80156108445780601f1061081b57610100808354040283529160200191610844565b820191905f5260205f20905b81548152906001019060200180831161082757829003601f168201915b505050505096509a509a509a509a509a509a509a509a509a509a509a50909192939495969798999a565b60045481565b60085481565b600b5481565b60015f9054906101000a900473ffffffffffffffffffffffffffffffffffffffff1673ffffffffffffffffffffffffffffffffffffffff163373ffffffffffffffffffffffffffffffffffffffff161461090f576040517f08c379a00000000000000000000000000000000000000000000000000000000081526004016109069061104d565b60405180910390fd5b6001600381111561092357610922610af5565b5b600c5f9054906101000a900460ff16600381111561094457610943610af5565b5b14610984576040517f08c379a000000000000000000000000000000000000000000000000000000000815260040161097b90610eb6565b60405180910390fd5b5f600b54146109c8576040517f08c379a00000000000000000000000000000000000000000000000000000000081526004016109bf906110db565b60405180910390fd5b600554600b819055505f8054906101000a900473ffffffffffffffffffffffffffffffffffffffff1673ffffffffffffffffffffffffffffffffffffffff166108fc60055490811502906040515f60405180830381858888f19350505050158015610a35573d5f803e3d5ffd5b506002600c5f6101000a81548160ff02191690836003811115610a5b57610a5a610af5565b5b02179055507fb398ec266cae176bd0a8d43b35200da0bb13c5620ad5e1663abdc3967a4ee50f600b5460095430604051610a97939291906110f9565b60405180910390a1565b5f8054906101000a900473ffffffffffffffffffffffffffffffffffffffff1681565b5f819050919050565b610ad681610ac4565b82525050565b5f602082019050610aef5f830184610acd565b92915050565b7f4e487b71000000000000000000000000000000000000000000000000000000005f52602160045260245ffd5b60048110610b3357610b32610af5565b5b50565b5f819050610b4382610b22565b919050565b5f610b5282610b36565b9050919050565b610b6281610b48565b82525050565b5f602082019050610b7b5f830184610b59565b92915050565b5f80fd5b610b8e81610ac4565b8114610b98575f80fd5b50565b5f81359050610ba981610b85565b92915050565b5f60208284031215610bc457610bc3610b81565b5b5f610bd184828501610b9b565b91505092915050565b5f81519050919050565b5f82825260208201905092915050565b8281835e5f83830152505050565b5f601f19601f8301169050919050565b5f610c1c82610bda565b610c268185610be4565b9350610c36818560208601610bf4565b610c3f81610c02565b840191505092915050565b5f6020820190508181035f830152610c628184610c12565b905092915050565b5f73ffffffffffffffffffffffffffffffffffffffff82169050919050565b5f610c9382610c6a565b9050919050565b610ca381610c89565b82525050565b5f602082019050610cbc5f830184610c9a565b92915050565b5f61016082019050610cd65f83018e610c9a565b610ce3602083018d610acd565b610cf0604083018c610c9a565b610cfd606083018b610acd565b8181036080830152610d0f818a610c12565b9050610d1e60a0830189610acd565b610d2b60c0830188610acd565b610d3860e0830187610acd565b610d46610100830186610acd565b610d54610120830185610acd565b610d62610140830184610b59565b9c9b505050505050505050505050565b7f436f6e747261637420616c726561647920636c61696d656400000000000000005f82015250565b5f610da6601883610be4565b9150610db182610d72565b602082019050919050565b5f6020820190508181035f830152610dd381610d9a565b9050919050565b5f606082019050610ded5f830186610c9a565b610dfa6020830185610acd565b610e076040830184610c9a565b949350505050565b7f4e487b71000000000000000000000000000000000000000000000000000000005f52602260045260245ffd5b5f6002820490506001821680610e5357607f821691505b602082108103610e6657610e65610e0f565b5b50919050565b7f436f6e7472616374206d757374206265206163746976650000000000000000005f82015250565b5f610ea0601783610be4565b9150610eab82610e6c565b602082019050919050565b5f6020820190508181035f830152610ecd81610e94565b9050919050565b7f4e487b71000000000000000000000000000000000000000000000000000000005f52601160045260245ffd5b5f610f0b82610ac4565b9150610f1683610ac4565b9250828202610f2481610ac4565b91508282048414831517610f3b57610f3a610ed4565b5b5092915050565b5f610f4c82610ac4565b9150610f5783610ac4565b9250828201905080821115610f6f57610f6e610ed4565b5b92915050565b7f496e73756666696369656e74206465706f7369742100000000000000000000005f82015250565b5f610fa9601583610be4565b9150610fb482610f75565b602082019050919050565b5f6020820190508181035f830152610fd681610f9d565b9050919050565b7f4f6e6c79207468652062757965722063616e2072656c65617365207061796d655f8201527f6e74000000000000000000000000000000000000000000000000000000000000602082015250565b5f611037602283610be4565b915061104282610fdd565b604082019050919050565b5f6020820190508181035f8301526110648161102b565b9050919050565b7f5061796d656e742068617320616c7265616479206265656e2072656c656173655f8201527f6400000000000000000000000000000000000000000000000000000000000000602082015250565b5f6110c5602183610be4565b91506110d08261106b565b604082019050919050565b5f6020820190508181035f8301526110f2816110b9565b9050919050565b5f60608201905061110c5f830186610acd565b6111196020830185610acd565b6111266040830184610c9a565b94935050505056fea2646970667358221220b3209363641f623026c42dc601dc192a47d9f7cc0d2ad4c60628b16ba330354364736f6c634300081a0033",
			"opcodes": "PUSH1 0x80 PUSH1 0x40 MSTORE PUSH1 0x40 MLOAD PUSH2 0x1874 CODESIZE SUB DUP1 PUSH2 0x1874 DUP4 CODECOPY DUP2 DUP2 ADD PUSH1 0x40 MSTORE DUP2 ADD SWAP1 PUSH2 0x25 SWAP2 SWAP1 PUSH2 0x2C8 JUMP JUMPDEST DUP8 PUSH1 0x1 PUSH0 PUSH2 0x100 EXP DUP2 SLOAD DUP2 PUSH20 0xFFFFFFFFFFFFFFFFFFFFFFFFFFFFFFFFFFFFFFFF MUL NOT AND SWAP1 DUP4 PUSH20 0xFFFFFFFFFFFFFFFFFFFFFFFFFFFFFFFFFFFFFFFF AND MUL OR SWAP1 SSTORE POP DUP7 PUSH1 0x2 SWAP1 DUP2 PUSH2 0x74 SWAP2 SWAP1 PUSH2 0x599 JUMP JUMPDEST POP DUP6 PUSH1 0x6 DUP2 SWAP1 SSTORE POP DUP5 PUSH1 0x3 DUP2 SWAP1 SSTORE POP DUP4 PUSH1 0x4 DUP2 SWAP1 SSTORE POP DUP4 DUP6 PUSH2 0x96 SWAP2 SWAP1 PUSH2 0x695 JUMP JUMPDEST PUSH1 0x5 DUP2 SWAP1 SSTORE POP DUP3 PUSH1 0x7 DUP2 SWAP1 SSTORE POP DUP2 PUSH1 0x9 DUP2 SWAP1 SSTORE POP DUP1 PUSH1 0xA DUP2 SWAP1 SSTORE POP PUSH0 PUSH1 0xB DUP2 SWAP1 SSTORE POP PUSH0 PUSH1 0xC PUSH0 PUSH2 0x100 EXP DUP2 SLOAD DUP2 PUSH1 0xFF MUL NOT AND SWAP1 DUP4 PUSH1 0x3 DUP2 GT ISZERO PUSH2 0xDC JUMPI PUSH2 0xDB PUSH2 0x6D6 JUMP JUMPDEST JUMPDEST MUL OR SWAP1 SSTORE POP POP POP POP POP POP POP POP POP PUSH2 0x703 JUMP JUMPDEST PUSH0 PUSH1 0x40 MLOAD SWAP1 POP SWAP1 JUMP JUMPDEST PUSH0 DUP1 REVERT JUMPDEST PUSH0 DUP1 REVERT JUMPDEST PUSH0 PUSH20 0xFFFFFFFFFFFFFFFFFFFFFFFFFFFFFFFFFFFFFFFF DUP3 AND SWAP1 POP SWAP2 SWAP1 POP JUMP JUMPDEST PUSH0 PUSH2 0x128 DUP3 PUSH2 0xFF JUMP JUMPDEST SWAP1 POP SWAP2 SWAP1 POP JUMP JUMPDEST PUSH2 0x138 DUP2 PUSH2 0x11E JUMP JUMPDEST DUP2 EQ PUSH2 0x142 JUMPI PUSH0 DUP1 REVERT JUMPDEST POP JUMP JUMPDEST PUSH0 DUP2 MLOAD SWAP1 POP PUSH2 0x153 DUP2 PUSH2 0x12F JUMP JUMPDEST SWAP3 SWAP2 POP POP JUMP JUMPDEST PUSH0 DUP1 REVERT JUMPDEST PUSH0 DUP1 REVERT JUMPDEST PUSH0 PUSH1 0x1F NOT PUSH1 0x1F DUP4 ADD AND SWAP1 POP SWAP2 SWAP1 POP JUMP JUMPDEST PUSH32 0x4E487B7100000000000000000000000000000000000000000000000000000000 PUSH0 MSTORE PUSH1 0x41 PUSH1 0x4 MSTORE PUSH1 0x24 PUSH0 REVERT JUMPDEST PUSH2 0x1A7 DUP3 PUSH2 0x161 JUMP JUMPDEST DUP2 ADD DUP2 DUP2 LT PUSH8 0xFFFFFFFFFFFFFFFF DUP3 GT OR ISZERO PUSH2 0x1C6 JUMPI PUSH2 0x1C5 PUSH2 0x171 JUMP JUMPDEST JUMPDEST DUP1 PUSH1 0x40 MSTORE POP POP POP JUMP JUMPDEST PUSH0 PUSH2 0x1D8 PUSH2 0xEE JUMP JUMPDEST SWAP1 POP PUSH2 0x1E4 DUP3 DUP3 PUSH2 0x19E JUMP JUMPDEST SWAP2 SWAP1 POP JUMP JUMPDEST PUSH0 PUSH8 0xFFFFFFFFFFFFFFFF DUP3 GT ISZERO PUSH2 0x203 JUMPI PUSH2 0x202 PUSH2 0x171 JUMP JUMPDEST JUMPDEST PUSH2 0x20C DUP3 PUSH2 0x161 JUMP JUMPDEST SWAP1 POP PUSH1 0x20 DUP2 ADD SWAP1 POP SWAP2 SWAP1 POP JUMP JUMPDEST DUP3 DUP2 DUP4 MCOPY PUSH0 DUP4 DUP4 ADD MSTORE POP POP POP JUMP JUMPDEST PUSH0 PUSH2 0x239 PUSH2 0x234 DUP5 PUSH2 0x1E9 JUMP JUMPDEST PUSH2 0x1CF JUMP JUMPDEST SWAP1 POP DUP3 DUP2 MSTORE PUSH1 0x20 DUP2 ADD DUP5 DUP5 DUP5 ADD GT ISZERO PUSH2 0x255 JUMPI PUSH2 0x254 PUSH2 0x15D JUMP JUMPDEST JUMPDEST PUSH2 0x260 DUP5 DUP3 DUP6 PUSH2 0x219 JUMP JUMPDEST POP SWAP4 SWAP3 POP POP POP JUMP JUMPDEST PUSH0 DUP3 PUSH1 0x1F DUP4 ADD SLT PUSH2 0x27C JUMPI PUSH2 0x27B PUSH2 0x159 JUMP JUMPDEST JUMPDEST DUP2 MLOAD PUSH2 0x28C DUP5 DUP3 PUSH1 0x20 DUP7 ADD PUSH2 0x227 JUMP JUMPDEST SWAP2 POP POP SWAP3 SWAP2 POP POP JUMP JUMPDEST PUSH0 DUP2 SWAP1 POP SWAP2 SWAP1 POP JUMP JUMPDEST PUSH2 0x2A7 DUP2 PUSH2 0x295 JUMP JUMPDEST DUP2 EQ PUSH2 0x2B1 JUMPI PUSH0 DUP1 REVERT JUMPDEST POP JUMP JUMPDEST PUSH0 DUP2 MLOAD SWAP1 POP PUSH2 0x2C2 DUP2 PUSH2 0x29E JUMP JUMPDEST SWAP3 SWAP2 POP POP JUMP JUMPDEST PUSH0 DUP1 PUSH0 DUP1 PUSH0 DUP1 PUSH0 DUP1 PUSH2 0x100 DUP10 DUP12 SUB SLT ISZERO PUSH2 0x2E5 JUMPI PUSH2 0x2E4 PUSH2 0xF7 JUMP JUMPDEST JUMPDEST PUSH0 PUSH2 0x2F2 DUP12 DUP3 DUP13 ADD PUSH2 0x145 JUMP JUMPDEST SWAP9 POP POP PUSH1 0x20 DUP10 ADD MLOAD PUSH8 0xFFFFFFFFFFFFFFFF DUP2 GT ISZERO PUSH2 0x313 JUMPI PUSH2 0x312 PUSH2 0xFB JUMP JUMPDEST JUMPDEST PUSH2 0x31F DUP12 DUP3 DUP13 ADD PUSH2 0x268 JUMP JUMPDEST SWAP8 POP POP PUSH1 0x40 PUSH2 0x330 DUP12 DUP3 DUP13 ADD PUSH2 0x2B4 JUMP JUMPDEST SWAP7 POP POP PUSH1 0x60 PUSH2 0x341 DUP12 DUP3 DUP13 ADD PUSH2 0x2B4 JUMP JUMPDEST SWAP6 POP POP PUSH1 0x80 PUSH2 0x352 DUP12 DUP3 DUP13 ADD PUSH2 0x2B4 JUMP JUMPDEST SWAP5 POP POP PUSH1 0xA0 PUSH2 0x363 DUP12 DUP3 DUP13 ADD PUSH2 0x2B4 JUMP JUMPDEST SWAP4 POP POP PUSH1 0xC0 PUSH2 0x374 DUP12 DUP3 DUP13 ADD PUSH2 0x2B4 JUMP JUMPDEST SWAP3 POP POP PUSH1 0xE0 PUSH2 0x385 DUP12 DUP3 DUP13 ADD PUSH2 0x2B4 JUMP JUMPDEST SWAP2 POP POP SWAP3 SWAP6 SWAP9 POP SWAP3 SWAP6 SWAP9 SWAP1 SWAP4 SWAP7 POP JUMP JUMPDEST PUSH0 DUP2 MLOAD SWAP1 POP SWAP2 SWAP1 POP JUMP JUMPDEST PUSH32 0x4E487B7100000000000000000000000000000000000000000000000000000000 PUSH0 MSTORE PUSH1 0x22 PUSH1 0x4 MSTORE PUSH1 0x24 PUSH0 REVERT JUMPDEST PUSH0 PUSH1 0x2 DUP3 DIV SWAP1 POP PUSH1 0x1 DUP3 AND DUP1 PUSH2 0x3E3 JUMPI PUSH1 0x7F DUP3 AND SWAP2 POP JUMPDEST PUSH1 0x20 DUP3 LT DUP2 SUB PUSH2 0x3F6 JUMPI PUSH2 0x3F5 PUSH2 0x39F JUMP JUMPDEST JUMPDEST POP SWAP2 SWAP1 POP JUMP JUMPDEST PUSH0 DUP2 SWAP1 POP DUP2 PUSH0 MSTORE PUSH1 0x20 PUSH0 KECCAK256 SWAP1 POP SWAP2 SWAP1 POP JUMP JUMPDEST PUSH0 PUSH1 0x20 PUSH1 0x1F DUP4 ADD DIV SWAP1 POP SWAP2 SWAP1 POP JUMP JUMPDEST PUSH0 DUP3 DUP3 SHL SWAP1 POP SWAP3 SWAP2 POP POP JUMP JUMPDEST PUSH0 PUSH1 0x8 DUP4 MUL PUSH2 0x458 PUSH32 0xFFFFFFFFFFFFFFFFFFFFFFFFFFFFFFFFFFFFFFFFFFFFFFFFFFFFFFFFFFFFFFFF DUP3 PUSH2 0x41D JUMP JUMPDEST PUSH2 0x462 DUP7 DUP4 PUSH2 0x41D JUMP JUMPDEST SWAP6 POP DUP1 NOT DUP5 AND SWAP4 POP DUP1 DUP7 AND DUP5 OR SWAP3 POP POP POP SWAP4 SWAP3 POP POP POP JUMP JUMPDEST PUSH0 DUP2 SWAP1 POP SWAP2 SWAP1 POP JUMP JUMPDEST PUSH0 PUSH2 0x49D PUSH2 0x498 PUSH2 0x493 DUP5 PUSH2 0x295 JUMP JUMPDEST PUSH2 0x47A JUMP JUMPDEST PUSH2 0x295 JUMP JUMPDEST SWAP1 POP SWAP2 SWAP1 POP JUMP JUMPDEST PUSH0 DUP2 SWAP1 POP SWAP2 SWAP1 POP JUMP JUMPDEST PUSH2 0x4B6 DUP4 PUSH2 0x483 JUMP JUMPDEST PUSH2 0x4CA PUSH2 0x4C2 DUP3 PUSH2 0x4A4 JUMP JUMPDEST DUP5 DUP5 SLOAD PUSH2 0x429 JUMP JUMPDEST DUP3 SSTORE POP POP POP POP JUMP JUMPDEST PUSH0 SWAP1 JUMP JUMPDEST PUSH2 0x4DE PUSH2 0x4D2 JUMP JUMPDEST PUSH2 0x4E9 DUP2 DUP5 DUP5 PUSH2 0x4AD JUMP JUMPDEST POP POP POP JUMP JUMPDEST JUMPDEST DUP2 DUP2 LT ISZERO PUSH2 0x50C JUMPI PUSH2 0x501 PUSH0 DUP3 PUSH2 0x4D6 JUMP JUMPDEST PUSH1 0x1 DUP2 ADD SWAP1 POP PUSH2 0x4EF JUMP JUMPDEST POP POP JUMP JUMPDEST PUSH1 0x1F DUP3 GT ISZERO PUSH2 0x551 JUMPI PUSH2 0x522 DUP2 PUSH2 0x3FC JUMP JUMPDEST PUSH2 0x52B DUP5 PUSH2 0x40E JUMP JUMPDEST DUP2 ADD PUSH1 0x20 DUP6 LT ISZERO PUSH2 0x53A JUMPI DUP2 SWAP1 POP JUMPDEST PUSH2 0x54E PUSH2 0x546 DUP6 PUSH2 0x40E JUMP JUMPDEST DUP4 ADD DUP3 PUSH2 0x4EE JUMP JUMPDEST POP POP JUMPDEST POP POP POP JUMP JUMPDEST PUSH0 DUP3 DUP3 SHR SWAP1 POP SWAP3 SWAP2 POP POP JUMP JUMPDEST PUSH0 PUSH2 0x571 PUSH0 NOT DUP5 PUSH1 0x8 MUL PUSH2 0x556 JUMP JUMPDEST NOT DUP1 DUP4 AND SWAP2 POP POP SWAP3 SWAP2 POP POP JUMP JUMPDEST PUSH0 PUSH2 0x589 DUP4 DUP4 PUSH2 0x562 JUMP JUMPDEST SWAP2 POP DUP3 PUSH1 0x2 MUL DUP3 OR SWAP1 POP SWAP3 SWAP2 POP POP JUMP JUMPDEST PUSH2 0x5A2 DUP3 PUSH2 0x395 JUMP JUMPDEST PUSH8 0xFFFFFFFFFFFFFFFF DUP2 GT ISZERO PUSH2 0x5BB JUMPI PUSH2 0x5BA PUSH2 0x171 JUMP JUMPDEST JUMPDEST PUSH2 0x5C5 DUP3 SLOAD PUSH2 0x3CC JUMP JUMPDEST PUSH2 0x5D0 DUP3 DUP3 DUP6 PUSH2 0x510 JUMP JUMPDEST PUSH0 PUSH1 0x20 SWAP1 POP PUSH1 0x1F DUP4 GT PUSH1 0x1 DUP2 EQ PUSH2 0x601 JUMPI PUSH0 DUP5 ISZERO PUSH2 0x5EF JUMPI DUP3 DUP8 ADD MLOAD SWAP1 POP JUMPDEST PUSH2 0x5F9 DUP6 DUP3 PUSH2 0x57E JUMP JUMPDEST DUP7 SSTORE POP PUSH2 0x660 JUMP JUMPDEST PUSH1 0x1F NOT DUP5 AND PUSH2 0x60F DUP7 PUSH2 0x3FC JUMP JUMPDEST PUSH0 JUMPDEST DUP3 DUP2 LT ISZERO PUSH2 0x636 JUMPI DUP5 DUP10 ADD MLOAD DUP3 SSTORE PUSH1 0x1 DUP3 ADD SWAP2 POP PUSH1 0x20 DUP6 ADD SWAP5 POP PUSH1 0x20 DUP2 ADD SWAP1 POP PUSH2 0x611 JUMP JUMPDEST DUP7 DUP4 LT ISZERO PUSH2 0x653 JUMPI DUP5 DUP10 ADD MLOAD PUSH2 0x64F PUSH1 0x1F DUP10 AND DUP3 PUSH2 0x562 JUMP JUMPDEST DUP4 SSTORE POP JUMPDEST PUSH1 0x1 PUSH1 0x2 DUP9 MUL ADD DUP9 SSTORE POP POP POP JUMPDEST POP POP POP POP POP POP JUMP JUMPDEST PUSH32 0x4E487B7100000000000000000000000000000000000000000000000000000000 PUSH0 MSTORE PUSH1 0x11 PUSH1 0x4 MSTORE PUSH1 0x24 PUSH0 REVERT JUMPDEST PUSH0 PUSH2 0x69F DUP3 PUSH2 0x295 JUMP JUMPDEST SWAP2 POP PUSH2 0x6AA DUP4 PUSH2 0x295 JUMP JUMPDEST SWAP3 POP DUP3 DUP3 MUL PUSH2 0x6B8 DUP2 PUSH2 0x295 JUMP JUMPDEST SWAP2 POP DUP3 DUP3 DIV DUP5 EQ DUP4 ISZERO OR PUSH2 0x6CF JUMPI PUSH2 0x6CE PUSH2 0x668 JUMP JUMPDEST JUMPDEST POP SWAP3 SWAP2 POP POP JUMP JUMPDEST PUSH32 0x4E487B7100000000000000000000000000000000000000000000000000000000 PUSH0 MSTORE PUSH1 0x21 PUSH1 0x4 MSTORE PUSH1 0x24 PUSH0 REVERT JUMPDEST PUSH2 0x1164 DUP1 PUSH2 0x710 PUSH0 CODECOPY PUSH0 RETURN INVALID PUSH1 0x80 PUSH1 0x40 MSTORE PUSH1 0x4 CALLDATASIZE LT PUSH2 0xFD JUMPI PUSH0 CALLDATALOAD PUSH1 0xE0 SHR DUP1 PUSH4 0x6B749C47 GT PUSH2 0x94 JUMPI DUP1 PUSH4 0xA145C2EE GT PUSH2 0x63 JUMPI DUP1 PUSH4 0xA145C2EE EQ PUSH2 0x2F3 JUMPI DUP1 PUSH4 0xBBF64B2B EQ PUSH2 0x31D JUMPI DUP1 PUSH4 0xC63735B3 EQ PUSH2 0x347 JUMPI DUP1 PUSH4 0xD116C8C4 EQ PUSH2 0x371 JUMPI DUP1 PUSH4 0xD811FCF0 EQ PUSH2 0x387 JUMPI PUSH2 0xFD JUMP JUMPDEST DUP1 PUSH4 0x6B749C47 EQ PUSH2 0x24F JUMPI DUP1 PUSH4 0x7150D8AE EQ PUSH2 0x26B JUMPI DUP1 PUSH4 0x91F30BD4 EQ PUSH2 0x295 JUMPI DUP1 PUSH4 0x9DFC9117 EQ PUSH2 0x2BF JUMPI PUSH2 0xFD JUMP JUMPDEST DUP1 PUSH4 0x41E8A188 GT PUSH2 0xD0 JUMPI DUP1 PUSH4 0x41E8A188 EQ PUSH2 0x1A9 JUMPI DUP1 PUSH4 0x57549EB0 EQ PUSH2 0x1D1 JUMPI DUP1 PUSH4 0x58EEABBC EQ PUSH2 0x1FB JUMPI DUP1 PUSH4 0x62B1F2ED EQ PUSH2 0x225 JUMPI PUSH2 0xFD JUMP JUMPDEST DUP1 PUSH4 0x17FC45E2 EQ PUSH2 0x101 JUMPI DUP1 PUSH4 0x200D2ED2 EQ PUSH2 0x12B JUMPI DUP1 PUSH4 0x2199A57D EQ PUSH2 0x155 JUMPI DUP1 PUSH4 0x263F68AE EQ PUSH2 0x17F JUMPI JUMPDEST PUSH0 DUP1 REVERT JUMPDEST CALLVALUE DUP1 ISZERO PUSH2 0x10C JUMPI PUSH0 DUP1 REVERT JUMPDEST POP PUSH2 0x115 PUSH2 0x3B1 JUMP JUMPDEST PUSH1 0x40 MLOAD PUSH2 0x122 SWAP2 SWAP1 PUSH2 0xADC JUMP JUMPDEST PUSH1 0x40 MLOAD DUP1 SWAP2 SUB SWAP1 RETURN JUMPDEST CALLVALUE DUP1 ISZERO PUSH2 0x136 JUMPI PUSH0 DUP1 REVERT JUMPDEST POP PUSH2 0x13F PUSH2 0x3B7 JUMP JUMPDEST PUSH1 0x40 MLOAD PUSH2 0x14C SWAP2 SWAP1 PUSH2 0xB68 JUMP JUMPDEST PUSH1 0x40 MLOAD DUP1 SWAP2 SUB SWAP1 RETURN JUMPDEST CALLVALUE DUP1 ISZERO PUSH2 0x160 JUMPI PUSH0 DUP1 REVERT JUMPDEST POP PUSH2 0x169 PUSH2 0x3C9 JUMP JUMPDEST PUSH1 0x40 MLOAD PUSH2 0x176 SWAP2 SWAP1 PUSH2 0xADC JUMP JUMPDEST PUSH1 0x40 MLOAD DUP1 SWAP2 SUB SWAP1 RETURN JUMPDEST CALLVALUE DUP1 ISZERO PUSH2 0x18A JUMPI PUSH0 DUP1 REVERT JUMPDEST POP PUSH2 0x193 PUSH2 0x3CF JUMP JUMPDEST PUSH1 0x40 MLOAD PUSH2 0x1A0 SWAP2 SWAP1 PUSH2 0xADC JUMP JUMPDEST PUSH1 0x40 MLOAD DUP1 SWAP2 SUB SWAP1 RETURN JUMPDEST CALLVALUE DUP1 ISZERO PUSH2 0x1B4 JUMPI PUSH0 DUP1 REVERT JUMPDEST POP PUSH2 0x1CF PUSH1 0x4 DUP1 CALLDATASIZE SUB DUP2 ADD SWAP1 PUSH2 0x1CA SWAP2 SWAP1 PUSH2 0xBAF JUMP JUMPDEST PUSH2 0x3D5 JUMP JUMPDEST STOP JUMPDEST CALLVALUE DUP1 ISZERO PUSH2 0x1DC JUMPI PUSH0 DUP1 REVERT JUMPDEST POP PUSH2 0x1E5 PUSH2 0x5A5 JUMP JUMPDEST PUSH1 0x40 MLOAD PUSH2 0x1F2 SWAP2 SWAP1 PUSH2 0xADC JUMP JUMPDEST PUSH1 0x40 MLOAD DUP1 SWAP2 SUB SWAP1 RETURN JUMPDEST CALLVALUE DUP1 ISZERO PUSH2 0x206 JUMPI PUSH0 DUP1 REVERT JUMPDEST POP PUSH2 0x20F PUSH2 0x5AB JUMP JUMPDEST PUSH1 0x40 MLOAD PUSH2 0x21C SWAP2 SWAP1 PUSH2 0xADC JUMP JUMPDEST PUSH1 0x40 MLOAD DUP1 SWAP2 SUB SWAP1 RETURN JUMPDEST CALLVALUE DUP1 ISZERO PUSH2 0x230 JUMPI PUSH0 DUP1 REVERT JUMPDEST POP PUSH2 0x239 PUSH2 0x5B1 JUMP JUMPDEST PUSH1 0x40 MLOAD PUSH2 0x246 SWAP2 SWAP1 PUSH2 0xC4A JUMP JUMPDEST PUSH1 0x40 MLOAD DUP1 SWAP2 SUB SWAP1 RETURN JUMPDEST PUSH2 0x269 PUSH1 0x4 DUP1 CALLDATASIZE SUB DUP2 ADD SWAP1 PUSH2 0x264 SWAP2 SWAP1 PUSH2 0xBAF JUMP JUMPDEST PUSH2 0x63D JUMP JUMPDEST STOP JUMPDEST CALLVALUE DUP1 ISZERO PUSH2 0x276 JUMPI PUSH0 DUP1 REVERT JUMPDEST POP PUSH2 0x27F PUSH2 0x722 JUMP JUMPDEST PUSH1 0x40 MLOAD PUSH2 0x28C SWAP2 SWAP1 PUSH2 0xCA9 JUMP JUMPDEST PUSH1 0x40 MLOAD DUP1 SWAP2 SUB SWAP1 RETURN JUMPDEST CALLVALUE DUP1 ISZERO PUSH2 0x2A0 JUMPI PUSH0 DUP1 REVERT JUMPDEST POP PUSH2 0x2A9 PUSH2 0x747 JUMP JUMPDEST PUSH1 0x40 MLOAD PUSH2 0x2B6 SWAP2 SWAP1 PUSH2 0xADC JUMP JUMPDEST PUSH1 0x40 MLOAD DUP1 SWAP2 SUB SWAP1 RETURN JUMPDEST CALLVALUE DUP1 ISZERO PUSH2 0x2CA JUMPI PUSH0 DUP1 REVERT JUMPDEST POP PUSH2 0x2D3 PUSH2 0x74D JUMP JUMPDEST PUSH1 0x40 MLOAD PUSH2 0x2EA SWAP12 SWAP11 SWAP10 SWAP9 SWAP8 SWAP7 SWAP6 SWAP5 SWAP4 SWAP3 SWAP2 SWAP1 PUSH2 0xCC2 JUMP JUMPDEST PUSH1 0x40 MLOAD DUP1 SWAP2 SUB SWAP1 RETURN JUMPDEST CALLVALUE DUP1 ISZERO PUSH2 0x2FE JUMPI PUSH0 DUP1 REVERT JUMPDEST POP PUSH2 0x307 PUSH2 0x86E JUMP JUMPDEST PUSH1 0x40 MLOAD PUSH2 0x314 SWAP2 SWAP1 PUSH2 0xADC JUMP JUMPDEST PUSH1 0x40 MLOAD DUP1 SWAP2 SUB SWAP1 RETURN JUMPDEST CALLVALUE DUP1 ISZERO PUSH2 0x328 JUMPI PUSH0 DUP1 REVERT JUMPDEST POP PUSH2 0x331 PUSH2 0x874 JUMP JUMPDEST PUSH1 0x40 MLOAD PUSH2 0x33E SWAP2 SWAP1 PUSH2 0xADC JUMP JUMPDEST PUSH1 0x40 MLOAD DUP1 SWAP2 SUB SWAP1 RETURN JUMPDEST CALLVALUE DUP1 ISZERO PUSH2 0x352 JUMPI PUSH0 DUP1 REVERT JUMPDEST POP PUSH2 0x35B PUSH2 0x87A JUMP JUMPDEST PUSH1 0x40 MLOAD PUSH2 0x368 SWAP2 SWAP1 PUSH2 0xADC JUMP JUMPDEST PUSH1 0x40 MLOAD DUP1 SWAP2 SUB SWAP1 RETURN JUMPDEST CALLVALUE DUP1 ISZERO PUSH2 0x37C JUMPI PUSH0 DUP1 REVERT JUMPDEST POP PUSH2 0x385 PUSH2 0x880 JUMP JUMPDEST STOP JUMPDEST CALLVALUE DUP1 ISZERO PUSH2 0x392 JUMPI PUSH0 DUP1 REVERT JUMPDEST POP PUSH2 0x39B PUSH2 0xAA1 JUMP JUMPDEST PUSH1 0x40 MLOAD PUSH2 0x3A8 SWAP2 SWAP1 PUSH2 0xCA9 JUMP JUMPDEST PUSH1 0x40 MLOAD DUP1 SWAP2 SUB SWAP1 RETURN JUMPDEST PUSH1 0x3 SLOAD DUP2 JUMP JUMPDEST PUSH1 0xC PUSH0 SWAP1 SLOAD SWAP1 PUSH2 0x100 EXP SWAP1 DIV PUSH1 0xFF AND DUP2 JUMP JUMPDEST PUSH1 0xA SLOAD DUP2 JUMP JUMPDEST PUSH1 0x7 SLOAD DUP2 JUMP JUMPDEST PUSH0 PUSH20 0xFFFFFFFFFFFFFFFFFFFFFFFFFFFFFFFFFFFFFFFF AND PUSH0 DUP1 SLOAD SWAP1 PUSH2 0x100 EXP SWAP1 DIV PUSH20 0xFFFFFFFFFFFFFFFFFFFFFFFFFFFFFFFFFFFFFFFF AND PUSH20 0xFFFFFFFFFFFFFFFFFFFFFFFFFFFFFFFFFFFFFFFF AND EQ PUSH2 0x462 JUMPI PUSH1 0x40 MLOAD PUSH32 0x8C379A000000000000000000000000000000000000000000000000000000000 DUP2 MSTORE PUSH1 0x4 ADD PUSH2 0x459 SWAP1 PUSH2 0xDBC JUMP JUMPDEST PUSH1 0x40 MLOAD DUP1 SWAP2 SUB SWAP1 REVERT JUMPDEST PUSH0 PUSH1 0x3 DUP2 GT ISZERO PUSH2 0x475 JUMPI PUSH2 0x474 PUSH2 0xAF5 JUMP JUMPDEST JUMPDEST PUSH1 0xC PUSH0 SWAP1 SLOAD SWAP1 PUSH2 0x100 EXP SWAP1 DIV PUSH1 0xFF AND PUSH1 0x3 DUP2 GT ISZERO PUSH2 0x496 JUMPI PUSH2 0x495 PUSH2 0xAF5 JUMP JUMPDEST JUMPDEST EQ PUSH2 0x4D6 JUMPI PUSH1 0x40 MLOAD PUSH32 0x8C379A000000000000000000000000000000000000000000000000000000000 DUP2 MSTORE PUSH1 0x4 ADD PUSH2 0x4CD SWAP1 PUSH2 0xDBC JUMP JUMPDEST PUSH1 0x40 MLOAD DUP1 SWAP2 SUB SWAP1 REVERT JUMPDEST CALLER PUSH0 DUP1 PUSH2 0x100 EXP DUP2 SLOAD DUP2 PUSH20 0xFFFFFFFFFFFFFFFFFFFFFFFFFFFFFFFFFFFFFFFF MUL NOT AND SWAP1 DUP4 PUSH20 0xFFFFFFFFFFFFFFFFFFFFFFFFFFFFFFFFFFFFFFFF AND MUL OR SWAP1 SSTORE POP DUP1 PUSH1 0x8 DUP2 SWAP1 SSTORE POP PUSH1 0x1 PUSH1 0xC PUSH0 PUSH2 0x100 EXP DUP2 SLOAD DUP2 PUSH1 0xFF MUL NOT AND SWAP1 DUP4 PUSH1 0x3 DUP2 GT ISZERO PUSH2 0x541 JUMPI PUSH2 0x540 PUSH2 0xAF5 JUMP JUMPDEST JUMPDEST MUL OR SWAP1 SSTORE POP PUSH32 0x68EB58567C132AAAE8ED4559AB8909693F63FC76F4254842116C2BF8D6B973C0 PUSH0 DUP1 SLOAD SWAP1 PUSH2 0x100 EXP SWAP1 DIV PUSH20 0xFFFFFFFFFFFFFFFFFFFFFFFFFFFFFFFFFFFFFFFF AND PUSH1 0x9 SLOAD ADDRESS PUSH1 0x40 MLOAD PUSH2 0x59A SWAP4 SWAP3 SWAP2 SWAP1 PUSH2 0xDDA JUMP JUMPDEST PUSH1 0x40 MLOAD DUP1 SWAP2 SUB SWAP1 LOG1 POP JUMP JUMPDEST PUSH1 0x6 SLOAD DUP2 JUMP JUMPDEST PUSH1 0x5 SLOAD DUP2 JUMP JUMPDEST PUSH1 0x2 DUP1 SLOAD PUSH2 0x5BE SWAP1 PUSH2 0xE3C JUMP JUMPDEST DUP1 PUSH1 0x1F ADD PUSH1 0x20 DUP1 SWAP2 DIV MUL PUSH1 0x20 ADD PUSH1 0x40 MLOAD SWAP1 DUP2 ADD PUSH1 0x40 MSTORE DUP1 SWAP3 SWAP2 SWAP1 DUP2 DUP2 MSTORE PUSH1 0x20 ADD DUP3 DUP1 SLOAD PUSH2 0x5EA SWAP1 PUSH2 0xE3C JUMP JUMPDEST DUP1 ISZERO PUSH2 0x635 JUMPI DUP1 PUSH1 0x1F LT PUSH2 0x60C JUMPI PUSH2 0x100 DUP1 DUP4 SLOAD DIV MUL DUP4 MSTORE SWAP2 PUSH1 0x20 ADD SWAP2 PUSH2 0x635 JUMP JUMPDEST DUP3 ADD SWAP2 SWAP1 PUSH0 MSTORE PUSH1 0x20 PUSH0 KECCAK256 SWAP1 JUMPDEST DUP2 SLOAD DUP2 MSTORE SWAP1 PUSH1 0x1 ADD SWAP1 PUSH1 0x20 ADD DUP1 DUP4 GT PUSH2 0x618 JUMPI DUP3 SWAP1 SUB PUSH1 0x1F AND DUP3 ADD SWAP2 JUMPDEST POP POP POP POP POP DUP2 JUMP JUMPDEST PUSH1 0x1 PUSH1 0x3 DUP2 GT ISZERO PUSH2 0x651 JUMPI PUSH2 0x650 PUSH2 0xAF5 JUMP JUMPDEST JUMPDEST PUSH1 0xC PUSH0 SWAP1 SLOAD SWAP1 PUSH2 0x100 EXP SWAP1 DIV PUSH1 0xFF AND PUSH1 0x3 DUP2 GT ISZERO PUSH2 0x672 JUMPI PUSH2 0x671 PUSH2 0xAF5 JUMP JUMPDEST JUMPDEST EQ PUSH2 0x6B2 JUMPI PUSH1 0x40 MLOAD PUSH32 0x8C379A000000000000000000000000000000000000000000000000000000000 DUP2 MSTORE PUSH1 0x4 ADD PUSH2 0x6A9 SWAP1 PUSH2 0xEB6 JUMP JUMPDEST PUSH1 0x40 MLOAD DUP1 SWAP2 SUB SWAP1 REVERT JUMPDEST DUP1 PUSH1 0x4 DUP2 SWAP1 SSTORE POP DUP1 PUSH1 0x3 SLOAD PUSH2 0x6C7 SWAP2 SWAP1 PUSH2 0xF01 JUMP JUMPDEST PUSH1 0x5 DUP2 SWAP1 SSTORE POP PUSH1 0x5 SLOAD PUSH1 0xA SLOAD CALLVALUE PUSH2 0x6DE SWAP2 SWAP1 PUSH2 0xF42 JUMP JUMPDEST LT ISZERO PUSH2 0x71F JUMPI PUSH1 0x40 MLOAD PUSH32 0x8C379A000000000000000000000000000000000000000000000000000000000 DUP2 MSTORE PUSH1 0x4 ADD PUSH2 0x716 SWAP1 PUSH2 0xFBF JUMP JUMPDEST PUSH1 0x40 MLOAD DUP1 SWAP2 SUB SWAP1 REVERT JUMPDEST POP JUMP JUMPDEST PUSH1 0x1 PUSH0 SWAP1 SLOAD SWAP1 PUSH2 0x100 EXP SWAP1 DIV PUSH20 0xFFFFFFFFFFFFFFFFFFFFFFFFFFFFFFFFFFFFFFFF AND DUP2 JUMP JUMPDEST PUSH1 0x9 SLOAD DUP2 JUMP JUMPDEST PUSH0 DUP1 PUSH0 DUP1 PUSH1 0x60 PUSH0 DUP1 PUSH0 DUP1 PUSH0 DUP1 PUSH0 DUP1 SLOAD SWAP1 PUSH2 0x100 EXP SWAP1 DIV PUSH20 0xFFFFFFFFFFFFFFFFFFFFFFFFFFFFFFFFFFFFFFFF AND PUSH1 0x8 SLOAD PUSH1 0x1 PUSH0 SWAP1 SLOAD SWAP1 PUSH2 0x100 EXP SWAP1 DIV PUSH20 0xFFFFFFFFFFFFFFFFFFFFFFFFFFFFFFFFFFFFFFFF AND PUSH1 0x7 SLOAD PUSH1 0x2 PUSH1 0x6 SLOAD PUSH1 0x3 SLOAD PUSH1 0x4 SLOAD PUSH1 0x5 SLOAD PUSH1 0x9 SLOAD PUSH1 0xC PUSH0 SWAP1 SLOAD SWAP1 PUSH2 0x100 EXP SWAP1 DIV PUSH1 0xFF AND DUP7 DUP1 SLOAD PUSH2 0x7CD SWAP1 PUSH2 0xE3C JUMP JUMPDEST DUP1 PUSH1 0x1F ADD PUSH1 0x20 DUP1 SWAP2 DIV MUL PUSH1 0x20 ADD PUSH1 0x40 MLOAD SWAP1 DUP2 ADD PUSH1 0x40 MSTORE DUP1 SWAP3 SWAP2 SWAP1 DUP2 DUP2 MSTORE PUSH1 0x20 ADD DUP3 DUP1 SLOAD PUSH2 0x7F9 SWAP1 PUSH2 0xE3C JUMP JUMPDEST DUP1 ISZERO PUSH2 0x844 JUMPI DUP1 PUSH1 0x1F LT PUSH2 0x81B JUMPI PUSH2 0x100 DUP1 DUP4 SLOAD DIV MUL DUP4 MSTORE SWAP2 PUSH1 0x20 ADD SWAP2 PUSH2 0x844 JUMP JUMPDEST DUP3 ADD SWAP2 SWAP1 PUSH0 MSTORE PUSH1 0x20 PUSH0 KECCAK256 SWAP1 JUMPDEST DUP2 SLOAD DUP2 MSTORE SWAP1 PUSH1 0x1 ADD SWAP1 PUSH1 0x20 ADD DUP1 DUP4 GT PUSH2 0x827 JUMPI DUP3 SWAP1 SUB PUSH1 0x1F AND DUP3 ADD SWAP2 JUMPDEST POP POP POP POP POP SWAP7 POP SWAP11 POP SWAP11 POP SWAP11 POP SWAP11 POP SWAP11 POP SWAP11 POP SWAP11 POP SWAP11 POP SWAP11 POP SWAP11 POP SWAP11 POP SWAP1 SWAP2 SWAP3 SWAP4 SWAP5 SWAP6 SWAP7 SWAP8 SWAP9 SWAP10 SWAP11 JUMP JUMPDEST PUSH1 0x4 SLOAD DUP2 JUMP JUMPDEST PUSH1 0x8 SLOAD DUP2 JUMP JUMPDEST PUSH1 0xB SLOAD DUP2 JUMP JUMPDEST PUSH1 0x1 PUSH0 SWAP1 SLOAD SWAP1 PUSH2 0x100 EXP SWAP1 DIV PUSH20 0xFFFFFFFFFFFFFFFFFFFFFFFFFFFFFFFFFFFFFFFF AND PUSH20 0xFFFFFFFFFFFFFFFFFFFFFFFFFFFFFFFFFFFFFFFF AND CALLER PUSH20 0xFFFFFFFFFFFFFFFFFFFFFFFFFFFFFFFFFFFFFFFF AND EQ PUSH2 0x90F JUMPI PUSH1 0x40 MLOAD PUSH32 0x8C379A000000000000000000000000000000000000000000000000000000000 DUP2 MSTORE PUSH1 0x4 ADD PUSH2 0x906 SWAP1 PUSH2 0x104D JUMP JUMPDEST PUSH1 0x40 MLOAD DUP1 SWAP2 SUB SWAP1 REVERT JUMPDEST PUSH1 0x1 PUSH1 0x3 DUP2 GT ISZERO PUSH2 0x923 JUMPI PUSH2 0x922 PUSH2 0xAF5 JUMP JUMPDEST JUMPDEST PUSH1 0xC PUSH0 SWAP1 SLOAD SWAP1 PUSH2 0x100 EXP SWAP1 DIV PUSH1 0xFF AND PUSH1 0x3 DUP2 GT ISZERO PUSH2 0x944 JUMPI PUSH2 0x943 PUSH2 0xAF5 JUMP JUMPDEST JUMPDEST EQ PUSH2 0x984 JUMPI PUSH1 0x40 MLOAD PUSH32 0x8C379A000000000000000000000000000000000000000000000000000000000 DUP2 MSTORE PUSH1 0x4 ADD PUSH2 0x97B SWAP1 PUSH2 0xEB6 JUMP JUMPDEST PUSH1 0x40 MLOAD DUP1 SWAP2 SUB SWAP1 REVERT JUMPDEST PUSH0 PUSH1 0xB SLOAD EQ PUSH2 0x9C8 JUMPI PUSH1 0x40 MLOAD PUSH32 0x8C379A000000000000000000000000000000000000000000000000000000000 DUP2 MSTORE PUSH1 0x4 ADD PUSH2 0x9BF SWAP1 PUSH2 0x10DB JUMP JUMPDEST PUSH1 0x40 MLOAD DUP1 SWAP2 SUB SWAP1 REVERT JUMPDEST PUSH1 0x5 SLOAD PUSH1 0xB DUP2 SWAP1 SSTORE POP PUSH0 DUP1 SLOAD SWAP1 PUSH2 0x100 EXP SWAP1 DIV PUSH20 0xFFFFFFFFFFFFFFFFFFFFFFFFFFFFFFFFFFFFFFFF AND PUSH20 0xFFFFFFFFFFFFFFFFFFFFFFFFFFFFFFFFFFFFFFFF AND PUSH2 0x8FC PUSH1 0x5 SLOAD SWAP1 DUP2 ISZERO MUL SWAP1 PUSH1 0x40 MLOAD PUSH0 PUSH1 0x40 MLOAD DUP1 DUP4 SUB DUP2 DUP6 DUP9 DUP9 CALL SWAP4 POP POP POP POP ISZERO DUP1 ISZERO PUSH2 0xA35 JUMPI RETURNDATASIZE PUSH0 DUP1 RETURNDATACOPY RETURNDATASIZE PUSH0 REVERT JUMPDEST POP PUSH1 0x2 PUSH1 0xC PUSH0 PUSH2 0x100 EXP DUP2 SLOAD DUP2 PUSH1 0xFF MUL NOT AND SWAP1 DUP4 PUSH1 0x3 DUP2 GT ISZERO PUSH2 0xA5B JUMPI PUSH2 0xA5A PUSH2 0xAF5 JUMP JUMPDEST JUMPDEST MUL OR SWAP1 SSTORE POP PUSH32 0xB398EC266CAE176BD0A8D43B35200DA0BB13C5620AD5E1663ABDC3967A4EE50F PUSH1 0xB SLOAD PUSH1 0x9 SLOAD ADDRESS PUSH1 0x40 MLOAD PUSH2 0xA97 SWAP4 SWAP3 SWAP2 SWAP1 PUSH2 0x10F9 JUMP JUMPDEST PUSH1 0x40 MLOAD DUP1 SWAP2 SUB SWAP1 LOG1 JUMP JUMPDEST PUSH0 DUP1 SLOAD SWAP1 PUSH2 0x100 EXP SWAP1 DIV PUSH20 0xFFFFFFFFFFFFFFFFFFFFFFFFFFFFFFFFFFFFFFFF AND DUP2 JUMP JUMPDEST PUSH0 DUP2 SWAP1 POP SWAP2 SWAP1 POP JUMP JUMPDEST PUSH2 0xAD6 DUP2 PUSH2 0xAC4 JUMP JUMPDEST DUP3 MSTORE POP POP JUMP JUMPDEST PUSH0 PUSH1 0x20 DUP3 ADD SWAP1 POP PUSH2 0xAEF PUSH0 DUP4 ADD DUP5 PUSH2 0xACD JUMP JUMPDEST SWAP3 SWAP2 POP POP JUMP JUMPDEST PUSH32 0x4E487B7100000000000000000000000000000000000000000000000000000000 PUSH0 MSTORE PUSH1 0x21 PUSH1 0x4 MSTORE PUSH1 0x24 PUSH0 REVERT JUMPDEST PUSH1 0x4 DUP2 LT PUSH2 0xB33 JUMPI PUSH2 0xB32 PUSH2 0xAF5 JUMP JUMPDEST JUMPDEST POP JUMP JUMPDEST PUSH0 DUP2 SWAP1 POP PUSH2 0xB43 DUP3 PUSH2 0xB22 JUMP JUMPDEST SWAP2 SWAP1 POP JUMP JUMPDEST PUSH0 PUSH2 0xB52 DUP3 PUSH2 0xB36 JUMP JUMPDEST SWAP1 POP SWAP2 SWAP1 POP JUMP JUMPDEST PUSH2 0xB62 DUP2 PUSH2 0xB48 JUMP JUMPDEST DUP3 MSTORE POP POP JUMP JUMPDEST PUSH0 PUSH1 0x20 DUP3 ADD SWAP1 POP PUSH2 0xB7B PUSH0 DUP4 ADD DUP5 PUSH2 0xB59 JUMP JUMPDEST SWAP3 SWAP2 POP POP JUMP JUMPDEST PUSH0 DUP1 REVERT JUMPDEST PUSH2 0xB8E DUP2 PUSH2 0xAC4 JUMP JUMPDEST DUP2 EQ PUSH2 0xB98 JUMPI PUSH0 DUP1 REVERT JUMPDEST POP JUMP JUMPDEST PUSH0 DUP2 CALLDATALOAD SWAP1 POP PUSH2 0xBA9 DUP2 PUSH2 0xB85 JUMP JUMPDEST SWAP3 SWAP2 POP POP JUMP JUMPDEST PUSH0 PUSH1 0x20 DUP3 DUP5 SUB SLT ISZERO PUSH2 0xBC4 JUMPI PUSH2 0xBC3 PUSH2 0xB81 JUMP JUMPDEST JUMPDEST PUSH0 PUSH2 0xBD1 DUP5 DUP3 DUP6 ADD PUSH2 0xB9B JUMP JUMPDEST SWAP2 POP POP SWAP3 SWAP2 POP POP JUMP JUMPDEST PUSH0 DUP2 MLOAD SWAP1 POP SWAP2 SWAP1 POP JUMP JUMPDEST PUSH0 DUP3 DUP3 MSTORE PUSH1 0x20 DUP3 ADD SWAP1 POP SWAP3 SWAP2 POP POP JUMP JUMPDEST DUP3 DUP2 DUP4 MCOPY PUSH0 DUP4 DUP4 ADD MSTORE POP POP POP JUMP JUMPDEST PUSH0 PUSH1 0x1F NOT PUSH1 0x1F DUP4 ADD AND SWAP1 POP SWAP2 SWAP1 POP JUMP JUMPDEST PUSH0 PUSH2 0xC1C DUP3 PUSH2 0xBDA JUMP JUMPDEST PUSH2 0xC26 DUP2 DUP6 PUSH2 0xBE4 JUMP JUMPDEST SWAP4 POP PUSH2 0xC36 DUP2 DUP6 PUSH1 0x20 DUP7 ADD PUSH2 0xBF4 JUMP JUMPDEST PUSH2 0xC3F DUP2 PUSH2 0xC02 JUMP JUMPDEST DUP5 ADD SWAP2 POP POP SWAP3 SWAP2 POP POP JUMP JUMPDEST PUSH0 PUSH1 0x20 DUP3 ADD SWAP1 POP DUP2 DUP2 SUB PUSH0 DUP4 ADD MSTORE PUSH2 0xC62 DUP2 DUP5 PUSH2 0xC12 JUMP JUMPDEST SWAP1 POP SWAP3 SWAP2 POP POP JUMP JUMPDEST PUSH0 PUSH20 0xFFFFFFFFFFFFFFFFFFFFFFFFFFFFFFFFFFFFFFFF DUP3 AND SWAP1 POP SWAP2 SWAP1 POP JUMP JUMPDEST PUSH0 PUSH2 0xC93 DUP3 PUSH2 0xC6A JUMP JUMPDEST SWAP1 POP SWAP2 SWAP1 POP JUMP JUMPDEST PUSH2 0xCA3 DUP2 PUSH2 0xC89 JUMP JUMPDEST DUP3 MSTORE POP POP JUMP JUMPDEST PUSH0 PUSH1 0x20 DUP3 ADD SWAP1 POP PUSH2 0xCBC PUSH0 DUP4 ADD DUP5 PUSH2 0xC9A JUMP JUMPDEST SWAP3 SWAP2 POP POP JUMP JUMPDEST PUSH0 PUSH2 0x160 DUP3 ADD SWAP1 POP PUSH2 0xCD6 PUSH0 DUP4 ADD DUP15 PUSH2 0xC9A JUMP JUMPDEST PUSH2 0xCE3 PUSH1 0x20 DUP4 ADD DUP14 PUSH2 0xACD JUMP JUMPDEST PUSH2 0xCF0 PUSH1 0x40 DUP4 ADD DUP13 PUSH2 0xC9A JUMP JUMPDEST PUSH2 0xCFD PUSH1 0x60 DUP4 ADD DUP12 PUSH2 0xACD JUMP JUMPDEST DUP2 DUP2 SUB PUSH1 0x80 DUP4 ADD MSTORE PUSH2 0xD0F DUP2 DUP11 PUSH2 0xC12 JUMP JUMPDEST SWAP1 POP PUSH2 0xD1E PUSH1 0xA0 DUP4 ADD DUP10 PUSH2 0xACD JUMP JUMPDEST PUSH2 0xD2B PUSH1 0xC0 DUP4 ADD DUP9 PUSH2 0xACD JUMP JUMPDEST PUSH2 0xD38 PUSH1 0xE0 DUP4 ADD DUP8 PUSH2 0xACD JUMP JUMPDEST PUSH2 0xD46 PUSH2 0x100 DUP4 ADD DUP7 PUSH2 0xACD JUMP JUMPDEST PUSH2 0xD54 PUSH2 0x120 DUP4 ADD DUP6 PUSH2 0xACD JUMP JUMPDEST PUSH2 0xD62 PUSH2 0x140 DUP4 ADD DUP5 PUSH2 0xB59 JUMP JUMPDEST SWAP13 SWAP12 POP POP POP POP POP POP POP POP POP POP POP POP JUMP JUMPDEST PUSH32 0x436F6E747261637420616C726561647920636C61696D65640000000000000000 PUSH0 DUP3 ADD MSTORE POP JUMP JUMPDEST PUSH0 PUSH2 0xDA6 PUSH1 0x18 DUP4 PUSH2 0xBE4 JUMP JUMPDEST SWAP2 POP PUSH2 0xDB1 DUP3 PUSH2 0xD72 JUMP JUMPDEST PUSH1 0x20 DUP3 ADD SWAP1 POP SWAP2 SWAP1 POP JUMP JUMPDEST PUSH0 PUSH1 0x20 DUP3 ADD SWAP1 POP DUP2 DUP2 SUB PUSH0 DUP4 ADD MSTORE PUSH2 0xDD3 DUP2 PUSH2 0xD9A JUMP JUMPDEST SWAP1 POP SWAP2 SWAP1 POP JUMP JUMPDEST PUSH0 PUSH1 0x60 DUP3 ADD SWAP1 POP PUSH2 0xDED PUSH0 DUP4 ADD DUP7 PUSH2 0xC9A JUMP JUMPDEST PUSH2 0xDFA PUSH1 0x20 DUP4 ADD DUP6 PUSH2 0xACD JUMP JUMPDEST PUSH2 0xE07 PUSH1 0x40 DUP4 ADD DUP5 PUSH2 0xC9A JUMP JUMPDEST SWAP5 SWAP4 POP POP POP POP JUMP JUMPDEST PUSH32 0x4E487B7100000000000000000000000000000000000000000000000000000000 PUSH0 MSTORE PUSH1 0x22 PUSH1 0x4 MSTORE PUSH1 0x24 PUSH0 REVERT JUMPDEST PUSH0 PUSH1 0x2 DUP3 DIV SWAP1 POP PUSH1 0x1 DUP3 AND DUP1 PUSH2 0xE53 JUMPI PUSH1 0x7F DUP3 AND SWAP2 POP JUMPDEST PUSH1 0x20 DUP3 LT DUP2 SUB PUSH2 0xE66 JUMPI PUSH2 0xE65 PUSH2 0xE0F JUMP JUMPDEST JUMPDEST POP SWAP2 SWAP1 POP JUMP JUMPDEST PUSH32 0x436F6E7472616374206D75737420626520616374697665000000000000000000 PUSH0 DUP3 ADD MSTORE POP JUMP JUMPDEST PUSH0 PUSH2 0xEA0 PUSH1 0x17 DUP4 PUSH2 0xBE4 JUMP JUMPDEST SWAP2 POP PUSH2 0xEAB DUP3 PUSH2 0xE6C JUMP JUMPDEST PUSH1 0x20 DUP3 ADD SWAP1 POP SWAP2 SWAP1 POP JUMP JUMPDEST PUSH0 PUSH1 0x20 DUP3 ADD SWAP1 POP DUP2 DUP2 SUB PUSH0 DUP4 ADD MSTORE PUSH2 0xECD DUP2 PUSH2 0xE94 JUMP JUMPDEST SWAP1 POP SWAP2 SWAP1 POP JUMP JUMPDEST PUSH32 0x4E487B7100000000000000000000000000000000000000000000000000000000 PUSH0 MSTORE PUSH1 0x11 PUSH1 0x4 MSTORE PUSH1 0x24 PUSH0 REVERT JUMPDEST PUSH0 PUSH2 0xF0B DUP3 PUSH2 0xAC4 JUMP JUMPDEST SWAP2 POP PUSH2 0xF16 DUP4 PUSH2 0xAC4 JUMP JUMPDEST SWAP3 POP DUP3 DUP3 MUL PUSH2 0xF24 DUP2 PUSH2 0xAC4 JUMP JUMPDEST SWAP2 POP DUP3 DUP3 DIV DUP5 EQ DUP4 ISZERO OR PUSH2 0xF3B JUMPI PUSH2 0xF3A PUSH2 0xED4 JUMP JUMPDEST JUMPDEST POP SWAP3 SWAP2 POP POP JUMP JUMPDEST PUSH0 PUSH2 0xF4C DUP3 PUSH2 0xAC4 JUMP JUMPDEST SWAP2 POP PUSH2 0xF57 DUP4 PUSH2 0xAC4 JUMP JUMPDEST SWAP3 POP DUP3 DUP3 ADD SWAP1 POP DUP1 DUP3 GT ISZERO PUSH2 0xF6F JUMPI PUSH2 0xF6E PUSH2 0xED4 JUMP JUMPDEST JUMPDEST SWAP3 SWAP2 POP POP JUMP JUMPDEST PUSH32 0x496E73756666696369656E74206465706F736974210000000000000000000000 PUSH0 DUP3 ADD MSTORE POP JUMP JUMPDEST PUSH0 PUSH2 0xFA9 PUSH1 0x15 DUP4 PUSH2 0xBE4 JUMP JUMPDEST SWAP2 POP PUSH2 0xFB4 DUP3 PUSH2 0xF75 JUMP JUMPDEST PUSH1 0x20 DUP3 ADD SWAP1 POP SWAP2 SWAP1 POP JUMP JUMPDEST PUSH0 PUSH1 0x20 DUP3 ADD SWAP1 POP DUP2 DUP2 SUB PUSH0 DUP4 ADD MSTORE PUSH2 0xFD6 DUP2 PUSH2 0xF9D JUMP JUMPDEST SWAP1 POP SWAP2 SWAP1 POP JUMP JUMPDEST PUSH32 0x4F6E6C79207468652062757965722063616E2072656C65617365207061796D65 PUSH0 DUP3 ADD MSTORE PUSH32 0x6E74000000000000000000000000000000000000000000000000000000000000 PUSH1 0x20 DUP3 ADD MSTORE POP JUMP JUMPDEST PUSH0 PUSH2 0x1037 PUSH1 0x22 DUP4 PUSH2 0xBE4 JUMP JUMPDEST SWAP2 POP PUSH2 0x1042 DUP3 PUSH2 0xFDD JUMP JUMPDEST PUSH1 0x40 DUP3 ADD SWAP1 POP SWAP2 SWAP1 POP JUMP JUMPDEST PUSH0 PUSH1 0x20 DUP3 ADD SWAP1 POP DUP2 DUP2 SUB PUSH0 DUP4 ADD MSTORE PUSH2 0x1064 DUP2 PUSH2 0x102B JUMP JUMPDEST SWAP1 POP SWAP2 SWAP1 POP JUMP JUMPDEST PUSH32 0x5061796D656E742068617320616C7265616479206265656E2072656C65617365 PUSH0 DUP3 ADD MSTORE PUSH32 0x6400000000000000000000000000000000000000000000000000000000000000 PUSH1 0x20 DUP3 ADD MSTORE POP JUMP JUMPDEST PUSH0 PUSH2 0x10C5 PUSH1 0x21 DUP4 PUSH2 0xBE4 JUMP JUMPDEST SWAP2 POP PUSH2 0x10D0 DUP3 PUSH2 0x106B JUMP JUMPDEST PUSH1 0x40 DUP3 ADD SWAP1 POP SWAP2 SWAP1 POP JUMP JUMPDEST PUSH0 PUSH1 0x20 DUP3 ADD SWAP1 POP DUP2 DUP2 SUB PUSH0 DUP4 ADD MSTORE PUSH2 0x10F2 DUP2 PUSH2 0x10B9 JUMP JUMPDEST SWAP1 POP SWAP2 SWAP1 POP JUMP JUMPDEST PUSH0 PUSH1 0x60 DUP3 ADD SWAP1 POP PUSH2 0x110C PUSH0 DUP4 ADD DUP7 PUSH2 0xACD JUMP JUMPDEST PUSH2 0x1119 PUSH1 0x20 DUP4 ADD DUP6 PUSH2 0xACD JUMP JUMPDEST PUSH2 0x1126 PUSH1 0x40 DUP4 ADD DUP5 PUSH2 0xC9A JUMP JUMPDEST SWAP5 SWAP4 POP POP POP POP JUMP INVALID LOG2 PUSH5 0x6970667358 0x22 SLT KECCAK256 0xB3 KECCAK256 SWAP4 PUSH4 0x641F6230 0x26 0xC4 0x2D 0xC6 ADD 0xDC NOT 0x2A SELFBALANCE 0xD9 0xF7 0xCC 0xD 0x2A 0xD4 0xC6 MOD 0x28 0xB1 PUSH12 0xA330354364736F6C63430008 BYTE STOP CALLER "
		},
		"gasEstimates": {
			"creation": {
				"codeDepositCost": "890400",
				"executionCost": "infinite",
				"totalCost": "infinite"
			},
			"external": {
				"buyer()": "2553",
				"buyer_phoneNumber()": "2515",
				"claimContract(uint256)": "infinite",
				"contractID()": "2492",
				"cropType()": "infinite",
				"deliveryDeadline()": "2470",
				"depositPayment(uint256)": "infinite",
				"farmer()": "2615",
				"farmer_phoneNumber()": "2469",
				"getContractDetails()": "infinite",
				"initialPayment()": "2493",
				"paymentReleased()": "2491",
				"pricePerKg()": "2447",
				"quantity()": "2449",
				"releasePayment()": "infinite",
				"status()": "2600",
				"totalPayment()": "2492"
			}
		},
		"methodIdentifiers": {
			"buyer()": "7150d8ae",
			"buyer_phoneNumber()": "263f68ae",
			"claimContract(uint256)": "41e8a188",
			"contractID()": "91f30bd4",
			"cropType()": "62b1f2ed",
			"deliveryDeadline()": "57549eb0",
			"depositPayment(uint256)": "6b749c47",
			"farmer()": "d811fcf0",
			"farmer_phoneNumber()": "bbf64b2b",
			"getContractDetails()": "9dfc9117",
			"initialPayment()": "2199a57d",
			"paymentReleased()": "c63735b3",
			"pricePerKg()": "a145c2ee",
			"quantity()": "17fc45e2",
			"releasePayment()": "d116c8c4",
			"status()": "200d2ed2",
			"totalPayment()": "58eeabbc"
		}
	},
	"abi": [
		{
			"inputs": [
				{
					"internalType": "address",
					"name": "_buyer",
					"type": "address"
				},
				{
					"internalType": "string",
					"name": "_cropType",
					"type": "string"
				},
				{
					"internalType": "uint256",
					"name": "_deliveryDeadline",
					"type": "uint256"
				},
				{
					"internalType": "uint256",
					"name": "_quantity",
					"type": "uint256"
				},
				{
					"internalType": "uint256",
					"name": "_offeredPricePerKg",
					"type": "uint256"
				},
				{
					"internalType": "uint256",
					"name": "_buyerPhoneNumber",
					"type": "uint256"
				},
				{
					"internalType": "uint256",
					"name": "_contractID",
					"type": "uint256"
				},
				{
					"internalType": "uint256",
					"name": "_initialPayment",
					"type": "uint256"
				}
			],
			"stateMutability": "payable",
			"type": "constructor"
		},
		{
			"anonymous": false,
			"inputs": [
				{
					"indexed": false,
					"internalType": "address",
					"name": "farmer",
					"type": "address"
				},
				{
					"indexed": false,
					"internalType": "uint256",
					"name": "contractID",
					"type": "uint256"
				},
				{
					"indexed": false,
					"internalType": "address",
					"name": "contractAddress",
					"type": "address"
				}
			],
			"name": "ContractClaimed",
			"type": "event"
		},
		{
			"anonymous": false,
			"inputs": [
				{
					"indexed": false,
					"internalType": "uint256",
					"name": "amount",
					"type": "uint256"
				},
				{
					"indexed": false,
					"internalType": "uint256",
					"name": "contractID",
					"type": "uint256"
				},
				{
					"indexed": false,
					"internalType": "address",
					"name": "contractAddress",
					"type": "address"
				}
			],
			"name": "PaymentReleased",
			"type": "event"
		},
		{
			"inputs": [],
			"name": "buyer",
			"outputs": [
				{
					"internalType": "address",
					"name": "",
					"type": "address"
				}
			],
			"stateMutability": "view",
			"type": "function"
		},
		{
			"inputs": [],
			"name": "buyer_phoneNumber",
			"outputs": [
				{
					"internalType": "uint256",
					"name": "",
					"type": "uint256"
				}
			],
			"stateMutability": "view",
			"type": "function"
		},
		{
			"inputs": [
				{
					"internalType": "uint256",
					"name": "_farmerPhoneNumber",
					"type": "uint256"
				}
			],
			"name": "claimContract",
			"outputs": [],
			"stateMutability": "nonpayable",
			"type": "function"
		},
		{
			"inputs": [],
			"name": "contractID",
			"outputs": [
				{
					"internalType": "uint256",
					"name": "",
					"type": "uint256"
				}
			],
			"stateMutability": "view",
			"type": "function"
		},
		{
			"inputs": [],
			"name": "cropType",
			"outputs": [
				{
					"internalType": "string",
					"name": "",
					"type": "string"
				}
			],
			"stateMutability": "view",
			"type": "function"
		},
		{
			"inputs": [],
			"name": "deliveryDeadline",
			"outputs": [
				{
					"internalType": "uint256",
					"name": "",
					"type": "uint256"
				}
			],
			"stateMutability": "view",
			"type": "function"
		},
		{
			"inputs": [
				{
					"internalType": "uint256",
					"name": "_negotiatedPricePerKg",
					"type": "uint256"
				}
			],
			"name": "depositPayment",
			"outputs": [],
			"stateMutability": "payable",
			"type": "function"
		},
		{
			"inputs": [],
			"name": "farmer",
			"outputs": [
				{
					"internalType": "address",
					"name": "",
					"type": "address"
				}
			],
			"stateMutability": "view",
			"type": "function"
		},
		{
			"inputs": [],
			"name": "farmer_phoneNumber",
			"outputs": [
				{
					"internalType": "uint256",
					"name": "",
					"type": "uint256"
				}
			],
			"stateMutability": "view",
			"type": "function"
		},
		{
			"inputs": [],
			"name": "getContractDetails",
			"outputs": [
				{
					"internalType": "address",
					"name": "_farmerWallet",
					"type": "address"
				},
				{
					"internalType": "uint256",
					"name": "_farmerPhoneNumber",
					"type": "uint256"
				},
				{
					"internalType": "address",
					"name": "_buyerWallet",
					"type": "address"
				},
				{
					"internalType": "uint256",
					"name": "_buyerPhoneNumber",
					"type": "uint256"
				},
				{
					"internalType": "string",
					"name": "_cropType",
					"type": "string"
				},
				{
					"internalType": "uint256",
					"name": "_deliveryDeadline",
					"type": "uint256"
				},
				{
					"internalType": "uint256",
					"name": "_quantity",
					"type": "uint256"
				},
				{
					"internalType": "uint256",
					"name": "_pricePerKg",
					"type": "uint256"
				},
				{
					"internalType": "uint256",
					"name": "_totalPayment",
					"type": "uint256"
				},
				{
					"internalType": "uint256",
					"name": "_contractID",
					"type": "uint256"
				},
				{
					"internalType": "enum FarmingContract.ContractStatus",
					"name": "_status",
					"type": "uint8"
				}
			],
			"stateMutability": "view",
			"type": "function"
		},
		{
			"inputs": [],
			"name": "initialPayment",
			"outputs": [
				{
					"internalType": "uint256",
					"name": "",
					"type": "uint256"
				}
			],
			"stateMutability": "view",
			"type": "function"
		},
		{
			"inputs": [],
			"name": "paymentReleased",
			"outputs": [
				{
					"internalType": "uint256",
					"name": "",
					"type": "uint256"
				}
			],
			"stateMutability": "view",
			"type": "function"
		},
		{
			"inputs": [],
			"name": "pricePerKg",
			"outputs": [
				{
					"internalType": "uint256",
					"name": "",
					"type": "uint256"
				}
			],
			"stateMutability": "view",
			"type": "function"
		},
		{
			"inputs": [],
			"name": "quantity",
			"outputs": [
				{
					"internalType": "uint256",
					"name": "",
					"type": "uint256"
				}
			],
			"stateMutability": "view",
			"type": "function"
		},
		{
			"inputs": [],
			"name": "releasePayment",
			"outputs": [],
			"stateMutability": "nonpayable",
			"type": "function"
		},
		{
			"inputs": [],
			"name": "status",
			"outputs": [
				{
					"internalType": "enum FarmingContract.ContractStatus",
					"name": "",
					"type": "uint8"
				}
			],
			"stateMutability": "view",
			"type": "function"
		},
		{
			"inputs": [],
			"name": "totalPayment",
			"outputs": [
				{
					"internalType": "uint256",
					"name": "",
					"type": "uint256"
				}
			],
			"stateMutability": "view",
			"type": "function"
		}
	]
}