{
	"data": {
		"bytecode": {
			"linkReferences": {},
			"object": "6080604052348015600e575f80fd5b506040516102153803806102158339818101604052810190602e9190606b565b805f81905550506091565b5f80fd5b5f819050919050565b604d81603d565b81146056575f80fd5b50565b5f815190506065816046565b92915050565b5f60208284031215607d57607c6039565b5b5f6088848285016059565b91505092915050565b6101778061009e5f395ff3fe608060405234801561000f575f80fd5b506004361061003f575f3560e01c80634e70b1dc146100435780634f2be91f1461006157806367e0badb1461006b575b5f80fd5b61004b610089565b60405161005891906100c8565b60405180910390f35b61006961008e565b005b6100736100a8565b60405161008091906100c8565b60405180910390f35b5f5481565b60015f8082825461009f919061010e565b92505081905550565b5f8054905090565b5f819050919050565b6100c2816100b0565b82525050565b5f6020820190506100db5f8301846100b9565b92915050565b7f4e487b71000000000000000000000000000000000000000000000000000000005f52601160045260245ffd5b5f610118826100b0565b9150610123836100b0565b925082820190508082111561013b5761013a6100e1565b5b9291505056fea2646970667358221220ab502386f7c58472d75296cb2c421e67c48e8ee4f2bb2e6dfd0d6e2b67c62dd864736f6c634300081a0033",
			"opcodes": "PUSH1 0x80 PUSH1 0x40 MSTORE CALLVALUE DUP1 ISZERO PUSH1 0xE JUMPI PUSH0 DUP1 REVERT JUMPDEST POP PUSH1 0x40 MLOAD PUSH2 0x215 CODESIZE SUB DUP1 PUSH2 0x215 DUP4 CODECOPY DUP2 DUP2 ADD PUSH1 0x40 MSTORE DUP2 ADD SWAP1 PUSH1 0x2E SWAP2 SWAP1 PUSH1 0x6B JUMP JUMPDEST DUP1 PUSH0 DUP2 SWAP1 SSTORE POP POP PUSH1 0x91 JUMP JUMPDEST PUSH0 DUP1 REVERT JUMPDEST PUSH0 DUP2 SWAP1 POP SWAP2 SWAP1 POP JUMP JUMPDEST PUSH1 0x4D DUP2 PUSH1 0x3D JUMP JUMPDEST DUP2 EQ PUSH1 0x56 JUMPI PUSH0 DUP1 REVERT JUMPDEST POP JUMP JUMPDEST PUSH0 DUP2 MLOAD SWAP1 POP PUSH1 0x65 DUP2 PUSH1 0x46 JUMP JUMPDEST SWAP3 SWAP2 POP POP JUMP JUMPDEST PUSH0 PUSH1 0x20 DUP3 DUP5 SUB SLT ISZERO PUSH1 0x7D JUMPI PUSH1 0x7C PUSH1 0x39 JUMP JUMPDEST JUMPDEST PUSH0 PUSH1 0x88 DUP5 DUP3 DUP6 ADD PUSH1 0x59 JUMP JUMPDEST SWAP2 POP POP SWAP3 SWAP2 POP POP JUMP JUMPDEST PUSH2 0x177 DUP1 PUSH2 0x9E PUSH0 CODECOPY PUSH0 RETURN INVALID PUSH1 0x80 PUSH1 0x40 MSTORE CALLVALUE DUP1 ISZERO PUSH2 0xF JUMPI PUSH0 DUP1 REVERT JUMPDEST POP PUSH1 0x4 CALLDATASIZE LT PUSH2 0x3F JUMPI PUSH0 CALLDATALOAD PUSH1 0xE0 SHR DUP1 PUSH4 0x4E70B1DC EQ PUSH2 0x43 JUMPI DUP1 PUSH4 0x4F2BE91F EQ PUSH2 0x61 JUMPI DUP1 PUSH4 0x67E0BADB EQ PUSH2 0x6B JUMPI JUMPDEST PUSH0 DUP1 REVERT JUMPDEST PUSH2 0x4B PUSH2 0x89 JUMP JUMPDEST PUSH1 0x40 MLOAD PUSH2 0x58 SWAP2 SWAP1 PUSH2 0xC8 JUMP JUMPDEST PUSH1 0x40 MLOAD DUP1 SWAP2 SUB SWAP1 RETURN JUMPDEST PUSH2 0x69 PUSH2 0x8E JUMP JUMPDEST STOP JUMPDEST PUSH2 0x73 PUSH2 0xA8 JUMP JUMPDEST PUSH1 0x40 MLOAD PUSH2 0x80 SWAP2 SWAP1 PUSH2 0xC8 JUMP JUMPDEST PUSH1 0x40 MLOAD DUP1 SWAP2 SUB SWAP1 RETURN JUMPDEST PUSH0 SLOAD DUP2 JUMP JUMPDEST PUSH1 0x1 PUSH0 DUP1 DUP3 DUP3 SLOAD PUSH2 0x9F SWAP2 SWAP1 PUSH2 0x10E JUMP JUMPDEST SWAP3 POP POP DUP2 SWAP1 SSTORE POP JUMP JUMPDEST PUSH0 DUP1 SLOAD SWAP1 POP SWAP1 JUMP JUMPDEST PUSH0 DUP2 SWAP1 POP SWAP2 SWAP1 POP JUMP JUMPDEST PUSH2 0xC2 DUP2 PUSH2 0xB0 JUMP JUMPDEST DUP3 MSTORE POP POP JUMP JUMPDEST PUSH0 PUSH1 0x20 DUP3 ADD SWAP1 POP PUSH2 0xDB PUSH0 DUP4 ADD DUP5 PUSH2 0xB9 JUMP JUMPDEST SWAP3 SWAP2 POP POP JUMP JUMPDEST PUSH32 0x4E487B7100000000000000000000000000000000000000000000000000000000 PUSH0 MSTORE PUSH1 0x11 PUSH1 0x4 MSTORE PUSH1 0x24 PUSH0 REVERT JUMPDEST PUSH0 PUSH2 0x118 DUP3 PUSH2 0xB0 JUMP JUMPDEST SWAP2 POP PUSH2 0x123 DUP4 PUSH2 0xB0 JUMP JUMPDEST SWAP3 POP DUP3 DUP3 ADD SWAP1 POP DUP1 DUP3 GT ISZERO PUSH2 0x13B JUMPI PUSH2 0x13A PUSH2 0xE1 JUMP JUMPDEST JUMPDEST SWAP3 SWAP2 POP POP JUMP INVALID LOG2 PUSH5 0x6970667358 0x22 SLT KECCAK256 0xAB POP 0x23 DUP7 0xF7 0xC5 DUP5 PUSH19 0xD75296CB2C421E67C48E8EE4F2BB2E6DFD0D6E 0x2B PUSH8 0xC62DD864736F6C63 NUMBER STOP ADDMOD BYTE STOP CALLER "
		},
		"gasEstimates": {
			"creation": {
				"codeDepositCost": "75000",
				"executionCost": "infinite",
				"totalCost": "infinite"
			},
			"external": {
				"add()": "infinite",
				"getNum()": "2454",
				"num()": "2402"
			}
		},
		"methodIdentifiers": {
			"add()": "4f2be91f",
			"getNum()": "67e0badb",
			"num()": "4e70b1dc"
		}
	},
	"abi": [
		{
			"inputs": [
				{
					"internalType": "uint256",
					"name": "_num",
					"type": "uint256"
				}
			],
			"stateMutability": "nonpayable",
			"type": "constructor"
		},
		{
			"inputs": [],
			"name": "add",
			"outputs": [],
			"stateMutability": "nonpayable",
			"type": "function"
		},
		{
			"inputs": [],
			"name": "getNum",
			"outputs": [
				{
					"internalType": "uint256",
					"name": "",
					"type": "uint256"
				}
			],
			"stateMutability": "view",
			"type": "function"
		},
		{
			"inputs": [],
			"name": "num",
			"outputs": [
				{
					"internalType": "uint256",
					"name": "",
					"type": "uint256"
				}
			],
			"stateMutability": "view",
			"type": "function"
		}
	]
}